:101000001052022075880000D9870000A5880000D2
:10101000A5880000A5880000A58800000000000049
:10102000000000000000000000000000C585000076
:10103000A5880000000000007D850000C18100003F
:1010400035880000E9D800003588000035880000A8
:10105000358800003588000035880000358800009C
:10106000CDD80000358800003588000035880000A4
:10107000358800003588000035880000358800007C
:10108000358800003588000035880000358800006C
:10109000358800003588000035880000358800005C
:1010A000358800003588000035880000358800004C
:1010B000358800003588000035880000358800003C
:1010C000358800003588000035880000358800002C
:1010D000358800003588000035880000358800001C
:1010E000358800003588000035880000358800000C
:1010F00035880000358800003588000035880000FC
:1011000053B94AB9002908BF00281CBF4FF0FF316E
:101110004FF0FF3000F06CB9ADF1080C6DE904CE72
:1011200000F006F8DDF804E0DDE9022304B07047C2
:101130002DE9F047089E0D4604468E46002B40F0F0
:1011400082808A42174646D9B2FA82F24AB1C2F187
:10115000200105FA02F320FA01F1974041EA030E5B
:1011600094404FEA1748230CBEFBF8FCB9B208FBC9
:101170001CEE43EA0E430CFB01F098420AD9FB181F
:101180000CF1FF3580F01681984240F21381ACF1EA
:10119000020C3B441B1AA4B2B3FBF8F008FB10335B
:1011A00044EA034400FB01F1A14209D93C1900F1D2
:1011B000FF3380F00181A14240F2FE8002383C44BE
:1011C000641A40EA0C4000211EB1D4400023C6E955
:1011D0000043BDE8F08702B9FFDEB2FA82F2002ACE
:1011E0004FD1CB1B4FEA174E1FFA87F80121B3FBF3
:1011F000FEFC250C0EFB1C3345EA034508FB0CF3F3
:10120000AB4207D97D190CF1FF3002D2AB4200F29C
:10121000E7808446ED1AA3B2B5FBFEF00EFB105535
:1012200043EA054408FB00F8A04507D93C1900F142
:10123000FF3302D2A04500F2D7801846A4EB080481
:1012400040EA0C40C0E78B4208D9002E00F0AF8086
:101250000021C6E900050846BDE8F087B3FA83F12E
:1012600000294BD1AB4202D3824200F2B780841AEC
:1012700065EB030301209E46002EAAD0C6E9004E6E
:10128000A7E7C2F1200C01FA02F3974020FA0CF014
:101290004FEA174E21FA0CFC1843BCFBFEF1050C7B
:1012A0000EFB11CC1FFA87F845EA0C4501FB08F349
:1012B000AB4204FA02F409D97D1901F1FF3C80F038
:1012C0008B80AB4240F2888002393D44EB1A85B2F4
:1012D000B3FBFEF00EFB103345EA034500FB08F3B9
:1012E000AB4207D97D1900F1FF3C71D2AB426FD9F7
:1012F00002383D44EB1A40EA014178E7C1F1200C85
:101300008B4022FA0CF71F4320FA0CF405FA01F384
:101310004FEA174E25FA0CF51C43230CB5FBFEF9DA
:101320001FFA87F80EFB195543EA054509FB08FA31
:10133000AA4502FA01F200FA01F308D97D1909F170
:10134000FF3047D2AA4545D9A9F102093D44A5EB92
:101350000A05A4B2B5FBFEF00EFB105544EA0544A5
:1013600000FB08F8A04507D93C1900F1FF352DD244
:10137000A0452BD902383C4440EA0940A4EB0804BC
:10138000A0FB02894C45C6464D4619D316D05EB126
:10139000B3EB0E0264EB050404FA0CFCCA404CEA01
:1013A0000202CC40C6E900240021BDE8F0873146A6
:1013B00030460EE7AC46EDE6184601E74345E6D277
:1013C000B8EB020E69EB07050138E0E72846D3E7E2
:1013D00060468FE78146BAE7614677E708464BE704
:1013E000ACF1020C3D4415E702383C4426E700BF4F
:1013F000704700BF70B491E87800B2E802105B1843
:1014000054EB0C04B2E802104D4156EB0C0680E898
:1014100078008041013070BC704770B491E878006A
:10142000B2E802105B1A74EB0C04B2E802108D41B2
:1014300076EB0C0680E878008041404270BC704733
:101440002DE9F00791E8F807B2E802105B1854EBB9
:101450000C04B2E802104D4156EB0C06B2E8021043
:101460004F4158EB0C08B2E8021059EB01095AEB56
:101470000C0A80E8F80780410130BDE8F0077047AA
:101480002DE9F00791E8F807B2E802105B1A74EB57
:101490000C04B2E802108D4176EB0C06B2E80210A3
:1014A0008F4178EB0C08B2E8021079EB01097AEB76
:1014B0000C0A80E8F80780414042BDE8F007704719
:1014C0002DE9F007524290E87800B1E88007174014
:1014D000DB1918EA020854EB080419EA020955EB73
:1014E00009051AEA020A56EB0A0678C090E8780065
:1014F000B1E8800717407B4118EA020854EB080462
:1015000019EA020955EB09051AEA020A56EB0A061E
:1015100078C080410130BDE8F00770472DE9F00741
:10152000524290E87800B1E880071740DB1B18EAC8
:10153000020874EB080419EA020975EB09051AEAB6
:10154000020A76EB0A0678C090E87800B1E88007D6
:101550001740BB4118EA020874EB080419EA0209B3
:1015600075EB09051AEA020A76EB0A0678C0804193
:101570004042BDE8F007704790E8300091E8C000B5
:10158000A31B1340E41AF618EB1B1340ED1AFF18C7
:1015900030C0C0C17047F0B55242FFF7EDFFFFF712
:1015A000EBFFFFF7E9FFFFF7E7FFF0BD2DE9F007DD
:1015B0003AC91668A1FB069A4FF0000CE3FB06AC93
:1015C0004FF00007E4FB06C74FF00008E5FB067884
:1015D00040F8049B56684FF00009E1FB06A9E3FBC5
:1015E00066C9E4FB6679E5FB668940F804AB96685A
:1015F0004FF0000AE1FB06CAE3FB667AE4FB668A69
:10160000E5FB669A40F804CBD6684FF0000CE1FB8E
:10161000067CE3FB668CE4FB669CE5FB66AC80E83D
:101620008017BDE8F00770470A462DE9F04F92E8B1
:10163000F00F2DE9F30F87B01EC90998A1FB0078C0
:101640004FF00009E2FB00894FF0000AE3FB009A2B
:101650004FF0000BE4FB00AB0D984FF0000CE1FBEA
:1016600000BC4FF0000EE2FB00CE4FF00005E3FBA4
:1016700000E54FF00006E4FB005600970A984FF093
:101680000007E1FB0087E2FB6097E3FB60A7E4FB58
:1016900060B70E98E1FB60C7E2FB60E7E3FB6057D1
:1016A000E4FB6067CDF804800B984FF00008E1FB85
:1016B0000098E2FB60A8E3FB60B8E4FB60C80F9809
:1016C000E1FB60E8E2FB6058E3FB6068E4FB607804
:1016D000CDF808900C984FF00009E1FB00A9E2FB5F
:1016E00060B9E3FB60C9E4FB60E91098E1FB605975
:1016F000E2FB6069E3FB6079E4FB6089CDF80CA054
:10170000089901F110011EC909984FF0000AE1FB88
:1017100000BAE2FB60CAE3FB60EAE4FB605A0D98A2
:10172000E1FB606AE2FB607AE3FB608AE4FB609ABB
:10173000CDF810B00A984FF0000BE1FB00CBE2FBB4
:1017400060EBE3FB605BE4FB606B0E98E1FB607BAE
:10175000E2FB608BE3FB609BE4FB60ABCDF814C065
:101760000B984FF0000CE1FB00ECE2FB605CE3FB4C
:10177000606CE4FB607C0F98E1FB608CE2FB609C9A
:10178000E3FB60ACE4FB60BCCDF818E00C984FF0D4
:10179000000EE1FB005EE2FB606EE3FB607EE4FBBB
:1017A000608E1098E1FB609EE2FB60AEE3FB60BEE2
:1017B000E4FB60CE079800F11C0181E8E05FBDE822
:1017C000F80380E8F8030AB0BDE8F08F30B44FF0BA
:1017D000000310F8014B11F8015B013A84EA05049B
:1017E00043EA0403F5D1A3F101034FEAD37030BCFF
:1017F00070474FF0000310F8012B013943EA020350
:10180000F9D1A3F101034FEAD370704711F8013BFE
:1018100000F8013B013AF9D17047002200F8012B92
:101820000139FBD1704700BF2DE9F00791E8F807B7
:10183000B2E802105B1854EB0C04B2E802104D4100
:1018400056EB0C06B2E802104F4158EB0C08B2E818
:10185000021059EB01095AEB0C0A8941B3F1FF332D
:1018600074F1FF3475F1FF3576F1000677F100076A
:1018700078F1000879F101097AF1FF3A51F100019C
:101880004A425B184C414D4156F1000657F10007A2
:1018900058F1000859EB02095AEB010A80E8F807F1
:1018A000BDE8F00770472DE9F00791E8F807B2E8C6
:1018B00002105B1A74EB0C04B2E802108D4176EB57
:1018C0000C06B2E802108F4178EB0C08B2E8021067
:1018D00079EB01097AEB0C0A89414A425B184C41C9
:1018E0004D4156F1000657F1000758F1000859EB39
:1018F00002095AEB010A80E8F807BDE8F0077047D3
:101900000A462DE9F04F92E8F00F2DE9F30F87B06A
:101910001EC90998A1FB00784FF00009E2FB00897D
:101920004FF0000AE3FB009A4FF0000BE4FB00AB22
:101930000D984FF0000CE1FB00BC4FF0000EE2FBF5
:1019400000CE4FF00005E3FB00E54FF00006E4FB9E
:10195000005600970A984FF00007E1FB0087E2FB72
:101960006097E3FB60A7E4FB60B70E98E1FB60C7FC
:10197000E2FB60E7E3FB6057E4FB6067CDF80480BF
:101980000B984FF00008E1FB0098E2FB60A8E3FB36
:1019900060B8E4FB60C80F98E1FB60E8E2FB6058C8
:1019A000E3FB6068E4FB6078CDF808900C984FF09A
:1019B0000009E1FB00A9E2FB60B9E3FB60C9E4FBBD
:1019C00060E91098E1FB6059E2FB6069E3FB607934
:1019D000E4FB6089CDF80CA0089901F110011EC943
:1019E00009984FF0000AE1FB00BAE2FB60CAE3FB92
:1019F00060EAE4FB605A0D98E1FB606AE2FB607A02
:101A0000E3FB608AE4FB609ACDF810B00A984FF0CF
:101A1000000BE1FB00CBE2FB60EBE3FB605BE4FB74
:101A2000606B0E98E1FB607BE2FB608BE3FB609BED
:101A3000E4FB60ABCDF814C00B984FF0000CE1FB59
:101A400000ECE2FB605CE3FB606CE4FB607C0F9805
:101A5000E1FB608CE2FB609CE3FB60ACE4FB60BC00
:101A6000CDF818E00C984FF0000EE1FB005EE2FBB1
:101A7000606EE3FB607EE4FB608E1098E1FB609E8D
:101A8000E2FB60AEE3FB60BEE4FB60CEDDE9042375
:101A9000069C12EB0A0253EB0B0354EB0C0455EBC0
:101AA0000E05002040F1000012EB0B0253EB0C037B
:101AB00054EB0E0455EB0E0546410020474158EB10
:101AC000000859EB0A0940F10000B2EB0E0273F175
:101AD000000374F1000475EB0A0576EB0B0677EB57
:101AE0000C0778EB0A0879EB0C0960F10000B5EB04
:101AF0000B0576EB0C0677EB0E0778EB0B0879EB12
:101B00000E0960F100005FEAE07C7FEA0C0CDCF17A
:101B1000000EB2EB0C0273EB0C0374EB0C0475F1CA
:101B2000000576F1000677F1000778EB0E0879EBF7
:101B30000C0960F100005FEAE07CDCF1000E12EBC2
:101B40000C0253EB0C0354EB0C0455F1000556F159
:101B5000000657F1000758EB0E0859EB0C0940F14D
:101B600000005FEAE07CDCF1000E12EB0C0253EBAC
:101B70000C0354EB0C0455F1000556F1000657F127
:101B8000000758EB0E0859EB0C09DDE900ABDDE965
:101B900002011AEB060A5BEB070B50EB080051EB56
:101BA00009015FF0000C4CF1000C1AEB070A5BEB2B
:101BB000080B50EB090051EB090152EB0C025FF0EE
:101BC000000C53EB0C0354EB0C0475414CF1000C6E
:101BD000BAEB090A7BF1000B70F10000B141BA4188
:101BE00073EB0803B44175EB08056CF1000CC91BDD
:101BF00072EB080273EB0903BC4175EB09056CF14C
:101C0000000C5FEAEC787FEA0808D8F10009BAEB2B
:101C1000080A7BEB080B70EB080071F1000172F110
:101C2000000273F1000374EB090475EB08056CF115
:101C3000000C5FEAEC78D8F100091AEB080A5BEBBC
:101C4000080B50EB080051F1000152F1000253F172
:101C5000000354EB090455EB08054CF1000C5FEA56
:101C6000EC78D8F100091AEB080A5BEB080B50EB93
:101C7000080051F1000152F1000253F1000354EB4E
:101C8000090455EB0805079FA7E8000C87E83F000B
:101C900011B0BDE8F08F00BF10B586B00BF032FE7A
:101CA00000F026FD00F0D6F900F062F800F05AF8D6
:101CB00000F0FCFE00F000FE00F05AF8543001F095
:101CC000FFF900240720172814D8DFE800F03813A4
:101CD000131313131331131313132926131313138D
:101CE00013221313130C204602A900F067FE02A86A
:101CF00000F08CFF00F006FD18B100F0E1FD00F0EF
:101D000021FD00F02FFE04460028F3D000F03CFE39
:101D1000D9E7204600F0A4FDECE700F083FDE9E7F9
:101D2000204602A900F044FE02A801F079FCE1E798
:101D300001F07EFC00F0F0F900F024FADAE720462A
:101D40000DF1060202A90DF1070300F01FFE00F0DD
:101D5000E3F99DF806109DF8070002AA00F04AFA80
:101D6000C8E700BF4FF4EA72002107F093B900BF43
:101D70000048704798070020F8B50D4E37689FB1AE
:101D80000D46044600F01CFF0146384600F02AFECE
:101D9000084B306819681D60611A283900F018FE78
:101DA000BDE8F84000F0E0BCBDE8F84000F054BEEB
:101DB000780A00206C0A002010B5044600200BF0C1
:101DC00093FE04F1680102200CF002FB0BF0CEFE42
:101DD00004F1CD0100200CF0FBFABDE810400BF03F
:101DE00083BE00BF08B500200CF0D6F900200BF030
:101DF0007BFE00F0F9FE0BF0A7FFBDE808400020D5
:101E00000BF0B4BE2DE9F04FDFF8988183B00746A0
:101E10000D46FFF7ADFFD8F800308246002B00F0EA
:101E2000A7805C4EFFF7A4FF32788346002A74D166
:101E300090F83390002349FA03F414F0010440F0C1
:101E4000A6800133082BF6D101920BF0F9FD019A1F
:101E5000002840F08480DBF8D031597800290CBF8D
:101E6000082100214C4B01911B78520042EA830269
:101E700014430BF0E3FF0199BBF8022064B20C435A
:101E80000443E1B2D8F8000000F032FD434BD8F82B
:101E9000000019681D60B9F1020FA7EB01070CBF24
:101EA00018212821791A00F093FD00F05DFCDAF882
:101EB000D0311B7803F00303032B63D09AF804306E
:101EC000002B4ED13178DAF8D0010AF1540201F03A
:101ED000C3F9337883F0010333700BB39AF832609F
:101EE0000BF020FF044610B3022E35D0C435092173
:101EF000294400200CF06CFA0BF0F6FD01F04AF8D2
:101F0000A0F19C0103200CF063FA0BF021FE244B9E
:101F100008221A7003B0BDE8F08F90F8329089E77C
:101F20009AF833600BF0FEFE04460028DCD105F180
:101F3000680102200CF04CFA174B1B78002B0CBFE9
:101F4000FB22FF220746314620460BF0A9FE384609
:101F50000BF00CFE022EC9D1B4350521C8E70821CB
:101F600080E73178504601F03DFD8AF80500A9E789
:101F700000F072FDDAF8D031064E1B7803F003034F
:101F8000032B9BD13178504601F042FD96E71C01AE
:101F900064B259E7FC040020F84602206C0A0020D5
:101FA000F9460220780A00202DE9F84300F0BEFB34
:101FB000204A106000283AD000F080FC04461E4BF6
:101FC0001B782BB3FFF7D4FE1C4B1B78054643BB95
:101FD0001B4A90F83370D2E900891A4E1A483376BA
:101FE000C6E904890BF072FF2246174930460BF010
:101FF000EFFC288B00F05EFF80F00101C9B238468B
:102000000BF0FAFCFFF7B4FEC0F8D041BDE8F8834E
:1020100020460BF05BFFFFF7ABFEC0F8D041BDE8F8
:10202000F8830A4A90F83270D2E90089D5E7084C63
:10203000C5E700BF780A0020F8460220FC04002013
:1020400058070020280700206C09002050070020B6
:102050007C0A0020084B10B5002202201A700BF0F9
:10206000FBFC044601200BF0A9FC014620460CF0C5
:10207000BFF8024B187010BDF9460220F44602204A
:1020800038B5114C0D461022014620460CF062FB7B
:102090002946082204F1190006F0C8FF0B4B0C4A30
:1020A0001B780C490C4D1078237600220023C4E9DC
:1020B0000423C5E90023C1E900230CF0DDF8074B38
:1020C00001221A7038BD00BF28070020FC04002040
:1020D000F44602205007002058070020F84602204E
:1020E00008B5044B18780CF0F5F8034B00221A7071
:1020F00008BD00BFF4460220F84602200448054906
:1021000000220023C0E90023C1E90023704700BF7B
:10211000580700205007002070B5134D2B78FBB9ED
:102120000BF0C6FE0BF006FE104B114E18780CF0AB
:10213000D1F8104B1049002400221C7020460023C7
:10214000C1E90023C6E900230CF012F801200CF0CD
:102150000FF80A490A4B2C7001220C601A7070BDEE
:1021600000200BF0C1FCDBE7F9460220F446022018
:1021700058070020F846022050070020780A002067
:10218000FC04002008B5FFF7C7FF16480BF026FD3A
:1021900001200BF011FD0121252208460BF080FDE6
:1021A00000F018FD0BF0D0FD0F480BF02FFE0F488C
:1021B0000BF004FE02200BF04FFC014600200CF057
:1021C00019F908200BF048FC014601200CF012F927
:1021D00000200BF0CBFCFFF7E7FE054B01221A7045
:1021E00008BD00BFAD2400000CF7000008F7000098
:1021F000F94602202DE9F0410E4615460446FFF748
:102200008BFF1F48DFF890801E4F0BF0E7FC01208A
:102210000BF0D2FC0121084625220BF041FD00F015
:10222000D9FC0BF091FD18480BF0F0FD17480BF0AE
:10223000C5FD174B3E700622294640461C7006F02D
:10224000F5FE414638780BF015FE0BF061FD0220DB
:102250000BF002FC014600200CF0CCF808200BF03B
:10226000FBFB014601200CF0C5F800200BF07EFCC2
:10227000FFF79AFE074B04221A70BDE8F08100BFF9
:10228000AD240000F54602200CF7000008F700001E
:10229000F7460220F9460220700A002070B500209F
:1022A0000BF07AFF00200BF01FFCFFF761FD438865
:1022B000013343800446FFF75BFD01F047FC294BE7
:1022C00001221A7000F0D6FE18B9237953B1637950
:1022D00043B1254A254B11781878254ABDE870404E
:1022E000FFF788BF608800F0DFFC0BF02DFD214B6D
:1022F00094F832501B78002B0CBFFB22FF2229469A
:1023000000200BF0CDFC00F045FEA0F1280600F007
:1023100069FE022D1CD028300925054431460220D3
:102320000CF056F82946064600200CF051F80546F8
:1023300030460BF01BFC28460BF0D6FB208B00F040
:10234000B9FD40B10BF0E4FC0B4B07221A7070BDD5
:1023500018300525E1E70BF0EDFC074B07221A705A
:1023600070BD00BFFC040020F5460220F7460220A5
:10237000700A0020F8460220F9460220F0B583B02A
:102380000D460746FFF7F4FC0446FFF7C5FE0120A3
:102390000BF0DAFE3F4B2A781B781340C3F340134F
:1023A000002684F831306680204601F029FB29465A
:1023B00004F1140000F008FD3749384801F086FAAE
:1023C000294604F1540000F093FE35480BF006FC5A
:1023D00001200BF0F1FB04F11F000BF017FD04F1DD
:1023E00022000BF0EBFC2F4B94F832501B78B342D9
:1023F0000CBFFB22FF22304629460BF051FCA07F88
:10240000237DE28A218B0190A08B0090384600F05A
:1024100057FD02200BF020FB014630460BF0EAFF8F
:1024200008200BF019FB014601200BF0E3FF608848
:1024300000F03AFC0BF088FC00F0ACFDA0F128069F
:1024400000F0D0FD022D22D0283009250544314668
:1024500002200BF0BDFF2946064600200BF0B8FF16
:10246000054630460BF082FB28460BF03DFB208BE7
:1024700000F020FD40B10BF04BFCFFF795FD0A4B3F
:1024800007221A7003B0F0BD0BF054FCF5E71830CA
:102490000525DBE7F64602205807002050070020FC
:1024A000AD240000F8460220F94602202DE9F04153
:1024B00004460BF023FC02284FF000000CBF05255A
:1024C00009250BF0B3FF074601200BF0AFFF14F016
:1024D0000808A7EB0507A0EB050527D17D4E33784B
:1024E000013B072B00F2F280DFE803F00B0B0B3E01
:1024F00013185C59B8F1000F03D029463846FFF78E
:102500003BFCFFF76FFC01233370BDE8F041FFF7A0
:102510004BBD714B714918780BF0ACFCFFF762FCB6
:1025200004233370BDE8F041FFF73EBD6C4B694EAC
:1025300018780BF07DFA3378013B072B00F2C68048
:1025400001A252F823F000BF7126000033260000DC
:10255000F524000069250000F1250000E1250000B8
:10256000AF25000067260000A306CED50BF0B4FC13
:102570005C4C0378237038462946FFF7FDFB24782E
:102580000BF05CFC18B104F00F04022CC6D00BF069
:102590008FFC2846FFF710FC05233370B5E7FFF7E3
:1025A0007DFEB2E700F058FDFFF778FEADE7B8F129
:1025B000000FF7D0FFF7DCFB4B4B1B78002B6FD1E4
:1025C00090F83330022B0CBF18202820381A00F066
:1025D00033FD00F049FD29463846FFF713FC94E728
:1025E000B8F1000F9AD029463846FFF7C5FB95E7AA
:1025F000B8F1000F8DD029463846FFF7BDFB0BF030
:102600006BFC047804F00F040BF018FC052C4AD086
:10261000032C7FF47EAF00283FF47BAF2E4B2F4975
:1026200018780BF027FC2846FFF7C6FB062333700B
:102630006BE7B8F1000F3FF464AF38462946FFF767
:102640009BFB0BF049FC04780BF0F8FB00283FF4EF
:1026500058AF04F00F04032C7FF453AF2846FFF764
:10266000ABFB347051E729463846FFF7CBFB4CE70C
:1026700038462946FFF780FB0BF02EFC04780BF060
:10268000DDFB00283FF43DAF14F00F0402D0062C10
:102690007FF437AF2846FFF78FFB0223337034E710
:1026A00090F832308EE700283FF433AF0F4B1878A4
:1026B00000287FF42EAF0BF017FA0BF00DFC01464B
:1026C0002846FFF75BFE072333701EE704233370B1
:1026D0001BE700BFF9460220F5460220700A0020E1
:1026E000F8460220F6460220FC040020F7460220AD
:1026F0000249034A00230B8013807047F0460220F2
:10270000F2460220064B074A1B8812889A421DBFD8
:1027100005484FF4967202FB03000020704700BF8B
:10272000F0460220F2460220780B0020034A044BB8
:1027300012884FF4967000FB02307047F246022078
:10274000780B0020064A074913880988994205D06A
:10275000072B1ABF01339BB200231380704700BFC1
:10276000F0460220F2460220044A1388072B1ABFC3
:1027700001339BB200231380704700BFF246022052
:1027800070B58378012B8CBF0588457882B00335FE
:102790000446ADB201A80BF05DFB01A9601903224C
:1027A0000BF0D8FFA81C691C235C1A0142EA131223
:1027B000C2F38506930003F0CC0306F03302134303
:1027C0005A105B0002F0550223F0550313432354C3
:1027D000635C1A0142EA1312C2F38500930003F00E
:1027E000CC0300F0330213435A105B0002F0550291
:1027F00023F0550313436354635D1A0142EA131235
:10280000C2F38501930003F0CC0301F033021343BC
:102810005A105B0002F0550223F055031343635531
:1028200002B070BD38B50B4C237803B138BD0A4AED
:102830000A4803F0FF050123237011681368C37071
:10284000090A013301710821136000F091F9257024
:1028500038BD00BFFA460220D81400200C0000202A
:1028600070B5124C237803B170BD114A114DD0F8E8
:1028700006000123237011681368EB70090A013305
:102880001360297100F080F90A210646020C030E3C
:102890002846EE802A726B7200F06AF918B116B100
:1028A000304600F07DF90023237070BDFA46022007
:1028B000D814002000000020704700BF143070477B
:1028C00010B5037A242B044606D901882046063128
:1028D000BDE8104000F04CB9143000F02DFC617DD3
:1028E0001431218020460631BDE8104000F040B987
:1028F000F0B51A4E337883B00BB103B0F0BD044687
:1029000003F0FF07012333701546637D144AE1711C
:10291000106803F1140121801368E3700221A17093
:10292000000A062161710133207113600BF038FA3F
:1029300020720BF03BFA2B0AE3726072A57201A8B9
:102940000BF050FA01A9042204F110000BF002FF71
:102950002046FFF715FF377003B0F0BDFA4602209E
:10296000D814002008B500F0B9F8034650B100684B
:1029700059688278012A8CBF02884278931D8B4265
:1029800018BF002008BD00BF4079704770B50446ED
:10299000164608460622A11D1D4606F047FB237B6E
:1029A0003370637B003B18BF01232B7070BD00BFE9
:1029B000034610220846991D06F038BB8379CB7078
:1029C000C3790B70037A4B70437A8B70704700BFEA
:1029D00010B40A0C0C0A0B0E4473017310BC827302
:1029E000C3737047F0B51A4E337883B00BB103B0A0
:1029F000F0BD04460D46617D164A03F0FF07012332
:102A000033701431106821800A211368A1710221EA
:102A1000A170000A06216171E37020710133136017
:102A20000BF00CFA2572E071A772E7720BF0BEF999
:102A3000607201A80BF0D6F901A9042204F110007C
:102A40000BF088FE2046FFF79BFE377003B0F0BD09
:102A5000FA460220D8140020704700BF10B5064C7B
:102A6000064920464FF480620BF07EFE2146044862
:102A7000BDE810400BF080BF6419002064150020F1
:102A80007419002010B5064C064920464FF4003258
:102A90000BF06AFE21460448BDE810400BF06CBF05
:102AA0008C1902208C1900208019002008B50748D5
:102AB0000AF056FFFFF7D2FFFFF7E4FFBDE808403A
:102AC000034A044904480BF059BD00BFFB460220ED
:102AD0008C190220641900201400002010B50D4C40
:102AE0000D4B2360214680230C4863600BF09CFF54
:102AF000002808BF00240BF015FE08B1204610BDC9
:102B000007480BF03FFE0028F8D10BF0FDFD2046F2
:102B100010BD00BF5C150020DC14002074190020DB
:102B20006419002070B505460E480AF01DFF0446E2
:102B300008B9204670BD28460BF028FF06460A4813
:102B40000BF042FE864207D9002406480AF01CFF1B
:102B50000BF0CAFD204670BD044829460BF032FF39
:102B6000F3E700BFFB4602208C19022080190020E9
:102B700000B583B003466846CDE90031FFF7D2FFC8
:102B800003B05DF804FB00BFB0F5E12F04D0034BA8
:102B900098420CBF18460020704700BF40420F000B
:102BA000B0F5E12F06D0054B984200D070471120B8
:102BB0000BF0BEBD0F200BF0BBBD00BF40420F00AD
:102BC000024B034A1B78D05C704700BFFC460220D2
:102BD0001C000020024A034B002118781170704736
:102BE000FC4602201C00002010B406480649037869
:102BF000CC785A1CB2FBF4F304FB1323037010BC13
:102C0000C85C7047FC4602201C000020014B006895
:102C1000186070471C0000200E4AF0B400230E4FCD
:102C200010601C460126C3F3C401014403F00702EF
:102C3000897C06FA02F21142DDB203F1010302D0EF
:102C4000621C3D55D4B2252BEDD187F82540F0BC50
:102C5000704700BF9C190220A0190220F0B40F4950
:102C60000F4C104F2060002213460A7014460126B4
:102C7000C3F3C401014403F00702897C06FA02F29F
:102C80001142DDB203F1010302D0621C3D55D4B202
:102C9000252BEDD187F82540F0BC7047FD4602207A
:102CA0009C190220A0190220424B1A68537FF0B4ED
:102CB000002B5AD0117C947BD57B537C45EA0425AC
:102CC00043EA01235D4080EA0501032600231846FC
:102CD0000F0A47FA00F4C0F1070C04F0010404FAEB
:102CE0000CF4013023430828DBB2F2D11B0200248C
:102CF0001BB2C9B2274641FA07FCC7F107000CF026
:102D0000010C0CFA00FC01374CEA0404082FE4B271
:102D1000F1D123439BB203EB03132B44013E99B241
:102D2000D4D1254885EA0103A0FB0310191A00EB52
:102D30005100400900EBC00100EB8100181AC0F3FC
:102D4000C4010A4400F00704917C0122A240114210
:102D5000C0B201D0F0BC7047184A92F8255003FB6E
:102D600005F31B14F0BCD05C704715495478087803
:102D7000144B204483FB004303445B1103EBC30467
:102D800003EB8403C01AC0B202EBD00200F00704C8
:102D9000927C08700123A3401A42DBD1074A92F8C3
:102DA0002510B0FBF1F301FB1300C0B2F0BC105CC6
:102DB000704700BF9C1902204D91CFBAA019022084
:102DC000FD460220A7C867DD10B40A7AC275CA7929
:102DD00002768A7942764A7982760A79C276CA7808
:102DE00002778A7C82734A7CC2730A7C0274CA7B33
:102DF00042744A7D42730A7D0273CA7CC2728A7D24
:102E000002700C7ECA7D42EA042242808C7E4A7E99
:102E100042EA042282800C7FCA7E42EA0422C280F7
:102E20008C7F4A7F42EA04220281CA7F827491F831
:102E30002020C27491F82120027591F82220427559
:102E400091F82320827591F8242010BC02F01F0213
:102E5000427091F8242040F2011152098272C1831C
:102E6000FFF7FCBE10B403461430B3F84640B3F885
:102E7000481093F84A20DC84198583F82A2010BC76
:102E8000FFF7CABE30B40D460A78027004462B899B
:102E9000A8884988ED88E5806180A080238130BCC6
:102EA00000F04AB88B7F03B18377CB7F03B1C37740
:102EB000704700BFB0F5506F94BF002001207047ED
:102EC000F0B49DF814501A4F1A4C05F00F05064641
:102ED00037F8150084F8210040F2E2450020B1F5F2
:102EE000506F2660A662C4E90600BDF81060A560B8
:102EF0001BD94FF47A7000FB01F1A1F54B11A1F53C
:102F0000006140F2E24000FB02F200FB03F042F2FB
:102F10001073002503FB06F3C4E9032061606362BC
:102F2000656184F82050F0BC704705FB01F1E8E7CB
:102F300010F70000C819022070B4154C6668656966
:102F4000B0F5506FC4E906561CD94FF47A7505FBED
:102F500000F0A0F54B10A0F5006040F2E24589B208
:102F600005FB01F105FB02F542F2107202FB03F3CF
:102F70000022C4E9031560606362626184F8202066
:102F800070BC704740F2E24505FB00F0E5E700BF8A
:102F9000C8190220114A70B4D2E90661D2E902359B
:102FA00092F820000E4C2B4406FB0111566955681F
:102FB000194492F821301268304405FB0010323376
:102FC00000FB03F303F57423203A03F23F2310447C
:102FD000A4FB0323A0EB934070BC7047C8190220E8
:102FE00083DE1B43124B70B4D3E90662D3E90205BA
:102FF00093F820100F4C284406FB02225E695D689E
:10300000024493F82100314405FB012132301A6853
:103010001B6901FB00F0134400F5742000F23F200F
:103020002033A4FB00200B4403EB904070BC70479E
:10303000C819022083DE1B43064B00220121C3E98D
:103040000322C3E90622186083F820105A619A60AF
:10305000704700BFC8190220024A53690133536107
:10306000704700BFC8190220014B1A689A62704766
:10307000C8190220114B93F82020C2B1D3E90201F4
:103080001A68024470B458689E6A5D690A44D3E9BC
:10309000064105FB0000921B04FB01115B6A024420
:1030A000501883428CBF0020012070BC70475869C3
:1030B000052894BF00200120704700BFC8190220D6
:1030C00010B5102204460021074805F0E3FF102246
:1030D000002104F1170005F0DDFF044821460AF045
:1030E0005BFCA4F8BC0010BD741A0220D5350000AA
:1030F00070B5002504460E460571857180F8BE50F6
:103100000331062200F5937005F090FF314604F577
:10311000B97011F8093BC3F3801384F82C310622EF
:1031200005F084FF337884F8BF50DB0984F87831E8
:1031300084F8C05070BD00BF2DE9F041037813F052
:1031400003052ED190F903204678C378002A04465F
:1031500029DA13F0400F00F1040106F1020200F138
:103160000A0003F03F070CBF4FF01B084FF0520856
:1031700005F042FF0623277284F80780657219461E
:1031800033442278043B1BB2C3F30725314442F099
:1031900002020420E37000232571617022706071C7
:1031A000A371BDE8F081C11CF21C073005F024FFBB
:1031B00004231946E4E700BFF8B52249044620225B
:1031C00021480BF0C7FA04F1E607204920482022E5
:1031D0000BF0C0FA1C492022384605F0EFFE04F53A
:1031E0009976054618492022304605F0E7FEA5B934
:1031F000F0B13146202214480BF0ACFA202204F53D
:10320000A97113480BF0A6FA0123B4F8BC0084F8A6
:10321000BF30BDE8F8400AF0C9BB00B1F8BD39467F
:10322000202209480BF096FA202204F58371E8E782
:103230000849202204F1C1000BF08CFA012384F824
:10324000BE30F8BD40000020F419022060000020CC
:10325000141A0220800000202DE9F04710605171FF
:1032600090F8008090F801A0154604460E46C9B1BA
:1032700002F1E2090AF0E2FD07460AF0E1FB3A46F4
:1032800003463146204600F047FBBAF1000F07D055
:1032900008F00303022B36D0032B63D0012B04D09C
:1032A000BDE8F08702F59779E4E700F02FFB0028EE
:1032B000F6D1B9F80030062BF2D16B79002B00F073
:1032C000098105F1E206B3780C2BE9D12968F3787E
:1032D0004C78E218402AC4BFC3F14004E4B204337E
:1032E000F0182246033105F0A1FEF3782344DBB247
:1032F000F3706A79002AD3D1402BD1D12846BDE89A
:10330000F047FFF759BF2C68A279637943EA02239B
:10331000062BA9F80030C3D16B79E279002B00F0BD
:10332000D68005F1E206531EB2700B2BB8D801A26D
:1033300052F823F0C9340000A1320000A13200008D
:10334000B3340000A1320000993400007134000051
:1033500059340000A1320000A1320000A132000067
:10336000233400002968CB78033B082B98D801A2AE
:1033700052F823F0D3330000A73300000D340000CF
:10338000A1320000A1320000A1320000A1320000F1
:10339000A1320000993300006B79002B80D1BDE889
:1033A000F047FEF79DBE0431082205F1930005F0B9
:1033B0003DFE2846042250F8AF1B0C3105F036FEC6
:1033C0000123B5F8BC0085F8C030BDE8F0470AF02D
:1033D000EDBA0431082205F1810005F027FE2846E8
:1033E000022250F8891B0C3105F020FE28460822E5
:1033F00050F88B1B0E3105F019FE2846042250F8B8
:10340000AB1BBDE8F047163105F010BE05F1B30166
:1034100005F127000022FEF733FEBDE8F047FEF776
:103420006DBE2B680122AA715F78053FFFB2402F65
:10343000B84628BF4FF0400804F108014246301D4D
:1034400005F0F4FD86F803806B79002B7FF428AF3C
:103450003F2F7FF625AF51E76B7904F10801002B70
:1034600042D005F141001022BDE8F04705F0DEBD75
:103470006B79002B7FF414AF04F11001022205F1E7
:10348000370005F0D3FD04F1080105F139000822E9
:10349000BDE8F04705F0CABD6B79002B7FF400AFA3
:1034A00004F1080105F117001022BDE8F04705F00E
:1034B000BDBD6B7904F108017BB105F161001022FB
:1034C000BDE8F04705F0B2BD01232B71E8E605F534
:1034D000977628E705F59776F5E605F17100102255
:1034E000BDE8F04705F0A2BD05F151001022BDE88E
:1034F000F04705F09BBD00BF10B583798AB0044644
:10350000CBB190F8BE300BB90AB010BD02AA00F5DD
:10351000B973CDE9003200F1610100F5937300F158
:103520007102C13000F08EF9E01D102206A905F0ED
:103530007DFD0AB010BDC31D00F1610200F17101F3
:10354000024800F069F90AB010BD00BF741A0220E9
:1035500038B5037904468BBB04F19B05082204F1BE
:103560008B01284605F062FD082204F1930104F165
:10357000A30005F05BFD042204F1AB0104F1B300EC
:1035800005F054FD04F1AF01042204F1B70005F089
:103590004DFD022104F189000BF0CCF828B108217F
:1035A00004F181000BF0C6F858B92A4604F117015E
:1035B00004F12700BDE8384000F042B8FFF79CFF57
:1035C000CAE72A46E11D04F12700BDE8384000F0B3
:1035D00037B800BF90F8BF3010B5044653B994F81F
:1035E000C03003B910BD2046FFF7B2FF002384F8B6
:1035F000C03010BD074A084908480BF07DFA07495A
:10360000202204F1C1000BF0A5F80123A4F8BE307C
:10361000E5E700BFF419022020000020341A022040
:103620000146102201480BF095B800BF741A022021
:1036300002481022002105F02DBD00BF741A02209F
:1036400010B4134604462246084610BC19460AF038
:10365000D5BC00BF70B584B00E4615461B496A46FE
:103660000AF0CCFC0DF10F04701E0DF1FF320023A7
:1036700012F8011F43EA4103A24200F8013F4FEA5A
:10368000D113F5D19DF90F30002BB7BF33783278C5
:1036900083F087023270681E344605F10F01002363
:1036A00000E0227843EA420300F8013F14F8013BAE
:1036B00088424FEAD313F4D196F90F30002B03DA86
:1036C0002B7883F087032B7004B070BD841A02201E
:1036D00038B50546C2F110001446284405F0A6FC92
:1036E000C4F10F028023002AAB5400DC38BD284609
:1036F0000021BDE8384005F0CDBC00BF2DE9F04FFA
:1037000097B00DF1180A1C4683460F460846164628
:1037100002A95246CDF804B0FFF79CFF04F10F0355
:1037200004F00F021D0900922FD1294610220EA885
:1037300005F0B0FC0DF1470512AC009A31460AA81D
:10374000FFF7C6FF0DF1270213460DF117000DF12B
:10375000370613F8011F10F801CFB34281EA0C01BC
:103760001970F6D1314612F8013F11F8010F964257
:1037700083EA000305F8013FF5D1019A2146384656
:103780000AF03CFC17B0BDE8F08F0EA81022002113
:1037900005F080FC012D5FFA85F839D0A8F102030D
:1037A000DBB2A4F12008A4F1100BA8EB031806F17A
:1037B000FF390DF1470512AC09EB0B000EAA2946A3
:1037C00012F8013B10F801CF944283EA0C0301F890
:1037D000013FF5D1ABF1100B0EAA214638460AF095
:1037E0000DFCC345E8D1009B002BA6D10DF12702AB
:1037F000013E02A9104611F8013B16F801CF8A4597
:1038000083EA0C0300F8013FF5D10DF13706A9E773
:103810000DF1470512ACE6E770B5164684B00822F4
:1038200005460DEB02001C4605F000FC31466846DB
:10383000082205F0FBFB6A4629462046FFF700FFF9
:1038400004B070BDF0B593B00C4615461E46024656
:103850001C49199F68462023FFF750FF4FF48073DF
:103860001899ADF8103007220DF1120005F0DEFBBB
:10387000314607220DF1190005F0D8FB2946102228
:1038800008A805F0D3FB214610220CA805F0CEFBBA
:103890000D49042210A805F0C9FB002469463846EA
:1038A00004AA35238DF84440FFF728FF012404AA19
:1038B000694607F1100035238DF84440FFF71EFFDD
:1038C00013B0F0BD24F7000020F70000F0B4084A60
:1038D000084B094F094E0A4D0A4C10600A4A1960FC
:1038E00000233B7033702B7023701370F0BC704753
:1038F000941A0220981A0220004702200147022051
:10390000FF46022002470220FE460220014B1878A3
:10391000704700BFFE460220F0B404784578C4F337
:10392000C000F1B1284E294C3178294F81EA000CB2
:1039300084F800C0B5FA85F4640981423C700ED168
:1039400081F00101317055B14AB143B9214B1A6878
:10395000D2E90031013341F10001C2E90031F0BC8C
:1039600070471D4E194F317881EA000C814287F86B
:1039700000C013D181F0010131707DB11749096890
:10398000D1E90005471C45F10006C1E900762AB1DE
:1039900023B9023045F10005C1E90005104B1A7842
:1039A000C4F38004A2420BD0094A127842B9094AF2
:1039B0001168D1E90020013240F10000C1E9002086
:1039C0001C70F0BC704700BF02470220FE46022078
:1039D00001470220941A0220FF460220981A022072
:1039E00000470220C3798B4207D0D0F8D0218379D9
:1039F0001078C0F38000584070470020704700BF27
:103A000000230122027003720374037383807047E2
:103A100030B4D0F8D031DA78182A17D8DFE802F0BD
:103A20005F370D16161616161616161616161616D5
:103A300016161616161616161800027932B9012235
:103A400002711B78C171C3F3C003837130BC70472E
:103A5000DC799D7942883C4945EA0425AA1A81FB14
:103A600002418C18D117C1EBE431C1EB0141521A6C
:103A700047F6FE718A42E9DC1A7980F852205B79B8
:103A800080F853300123C581037330BC70479C7AA2
:103A90005D7A42882C4945EA0425AA1A81FB024135
:103AA0008C18D117C1EBE431C1EB0141521A47F632
:103AB000FE718A4243DC1A7980F846205A7980F8F0
:103AC00047209A7980F84820DA7980F849201B7AD3
:103AD00080F84A3001234582037430BC70479C7BD8
:103AE0005D7B4288184945EA0425AA1A81FB0241F8
:103AF0008C18D117C1EBE431C1EB0141521A47F6E2
:103B0000FE718A421BDC1A7980F8342099795A793F
:103B100042EA0122C286197ADA7942EA0122028750
:103B2000997A5A7A42EA012242871A7BDB7A4581E6
:103B300043EA0223012230BC8387027270470023CC
:103B400030BC0370704700BF01800080027C438856
:103B500010B5044612B1428A9A421DD0227A12B19F
:103B600062899A420ED0227B12B1E2899A4200D039
:103B700010BD04F1340104F11400FFF793F90023A0
:103B8000237310BD04F1340104F11400FFF77AF936
:103B9000002323726388E6E7FFF764F900232374A8
:103BA0006388DBE70C4608B511461A4603462046F3
:103BB000984709F0DDFA05F0E1F800BF10B50446BA
:103BC0004FF0FF324FF0FF33204608F0A5FD00F123
:103BD00008020028F4D04168BFF35B8F52E8003F31
:103BE00023F0010C42E800CEBEF1000FF6D1BFF386
:103BF0005B8FDB0700D5884709F042FAE0E700BF9A
:103C000030B4446804EBC1056B68013B6B604BB991
:103C1000426901258D4022EA0502426144F83130B3
:103C200030BC704785680368B5F5004F03EBC202EE
:103C30002EBFD2E902529588D28844F83120846898
:103C4000B4F5004F03EBC50105D2CA8003EBC203F4
:103C50009D8030BC7047CA60816803EBC203B1F538
:103C6000004F28BF9D60F3D330BC70478368D0F805
:103C700004C0F0B40568C768B3F5004F2CBF55F811
:103C8000314035F83140B3F5004F04EA070234BF44
:103C900000230123B2FA82F2C3F11F039B1A0CEB3B
:103CA000C30405EBC1066268571C67607AB94269B4
:103CB00001249C40224342614CF833108368B3F5E1
:103CC000004F2CD289B2B180F180F0BC704782687D
:103CD0005CF83340B2F5004F05EBC40309D29A8873
:103CE000B280F48005EBC20589B2E9809980F0BC0E
:103CF00070479A68B2608768B7F5004FF1D3F460F7
:103D00008468B4F5004F05EBC205EDD3E960826825
:103D1000B2F5004F28BF9960E9D289B2E6E7B160F9
:103D20008368B3F5004F28BFF160E0D289B2CBE7DA
:103D30002DE9F843436853F8317090463A460446FB
:103D4000FFF75EFF81680668B1F5004F4FEAC705CF
:103D500006EBC70C46D3C16856F837300B40A3EBCF
:103D6000080EBEF1010F2FD9CCF80080816807EB57
:103D70000809B1F5004F3B4406EBC90C5ED346F889
:103D800039E0A168B1F5004F5CD3CCF80480A1689C
:103D9000B1F5004F5AD3E2680EEA02024A4491425A
:103DA00003D006EBC303C3F804E049462046FFF7FF
:103DB0005DFFA3682668B3F5004F06EB050C30D312
:103DC00056F83730E1680B4001311943CCF8001048
:103DD000A368B3F5004F2CBF0820042028443044CA
:103DE000BDE8F883C06836F837300340B3EB080EFF
:103DF0001BD007EB08091FFA88F2ACF800203B44FF
:103E000006EBC90CACF800E0ACF80220BCF80020CE
:103E1000104048448142C8D006EBC303A3F802E037
:103E2000C3E7E06836F8373003400130034304202D
:103E30002844ACF800303044BDE8F883E0681FFA4D
:103E400088F2DFE7E0681FFA88F2DDE7E068DDE787
:103E5000002900F0EB8000682DE9F8438768B7F58A
:103E6000004F2ED20368C6680C1FE41A48BF0734FF
:103E7000E51024F0070433F835C00CEA060C0CEB0F
:103E80000502974269D033F8321031EA060E30D07D
:103E90000269AA4200F0A180B7F5004F03EB040CC1
:103EA00061D3DCF80420AA1A4FEAC20853F8321092
:103EB00031EA060E40F0B7802C46DCF8003015469B
:103EC0005FE00368C668A1F10804E41A48BF07343C
:103ED000E51024F0070453F8352006EA020C0CEB39
:103EE0000502974200F0A38053F8321031EA060E23
:103EF000CED1B7F5004F34BF002701270E40C7F1E0
:103F00001F07B6FA86F1791A06EB0C07FFF778FE61
:103F100081680368B1F5004F03EB040211D31F5110
:103F20008168B1F5004FC0F08D80C66807EA0602CF
:103F30002A4491427BD003EBC2025760D0E902765B
:103F4000A6E7BAB21A53C66832402A44914277D0E3
:103F500003EBC20C0A46ACF802700169A94217468D
:103F60003BD003EB040CBCF80220AA1A4FEAC208AB
:103F700033F8321031EA060E50D1BCF800302C462E
:103F8000154606EA010CBCFA8CF1C1F11F011E4076
:103F9000B7F5004F28BF01392A460CEB0607FFF79B
:103FA0002FFE82680368B2F5004F06EB040903EBAD
:103FB00008041FD343F808708268B2F5004F43D35A
:103FC000C66807EA060129448A422DD003EBC909D5
:103FD000C9F80470D0E9027600E01C44B7F5004F40
:103FE000224613D313681E4016602946BDE8F843E5
:103FF000FFF73CBEB9B223F80810C6683140294427
:104000008A4203D003EBC909A9F80270228816403E
:1040100026802946BDE8F843FFF728BE1C442288C5
:1040200016402680F5E71C442246DBE7704701690D
:10403000A94203D0174603EB040C32E71A19D1E763
:104040000A468AE712887EE72188D6E700682DE9CC
:10405000F0438568B5F5004F2CBF08230423CA1D23
:104060001A44B5F5004F4FEAD202B2FA82F934BFD2
:10407000002301239944002942D0C3F11F03B5FA5C
:1040800085F4C9F11F011B1B994239DC446804EB1C
:10409000C10CDCF80430032B984628BF4FF003080E
:1040A00023B354F831300668D0F80CE000240CE05B
:1040B00056F8333003EA0E039A4228D90134FB68DC
:1040C000CCF80030A04511D08568B5F5004F06EB5F
:1040D000C307EDD236F8333003EA0E039A4216D9FD
:1040E0000134FB88CCF80030A045EDD14369C9F11B
:1040F00020094FF0FF3101FA09F919EA030902D149
:104100000020BDE8F08399FAA9F1B1FA81F1BDE888
:10411000F043FFF70DBE00BFF0B58E18073121F058
:10412000070226F00706B61AF60802F11801B6F5DE
:10413000004F0260B6FA86FEC2E90021966030D2D6
:10414000CEF1200C2CF0604C0CF1030C47F6FF7004
:104150000023BEF1200FC2E9030C53612ED00020D2
:10416000054647F6FF774D6041F8085B9468BC420E
:1041700094BF00230123C3F11F030130A3EB0E03FF
:104180009842F0DDB4F5004FA6EB0C0602EBCC0331
:1041900018D342F83C601046BDE8F0401169FFF7C3
:1041A00065BDCEF11F0C2CF0604C0CF1030C6FF0D0
:1041B00000400023C2E9030C5361D0E7A6EB0C06D4
:1041C00002EBCC031E801169BDE8F0401046FFF7FA
:1041D0004DBD00BF2DE9F84305460F4691464FF00F
:1041E000000800E00CB3A8682C68D5F810C06E6910
:1041F000844298BF6444013C231AACEB00044C4554
:1042000028BF4C469C4228BF1C4603199C4598BFBA
:10421000A3EB0C03394622463044AB6004F006FFA2
:10422000B9EB0409A0442744DCD1D5E9002329696E
:104230009A4298BF5218013AD21A904505D8434481
:10424000994298BF5B1AC5E901334046BDE8F8833F
:10425000F0B4C56847680669BD42044694BF70194A
:1042600005F1FF30944698BF00F1FF30721BC71B69
:10427000624506F1FF30A0EB070028BF624690427E
:1042800028BF10462B1867699E423D4498BF9B1B70
:104290000D60E360F0BC7047D0E9003230B40469CF
:1042A000934296BFE51803F1FF3505F1FF35AA1AD1
:1042B000651EAA1A8A4208D319448C4298BF091B6A
:1042C0000160C160002030BC70476FF01500FAE754
:1042D0002DE9F041804682B00E461546002700E0E9
:1042E00074B12A4601A94046FFF7B2FF019904467E
:1042F0000246304604F09AFE2D1B27442644EFD197
:10430000D8E90032D8F81010934296BFC81803F1CC
:10431000FF3000F1FF30821A481E821A974207D8F8
:104320003B44994298BF5B1AC8F80030C8F80C307B
:10433000384602B0BDE8F081704700BF0023C0E9F5
:104340000033704703682BB1436819600023416054
:104350000B6070470023016041600B60704700BF35
:10436000006870470346006808B102681A60704729
:10437000014808F00FBF00BF9C05002004F026B8DC
:10438000F0B51049104889B0002209F011FA002652
:1043900000270E4D0E4B0F4900240E22CDE90324B9
:1043A000CDE90667CDE90144009428464FF44072F8
:1043B00008F09CFF0849284608F06CFF204609B029
:1043C000F0BD00BF7143000060070020CC1A02203E
:1043D000094B00001047022034F70000002070470E
:1043E000024612F8013B13B319B30020F0B406469D
:1043F0000546012711E043F02004613C45B1192C2A
:1044000006D8732B04BF07FA06F3184301360025BC
:1044100012F8013B4BB18E4207D2252BEBD112F89B
:10442000013B85F00105002BF5D1F0BC7047184623
:1044300070470846704700BF08B500F0EDFB09481B
:10444000FFF77CFF042328220749084807F076FF7E
:10445000074B084A1A604FF40040BDE8084000F0DE
:1044600091BC00BFA81A0220505F0220B01A02209F
:10447000A00000207D430000F8B5114BBFF35B8F17
:10448000002553E8007F43E80052002AF9D1BFF32A
:104490005B8F0C4B0C4C1B1BAB424FEA23160DDD04
:1044A00063685B7901352BB12368DB6820463946A8
:1044B00003B19847B54204F11004F1DBF8BD00BF29
:1044C000A01A0220ECF60000ECF600002DE9F04FF7
:1044D000524B1B7885B004460BB9002840D04FF0F2
:1044E0004003EFF3118683F31188BFF36F8F4C48BD
:1044F000FFF738FF054686F31188BFF36F8F40B38F
:10450000BFF35B8F474B53E8002F013A43E800218C
:104510000029F8D1BFF35B8FC4B9434B1B784BB371
:10452000424B434E9B1B002B4FEA2318C8BF00276A
:104530000CDD73685B7901373046294613B1336867
:104540001B689847474506F11006F2DB284600F045
:1045500003FC44B13248FFF703FF003818BF0120C5
:1045600005B0BDE8F08F334B1B68002BF2D0FFF78E
:1045700083FFEFE72B7ADB07D2D400F001FC814602
:10458000284600F081FB01464846FFF729FF064612
:104590000028C5D0DFF8B4A0274F284BDFF8B08043
:1045A000DFF8B0B0A7EB0A07FF08BF01A3EB0A03CF
:1045B00047F00102DB0803920293B6FA86F1C1F1DB
:1045C0001F073946284600F063FB404502D31C4BC9
:1045D000984218D328B11B4B98421AD21A4B9842D2
:1045E00011D06B89029AC3F38913934238BF5AF8EA
:1045F0003320039BADF8003028BF00224B463946DC
:10460000584600F029F8012303FA07F18E43D4D16C
:1046100086E7A0339842F6D3E0E700BF03470220C5
:10462000A81A02209C1A022004470220ECF600007F
:10463000ECF60000A01A02208CF60000ECF6000058
:10464000A8080100505F02207CF700007CF6000003
:1046500084F400003CF700002DE9F04383B00746E6
:10466000BDF82890884616461D4600F0F9FA002845
:1046700037D0304B076101214FF44052C0E9066545
:104680001B68C0F81480A0F80A90416002810446BB
:104690009847294DE060BFF35B8F55E8003F013339
:1046A00045E80032002AF8D1BFF35B8F4FF040039A
:1046B000EFF3118683F31188BFF36F8F1F482146F4
:1046C000FFF740FE86F31188BFF36F8F1C4B1B78FA
:1046D00053B91C4B1B6823B12B68012B1FD00A2B2D
:1046E00014D003B0BDE8F0834FF04003EFF3118422
:1046F00083F31188BFF36F8F0020FFF7E7FE84F389
:104700001188BFF36F8F03B0BDE8F0830E4809F046
:10471000ADF80E4803B0BDE8F04308F03BBD002003
:1047200000214FF40042CDE900010023064809F0C2
:104730004DF8D6E7A00000209C1A0220A81A0220FB
:1047400004470220401B0220600700209C05002037
:10475000F0B583B006460F46154600F081FA0028F2
:1047600033D02D4B458101214FF480521B680661E7
:1047700047614160028104469847284DE060BFF3DD
:104780005B8F55E8003F013345E80032002AF8D13D
:10479000BFF35B8F4FF04003EFF3118683F3118873
:1047A000BFF36F8F1E482146FFF7CCFD86F31188BB
:1047B000BFF36F8F1B4B1B784BB91B4B1B6823B18F
:1047C0002B68012B1DD00A2B12D003B0F0BD4FF087
:1047D0004003EFF3118483F31188BFF36F8F002040
:1047E000FFF774FE84F31188BFF36F8F03B0F0BD41
:1047F0000E4809F03BF80E4803B0BDE8F04008F061
:10480000C9BC002000214FF40042CDE90001002383
:10481000064808F0DBFFD8E7A00000209C1A022021
:10482000A81A022004470220401B02206007002033
:104830009C0500202DE9F04182B0074688461646C7
:104840001D4600F00DFA002835D02F4B458101217F
:104850004FF400521B680761C0F814808661416004
:10486000028104469847294DE060BFF35B8F55E80D
:10487000003F013345E80032002AF8D1BFF35B8FD7
:104880004FF04003EFF3118683F31188BFF36F8F6E
:104890001F482146FFF756FD86F31188BFF36F8F3F
:1048A0001C4B1B7853B91C4B1B6823B12B68012B85
:1048B0001FD00A2B14D002B0BDE8F0814FF04003A6
:1048C000EFF3118483F31188BFF36F8F0020FFF79C
:1048D000FDFD84F31188BFF36F8F02B0BDE8F08156
:1048E0000E4808F0C3FF0E4802B0BDE8F04108F0E2
:1048F00051BC002000214FF40042CDE9000100230B
:10490000064808F063FFD6E7A00000209C1A0220AA
:10491000A81A022004470220401B02206007002042
:104920009C050020F0B583B006460D4600F098F9CE
:10493000002831D02C4B06610122002645811B68DE
:104940004260068104469847284DE060BFF35B8FC4
:1049500055E8003F013345E80032002AF8D1BFF3A3
:104960005B8F4FF04003EFF3118783F31188BFF3A0
:104970006F8F1F482146FFF7E5FC87F31188BFF3CF
:104980006F8F1C4B1B784BB91B4B1B6823B12B68DB
:10499000012B1DD00A2B12D003B0F0BD4FF0400305
:1049A000EFF3118483F31188BFF36F8F3046FFF765
:1049B0008DFD84F31188BFF36F8F03B0F0BD0F48F6
:1049C00008F054FF0E4803B0BDE8F04008F0E2BB29
:1049D000002000214FF40042CDE9000100230748E8
:1049E00008F0F4FED8E700BFA00000209C1A0220C7
:1049F000A81A022004470220401B02206007002062
:104A00009C050020064BBFF35B8F53E8002F01325B
:104A100043E800210029F8D1BFF35B8F704700BF46
:104A2000A01A022038B50B4B45680B4CC31A1B115A
:104A300001332B714368227819600120587112B13B
:104A40000123237038BD054808F0A4FB012323701F
:104A500038BD00BFECF60000034702209C05002093
:104A600070B5124BBFF35B8F53E8005F6A1C43E8DD
:104A700000210029F8D1BFF35B8FB5B90C4B0D4C69
:104A80001B1B002B4FEA23160FDD237B013543B19F
:104A900023685B6903B19847042200212046FFF791
:104AA000C1FFB54204F11004EFDB70BDA41A02206F
:104AB000ECF60000ECF60000F8B5104E357805B1C4
:104AC000F8BDFFF7CDFF0E4C0E4B1B1B002B4FEA22
:104AD00023170BDD63685B790135204613B123682A
:104AE0001B699847BD4204F11004F3DB0020FFF777
:104AF000EDFC0028FAD101233370F8BD04470220F1
:104B0000ECF60000ECF6000010B5FFF7A9FF08F086
:104B10002FFB0C4A106018B10B4B1B68092B0DDCE6
:104B20000A4C0020FFF7D2FC0028FAD14FF0FF32E8
:104B30004FF0FF33204608F053FBF2E7034808F03C
:104B400029FBEDE7401B02209C1A02209C05002057
:104B500030B5174B984283B0044602D3154B9842A8
:104B600008D315480022002301A907F007FC0546D9
:104B700010B1124803B030BD0122019BBFF35B8F1F
:104B800053E8001F43E800200028F9D1BFF35B8FF2
:104B9000019821461F22043004F0E0F901987E2399
:104BA00080F8245080F82330043003B030BD00BFBB
:104BB00084F40000A8080100B01A02207CF700006D
:104BC00048B1054B984205D3A03398422CBF002032
:104BD0000120704700207047505F022000B583B06D
:104BE00004380190BFF35B8F50E8003F5A1E40E845
:104BF00000210029F8D1BFF35B8F012B02D003B055
:104C00005DF804FB034801A907F0ECFB03B05DF875
:104C100004FB00BFB01A02202023024902481A46B2
:104C200007F08CBBF05F0220441B022030B583B03C
:104C300000230A4D019300E06CB10120FFF746FC10
:104C40000446FFF7DFFE01A928460022002307F0F3
:104C500095FB0028F0D1019803B030BD441B022021
:104C600010B582B00024074801940022002301A956
:104C700007F084FB10B9019802B010BDFFF7D6FF12
:104C800002B010BD441B0220407A0009704700BFEB
:104C9000437AB1EB131F4FEA131212D2032A0CD935
:104CA000012910D943698A1E062A84BF1B68A1F115
:104CB000090203EB82035868704700EB81014869E1
:104CC00070470020704700EB81018869704700BF82
:104CD000F0B5027A467A85B003460190D00720D419
:104CE0003609F6B100273C4607E027FA04F3D90756
:104CF0002CD40134B442019B13D018462146FFF74F
:104D0000C7FF0546FFF75CFF0028F2D0002FECD16B
:104D1000019B31461869FFF763FB07460028E4D181
:104D2000019B1A7A92070BD55C69039444B1094D33
:104D3000246803A9284607F055FB0394002CF7D1FB
:104D4000044801A907F04EFB05B0F0BD2846FFF767
:104D500045FFCEE7441B02200346021DBFF35B8FD5
:104D600052E8001F013942E8001CBCF1000FF7D1E6
:104D7000BFF35B8F5B6803B17047FFF7A9BF00BF4C
:104D800000697047074A0849012390420B6005D922
:104D9000400890424FEA4303FAD80B60034B186077
:104DA000704700BF40420F00641B0220601B0220BE
:104DB000F0B5124B124C134FE41AA41007FB04F782
:104DC0009FB19646104A526A00245D68954204F1EC
:104DD000010406D31E6926B195F802C00579AC45D9
:104DE00006D0BC4203F12403EFD16FF02200F0BDE6
:104DF00072463346BDE8F040184700BF0407002064
:104E000028070020398EE338681B02202DE9F04185
:104E1000134B144C144FE41AA41007FB04F7BFB152
:104E2000124CD4F824C000245D68654504F10104E7
:104E30000AD39E6946B195F80280B0F804E0F045C7
:104E40000AD06D79012D07D0BC4203F12403EBD1C8
:104E50006FF02200BDE8F0813346BDE8F04118470D
:104E60000407002028070020398EE338681B022041
:104E70002DE9F8430D4B0E4C0E4E1B1B9B1006FBF1
:104E800003F676B1074688469146002563690135E9
:104E90004A464146384624340BB1984718B1B542CA
:104EA000F4D16FF02200BDE8F88300BF280700208E
:104EB00004070020398EE33810B5034682B0197913
:104EC0005C79DA789B788DF8003041EA042102F0B1
:104ED00003036846ADF802108DF8043002F04AFE74
:104EE00010F1450F00D0E0B99DF8000002F0E2FE9D
:104EF00010F1450F00D028B90D4B012083F8B900FF
:104F000002B010BD0B4A0C4B9DF800100B48D21A92
:104F1000D208920142F00102FFF71AFC002002B011
:104F200010BD044A044B9DF800100548EFE700BF90
:104F3000681B0220D4F600007CF60000C0F70000D9
:104F40009CF7000070B5104D95F8B8400CB10020EA
:104F500070BD00F0D3FC50B10C490D4A0D4E0E4B04
:104F60006862C5E90B12AE622046AB6170BD0B4BA7
:104F70000B490C48C91AC908890141F00101FFF722
:104F8000D1FC4FF0FF3070BD681B0220B14D000016
:104F9000714E0000655000000D4E00007CF60000D0
:104FA000D4F60000E4F700002DE9F04F294B2A4C1D
:104FB0002A4FDFF8AC901B1B021F9B10012A81B007
:104FC0000646884607FB03F715D95FB1224C00253A
:104FD000E3682046013524344246314603B1984700
:104FE000AF42F5D1D9F820304BB34146304601B03D
:104FF000BDE8F04F184799F8B930002BE5D000F024
:10500000F1FE042EE1D1B7B14FF0000A237F256AEB
:10501000C3B14FF0000B5B4602E0227F9A4211D9E8
:1050200005EBC3030BF1010B187902F067FE0028B2
:105030005FFA8BF3F1DA002389F8B930C5E701B0E4
:10504000BDE8F08F0AF1010A574504F12404DDD1CF
:10505000F1E700BF2807002004070020398EE3385D
:10506000681B02202DE9F04FAA4EB36985B00746B0
:105070000C4690460BB1984748B13A7802F01F02AF
:10508000012A07D0022A15D062B36FF0150005B0CF
:10509000BDE8F08F7878D8F800100A2800F0AB80CF
:1050A0000B2800F0BB800028EFD102220870487066
:1050B0002260ECE77D783879D8F800808DF80F0011
:1050C000012D00F08880032D00F09980002DDCD1A7
:1050D0004146009202F0D4FD009A88F8015028461B
:1050E0002260D4E77B787888D8F80020092BCCD8C8
:1050F00001A151F823F000BFCB5100008B500000FC
:105100008B5000008B5000008B500000C1510000FC
:10511000875100008B5000007951000021510000A0
:10512000C5B28DF80F50002D00F0D680746A237838
:10513000002B00F0E5804FF0FF094F464FF00008CC
:1051400008E0022B00F0AD8023781C442378002B6C
:1051500000F0B8806378042B00F0A080052BF0D11C
:105160009DF80F30BB42EFD1B9F1000FECD12046D2
:10517000FFF7A2FE8046E7E796F8BA3013700123E6
:105180002360002083E7050A2B1F012B7FF67DAFEC
:10519000072D3FF67AAF736A1A78002A3FF475AF8D
:1051A000C0B2002604E013441A78002A3FF46DAF21
:1051B0005978A942F7D1B04200F092800136F2E767
:1051C000C0B202F09BFC002061E7002002231070B7
:1051D000507023605BE77C88002C7FF456AF02F0B0
:1051E00035FDF369002B00F0818009200DF10F01DE
:1051F000984720464BE700200870226047E77C88EC
:10520000002C7FF442AF02F0E9FCF369002B6DD073
:1052100008200DF10F019847204638E7756A97F886
:1052200004802A7897F802B0002A65D03A4A3B49B0
:105230000094521AD20892014FF0FF0942F0010384
:1052400001934F464FF0000A07E0052B01D1B84506
:105250000FD02B781D442B785BB36B78042BF4D1E3
:10526000AF7895F80390B845F3D1CB4508BFAA466F
:10527000EFE7CB453CD0AC78204600F075FD2046EA
:1052800002F03CFD10F1450FE3D00028E1D0BDF85D
:10529000042023482146FFF75BFADAE794F80390ED
:1052A00052E767799DF80F30BB4208BF4FF0010805
:1052B0004AE7009CF36913B1514607209847002044
:1052C0002060E4E6F3691BB10DF10F01032098475C
:1052D000B8F1000F3FF4D9AE86F8BA500020D6E6F8
:1052E000022DC8F8003009D01B7823600020CEE6DC
:1052F0002846FFF7E1FDACE79246DBE75B88F4E781
:10530000F369002B3FF4C1AE0DF10F010320984764
:10531000BBE600BF681B0220D4F600007CF600004C
:105320000CF800002DE9F8438146884617461E46D2
:10533000042533463A464146484602F0FDFC10F14A
:105340000B0F044602D02046BDE8F88307F098FE14
:10535000013DEED12046BDE8F88300BF10B50E4CEC
:10536000237D82B07BB9D4E9021201AB8020019287
:10537000FFF7D8FFD4E9022301990A445B1AC4E974
:10538000022302B010BD00231A461946802023755F
:1053900002F0D2FC02B010BD681B0220F0B583B051
:1053A00000220446019218B180282ED003B0F0BD2F
:1053B0000D46002931D0464DEA68002A57DDA9681C
:1053C00001AB02F091FE002869DBD5E902230199C7
:1053D0000A445B1AC5E90223002BE7D12B78C3F3FB
:1053E00041130A3305F1380255F82330AA60002B27
:1053F00044D005F1080205F110012846984700281D
:105400003CDBFFF7ABFF03B0F0BD314BDA68002A9D
:10541000F7D11B7D002BF4D1C8E72D4C0B46082299
:10542000214602F061FE002828DBE688802E2AD97A
:105430002378DF093AD0C4E9036604F13802257500
:10544000A260C3F341130A3354F82330B3B1214AA5
:1054500002F10801A2F10800984700280EDB236939
:105460009E42A8BF1E46E660FFF778FF9EE7A96848
:10547000024601AB02F038FE002897DA802002F0E5
:10548000ADFB03B0F0BD04F13803A360C4E90366CB
:1054900023782575002ED4D0DA0987D0D1E7802073
:1054A00002F09CFB204602F099FB7FE70A4B0B4978
:1054B0000B48C91AC908890141F00101FFF732FA06
:1054C000802002F08BFB384602F088FB6EE700BFBD
:1054D000681B0220701B02207CF60000D4F600003E
:1054E00030F800002DE9F043044683B03C4D3D48C0
:1054F0004FF0FF324FF0FF3306F0DEFF95F8B86053
:105500003EB10024374807F057F8204603B0BDE805
:10551000F0833548C5E9070402F00AFE02F08CFA70
:10552000041EEFDB00F096FC041EEBDB4023684614
:105530008DF804608DF80060ADF8023002F01AFBBF
:10554000041EDFDB684680278DF8007002F012FB36
:10555000041ED7DB2549304602F0D6FD041ED1DB00
:105560002249384602F0D0FD041ECBDB204B214AF5
:1055700021499B1A9B1001FB03F9B9F1000F1FD0C1
:10558000904698F81C30D8F82070A3B10024234628
:1055900003E098F81C209A420DD907EBC30257F894
:1055A0003310107902F0B0FD0134E3B20028F0D0DE
:1055B0004FF0FF34A6E70136B14508F12408E0D1E9
:1055C000002002F077FB041E9CDB802002F072FBBF
:1055D000041E97DB012385F8B830002492E700BF52
:1055E000681B0220C0050020A94F00009D53000049
:1055F0002807002004070020398EE33830B5184D05
:105600000FCD89B003AC0FC42B68237001A808220A
:10561000002103F03FFD12220021124803F03AFD61
:10562000082101A802F09CFD002815DD0D4B0DF1AD
:10563000030003F1100410F8012F08AD02F00F0170
:10564000294405EB121211F8141C12F8142C59708D
:105650001A700233A342EED1024809B030BD00BF38
:1056600058F80000241C02202DE9F04F037887B081
:105670000446002B3DD0954B954D96499648974A48
:105680005B1B9B1002FB03F3091A4FF00009039305
:10569000CB08CDE90193CDF800904FF0011AC84630
:1056A0006378052B00F28180DFE803F0037F8C0331
:1056B000812C009B032B00F09980009B002B40F075
:1056C0009D80B9F1000F00F0EC80A4EB0903019973
:1056D00089F80410C3F3072289F8023089F80320FF
:1056E0002278009F0137FBB2009314442378002BEB
:1056F000D6D17B4BA01C984240F0BB80002007B065
:10570000BDE8F08FB8F1000F00F0BF8098F81C00E2
:1057100000285FD000264FF0010B02E001368642E0
:1057200058DAD8F82070A27807EBC6073B79934285
:10573000F4D101250CE010EA0A0F05D104A88DF878
:10574000103002F0EBF920B30135102D3DD0A278D6
:105750006079237994F803C043EA002305F110012E
:105760000CF0030C1206ADF812300BFA05F00BFA30
:1057700001F18DF814C0EBB2DDD511EA0A0F63F028
:105780007F03E1D104A88DF8103002F0C7F900289A
:10579000DAD19DF81020A270130648BF10350123FE
:1057A00003FA05F53A714AEA050A22789DE7E3789B
:1057B000002BFAD1A37893B3019B22780133DBB29B
:1057C000019392E72278A1468FE798F81C000136F2
:1057D0008642A6DB029B4348990141F00101FFF795
:1057E000A1F84FF0FF3007B0BDE8F08FFFF706FFDC
:1057F000064618B103F0C8FB834660BBA51C22789F
:105800005308991ED31E3FF56CAF6A186E1E002018
:10581000E85412F80119F154023BF9D560E70399F5
:10582000002948D02A4A984603E008F10108884533
:1058300041D05368A34202F12402F6D1244B08EB75
:10584000C80803EB8808D8F80830002BB4D00199B9
:1058500020469847B0E7244803F096FB83450DD0D7
:10586000029B2248990141F00101FFF75BF8A51C5A
:10587000C5E7FFF7F9FE07B0BDE8F08FA51C5A4653
:105880003146284603F0D2FBB9E7029B184899013C
:1058900041F00101FFF746F84FF0FF3007B0BDE8D7
:1058A000F08F029B1348990141F00101FFF73AF88C
:1058B0004FF0FF3097E7029B0F489A0142F0010238
:1058C0002146FEF745FF4FF0FF308CE72807002008
:1058D00004070020CCF600007CF60000398EE33887
:1058E000010700206CF8000058F80000D0F8000014
:1058F0008CF800001CF900003CF9000008B50948CC
:10590000FFF7B2FE08B9074808BD074B074908482A
:10591000C91AC908890141F00101FFF703F8002005
:1059200008BD00BF340600207CF60000CCF6000065
:105930005CF90000006810B909E0586838B1031F2D
:1059400006D01A6852688A4202D0181DF5D17047F5
:1059500018467047006810B90BE0586848B1031F3B
:1059600008D01A685268526892788A4202D0181D8C
:10597000F3D1704718467047006818B3043821D037
:1059800030B4082503685B681C7F1B6A7CB1013C4E
:10599000E4B203F1080215FB042401E09C4206D0A6
:1059A0001A798A4203F10803F8D130BC7047031D0D
:1059B00005D040680028F8D00438E3D1F5E7184650
:1059C00030BC7047704700BF2DE9F04150F8283CCB
:1059D00010F82C5C103382B004460DD1C3689A07CE
:1059E00026D550F8202C002A4AD113F0040300F0E9
:1059F0008780002344F8283C54F8186CAEB154F862
:105A00001C7C54F8148C07F03DFC002853D144F85A
:105A1000180CA4F1100007F0BDFB54F8283C4833E3
:105A200003D0424639462846B04702B0BDE8F0816F
:105A300050E9091201AB284602F018FA0146002885
:105A40004ED154E90912019E54F81C3C3144921B7A
:105A5000334444E9091244F81C3C002EC9D02846BE
:105A600002F06CFBB6FBF0F303FB10600028C0D122
:105A700054F8203C002BBCD0284602F05FFA13E01B
:105A800050F8241C01AB2846FFF74CFC014638BBFC
:105A900054E90912019854F81C3C0144121A44E9D3
:105AA0000912034444F81C3C54F8283C1033A3D199
:105AB00002B0BDE8F08104F10803BFF35B8F53E847
:105AC000002F42F0010143E800100028F7D1BFF396
:105AD0005B8FD307A9D40D48214606F017FEA4E733
:105AE0000B4A0C4B0C489B1ADB089B0143F001034B
:105AF0002A46FEF79FFE6FF0150344F8283C7BE72B
:105B00001A4619462846FFF70DFC72E7B8430220F3
:105B10007CF60000E4F600008CF9000010B40D4C97
:105B2000002322461178814202F13C0205D0013364
:105B3000042BF7D1002010BC7047C3EB031304EB18
:105B4000830310BC586810F1100F14BF002001200F
:105B5000704700BF381C022070B5284E82B0044642
:105B60000D46324600231078A04202F13C021BD0C1
:105B70000133042BF7D1012D01D002B070BD01AB70
:105B800001220DF10301204602F070F9019B002B68
:105B9000F5D11B4B1B491C48C91AC908890141F0A2
:105BA0000101FEF7BFFEE8E76A1EC3EB0313012AFB
:105BB0004FEA8304E1D807F065FBC0B1012D16D090
:105BC000BFF35B8F3319343353E8002F42F00101E8
:105BD00043E800100028F7D1BFF35B8FD307CCD484
:105BE00004F12C010948314406F090FDC5E704F1A9
:105BF0002C003044FFF7E8FE02B070BD381C0220D4
:105C00007CF60000E4F60000ACF90000B843022086
:105C10002DE9F04F83B00646019191461F464FF0A3
:105C20004003EFF3118283F31188BFF36F8FDFF826
:105C3000348100924FF0000B08F11C0A5C460AEB1D
:105C40000B0500220023284607F0CAFA88B1013468
:105C5000042C0BF13C0BF2D13D4B3E493E48C91A96
:105C6000C908890141F00101FEF75CFE6FF00B03EA
:105C700044E0C4EB041408EB840AA200DAF8044000
:105C800014F1100F034653D008F80260CAF8103020
:105C9000019A01930C9BCAF814306FF00F040D9B0E
:105CA000CAF81830CAE902293046CAF83870CAF86A
:105CB000044002F043FA019B48BBBA071AD5BFF370
:105CC0005B8F08EB0B02343252E8000F40F0010109
:105CD00042E80014002CF7D1BFF35B8F10F00102F3
:105CE0000CD10BF12C011D480192414406F00EFD30
:105CF000019B03E0304602F021F90346009A82F34B
:105D00001188BFF36F8F184603B0BDE8F08F30469F
:105D100002F014FAB9FBF0F202FB1090019B00288C
:105D2000CBD0DAF8382042F00402CAF83820C4E7B1
:105D3000074B084A0A48D21AD2089201314642F06B
:105D40000102FEF705FD284607F024FA2346D5E7B1
:105D50007CF60000E4F60000F4F90000B8430220ED
:105D6000C8F90000381C022038B54FF04003EFF3AB
:105D7000118583F31188BFF36F8F184900230A46FA
:105D80001478844202F13C0207D00133042BF7D18E
:105D900085F31188BFF36F8F38BDC3EB031301EB9D
:105DA00083029B0050681030F2D16FF047005060C2
:105DB0003432BFF35B8F52E8000F40F0010442E839
:105DC000004CBCF1000FF6D1BFF35B8FC207DFD4EC
:105DD0002C330348194406F099FCD9E7381C0220FB
:105DE000B84302202DE9F041184CDFF8648004F13B
:105DF000F0066FF047074FF04003EFF3118583F390
:105E00001188BFF36F8F6368103308D085F3118852
:105E1000BFF36F8F3C34B442EDD1BDE8F0816760D1
:105E200004F13403BFF35B8F53E8002F42F001010C
:105E300043E800100028F7D1BFF35B8FD307E5D408
:105E400004F12C01404606F061FCDFE7381C02201B
:105E5000B8430220F8B5094C094F04F1F0060025BB
:105E6000C4E90457A5610122204611463C3407F0DD
:105E700085F9B442F4D10020F8BD00BF541C0220C3
:105E8000C95900004B1CDBB28170817680F8253047
:105E9000C376704750E90230184700BFC36800223C
:105EA00083F82620704700BFC36893F8240070472A
:105EB000C368002283F82720704700BFC36893F8A7
:105EC00025007047C36893F8242012B193F8262068
:105ED0002AB993F8250018B193F8270070470120DC
:105EE000704700BF01207047C368C3E901127047C3
:105EF0000229C36806D004290FD0012909D06FF008
:105F00002200704793F87730C3F3400313600020FA
:105F100070471B6F13600020704793F8773003F0D1
:105F200001031360002070476FF02200704700BF2C
:105F300010B504460C4807F02DF90C4B93E803000C
:105F400000230A0C84F8783084F877302067A4F8AE
:105F5000741084F87620636204F128001946BDE8C5
:105F60001040402203F096B830250220F0F60000E1
:105F700010B5C468A06EFEF7ABF9A36ED3E9002399
:105F80009A4204BF002384F8253010BD436E70B5DB
:105F90005B681B6A1E7D84B004463046FFF7BEFD79
:105FA00008B104B070BD606D4FF4806203A9FEF7C4
:105FB0004FF905460028F4D0830608BF00F1FF35ED
:105FC000A4F11802074B0399019200932A46022379
:105FD0003046FFF71DFE606D2946FEF75DF904B0FF
:105FE00070BD00BF096500000F4B10B55968C4684B
:105FF0000022C4F88020E06704F1800289B10A60C1
:106000005A604FF0FF320021084807F0B7F800202F
:10601000074A084B2261C4E90500E361E0602062A1
:1060200010BDC3E90022ECE728250220302502201C
:10603000955E00008D5F000070B504460E46017944
:1060400017481546FFF786FCD8B16378212B06D098
:10605000222B11D0202B08D06FF0150070BD0C380A
:10606000072328600020336070BD296807220C38A0
:1060700002F0DCFF002070BD638800F8053C0020C2
:1060800070BD084B084AA1880848D21AD20892016C
:1060900042F00202FEF75CFB6FF0120070BD00BF21
:1060A000282502207CF60000C4F6000020FA00003B
:1060B00010B5014604460A48FFF75EFC18B10123FB
:1060C00000F8033C10BD074A074B0848D21AD20813
:1060D0009201214642F00202BDE81040FEF738BBB3
:1060E00028250220C4F600007CF6000048FA0000D3
:1060F00030B5002385B081F87930ADF80C200D461D
:106100004FF40032016A029208790C4C42F2A1016C
:1061100001910A2201A9FFF705F904E0012007F027
:10612000B7F8013C06D095F87930002BF6D0002066
:1061300005B030BD6FF0040005B030BDA186010090
:10614000402910B5C36814465BD019D801391F29FE
:1061500013D81F2911D8DFE801F03A1010101010E1
:10616000103D1010101010101048101010101010CA
:10617000101010101010101010316FF0120010BD20
:10618000B1F5807F46D0B1F5007F0CD193F878202F
:1061900002F0BF0294BB83F87820C1684068FFF723
:1061A000A7FF002010BD8029E7D193F8782002F0E6
:1061B000EF02002CEFD042F01002ECE793F87820C9
:1061C00002F0FB02002CE6D042F00402E3E71C6779
:1061D000002010BD93F8782002F0FE020CB142F0CE
:1061E000010283F878200122D7E793F8782002F0A3
:1061F000FD02002CCFD042F00202CCE742F0400278
:10620000C9E793F8782002F0F702002CC3D042F0DF
:106210000802C0E793F8782002F0DF02002CBAD021
:1062200042F02002B7E700BFF0B50D1E83B006466E
:10623000144602F1280706DDA06E39462A46FDF70E
:10624000C9FF854228D86368012284F8252013B14C
:1062500094F8273053B9164B0093019439463046D1
:1062600001234022FFF7D4FC03B0F0BD04F1140376
:10627000BFF35B8F53E8002F42F0010143E80010A9
:106280000028F7D1BFF35B8FD307E4D4094804F1AA
:106290000C0106F03BFADEE7074B084AD21AD20897
:1062A0009201291A42F001020548FEF751FACAE7A5
:1062B00029620000B84302207CF60000C4F600000A
:1062C00070FA000070B506460D4634483146FFF7B7
:1062D00031FB002855D006460A2D56F87C39044675
:1062E0005A681AD0072D18D06B1E00F87C5C052B5D
:1062F00013D8DFE803F00D122D03131F2849294B93
:106300002948C91AC908890141F00301FEF70AFBAF
:106310003046BDE87040FFF70BBE70BD2049214BF1
:106320002248C91AC9088901BDE8704041F003013B
:10633000FEF7F8BA1B4B1A491D48C91AC9080323AE
:10634000890104F87C3CBDE870401943FEF7EABAC5
:10635000136A0021187B3246FFF766FF114B104984
:106360001448C91AC9080123890104F8583C04F8E3
:10637000563C04F8553C41F00301BDE87040FEF77F
:10638000D1BA074A074B0C48D21AD20892013146BB
:1063900042F00202BDE87040FEF7DAB9282502207B
:1063A000C4F600007CF60000CCFA0000E4FA00001D
:1063B000FCFA0000B4FA000090FA000070B5C6685C
:1063C0003378032B15460CD01D4A1E4B1E489B1AD2
:1063D000DB089B01294643F00202FEF7B9F90020D1
:1063E00070BD0023F06E86F82430FDF7F3FE854281
:1063F000044618D8BFF35B8F06F1200353E8002F43
:1064000042F0010143E800100028F7D1BFF35B8F91
:10641000D30701D5204670BD0C4806F1180106F0DF
:1064200075F92046F7E7064B064A0948D21AD20802
:106430009201291B42F00202FEF78AF9DAE700BF57
:106440007CF60000C4F6000010FB0000B8430220F8
:1064500070FA000000B583B00B4601220DF1070170
:106460008DF80730FFF7AAFF40F6CD42002303481E
:1064700006F0B6FE03B05DF804FB00BF3025022035
:10648000C1684B68012281F8262013B191F82430AD
:1064900003B9704701F11403BFF35B8F53E8002F7A
:1064A00042F0010043E8000CBCF1000FF6D1BFF34D
:1064B0005B8FD307EDD402480C3106F027B900BF3B
:1064C000B8430220C1684B68012281F8272013B12C
:1064D00091F8253003B9704701F11403BFF35B8FC6
:1064E00053E8002F42F0010043E8000CBCF1000F1C
:1064F000F6D1BFF35B8FD307EDD402480C3106F021
:1065000005B900BFB8430220012310B5144682F834
:1065100024301D4806F03EFE636813B194F826301F
:10652000E3B9E36ED3E900239A420FD0BFF35B8F48
:1065300004F1200353E8002F42F0010143E800106A
:106540000028F7D1BFF35B8FD30700D510BD04F14E
:1065500018010E48BDE8104006F0D8B804F1140345
:10656000BFF35B8F53E8002F42F0010143E80010B6
:106570000028F7D1BFF35B8FD207D2D4034804F1D0
:106580000C0106F0C3F8CCE730250220B843022006
:10659000C368C9B201EB410103EB81014B7A23B916
:1065A000087AB0FA80F0400970470220704700BFB7
:1065B00070B4C9B24568C0684FF04003EFF311866C
:1065C00083F31188BFF36F8F01EB410300EB83046A
:1065D0009A00237AB3B1013BDBB2237233B10020BE
:1065E00086F31188BFF36F8F70BC704705EBC10154
:1065F0000125C978835001F1804263601846156017
:106600006372EDE76FF04400EAE700BF2DE9F8435D
:10661000D0F80CC04768CDB2002A57D005EB45032F
:106620006C005CF823309A4252D013B11B68002BE7
:10663000F9D14FF04003EFF3118E83F31188BFF3CC
:106640006F8F63190CEB83069B00347A0134E4B23C
:1066500034728EF31188BFF36F8F12B396F80990DE
:106660004FF0804E40F28338CEF80883B9F1000F26
:106670001CD14FF04001EFF3118081F31188BFF37B
:106680006F8FC2F80090716831B30A60726080F356
:106690001188BFF36F8F4FF0804340F28332C3F80D
:1066A0000423012C09D00020BDE8F883D2E901328F
:1066B000CEF804839847012CF5D107EBC5050020DF
:1066C000AB7803F180431C60BDE8F8836C00B0E751
:1066D0006FF00F00BDE8F88372604CF80320D6E736
:1066E00010B4C2684468C9B24FF04003EFF31180A0
:1066F00083F31188BFF36F8F01EB410302EB830239
:10670000137A0133DBB2137280F31188BFF36F8FFA
:10671000012B05D104EBC1018A7802F1804213609C
:10672000002010BC704700BF002238B5012104468C
:10673000104601F089FF002001F054FFE3684FF09C
:1067400080420020012540F28331C2F81855C2F87A
:106750000413C3E90000E368C3E9030038BD00BFC8
:106760002DE9F0411A4DE96800EB400301EB830489
:10677000012207469B0062724FF04000EFF3118246
:1067800080F31188BFF36F8FCB58D3B1A8466668EA
:106790001D6825609E4208BF656082F31188BFF3C3
:1067A0006F8FD3E9015239464046A8474FF0400366
:1067B000EFF3118283F31188BFF36F8F2368002BEF
:1067C000E5D182F31188BFF36F8FBDE8F08100BF80
:1067D0000405002000B5354B1A6887B07AB14FF038
:1067E0008042D2F80423D10709D5314A0021D2686A
:1067F00019601B68507A0193019B002853D02D4BE0
:106800001A682AB14FF08042D2F80423920727D4A5
:10681000294B1A682AB14FF08042D2F8042310069F
:1068200027D4264B1A682AB14FF08042D2F80423AD
:10683000910528D4224B1A68002A31D04FF08042AB
:10684000D2F80423D2052BD500221A601B680393CB
:10685000039B4FF4907007B05DF804EB01F040B873
:1068600000221A601B6802930120029BFFF778FF49
:10687000CEE700221A601B6805934FF48E70059BCB
:1068800001F02EF8CDE700221A601B6804934FF444
:106890009270049B01F024F8094B1A68002ACDD1AC
:1068A00007B05DF804FBFFF75BFFA8E700010040BD
:1068B00004050020040100401C01004024010040A8
:1068C000200100404FF080434FF4607210B9C3F8CC
:1068D00008237047C3F80423002001F083BE00BFE3
:1068E000020600F07F0312D4082B02D010F0780FBC
:1068F0000BD1020700F00F0318D40E48093303EB45
:10690000C30300EB83002830704700207047082B3A
:1069100002D010F0780FF8D1010700F00F0307D470
:106920000448242202FB03002830704702487047C5
:106930000248704798370220243A0220E0380220AB
:1069400070B505461F4805F0C5FA68B31E4E6DB117
:10695000317831BB83681B689847044614B114F141
:10696000440F0CD135700024204670BD3478002CC3
:10697000FAD0836829465B6898470446EEE71348D7
:10698000134B144A14491B1ADB089B01002D18BF36
:106990001146124843F001032246FDF74BFF204603
:1069A00070BD0024204670BD084B09490C48C91A27
:1069B000C908890141F00101FDF7B4FF6FF012042D
:1069C000D2E700BFACFB0000054702207CF60000C8
:1069D000DCF6000018FC000020FC000028FC000091
:1069E000F8FB00002DE9F041DFF8D08182B00025EE
:1069F0000026002709E000230122082D84F820202A
:106A000084F8213084F8223021D065F07F00C0B2B4
:106A1000FFF766FF0369044663B194F82220A3617F
:106A200000210135E361E160002AE4D0607A05F0DD
:106A3000DFF8E0E700F11001CDE9006740224046B1
:106A400005F038FC0028C0F28B802369E5E75B4D38
:106A50009846002600270AE000220123B8F1080F1B
:106A600084F8203084F8212084F8222020D05FFA96
:106A700088F0FFF735FF036904466BB194F82220D4
:106A8000A361002108F10108E361E160002AE3D07D
:106A9000607A05F0ADF8DFE700F11001CDE900679D
:106AA0004022284605F006FC002867DB2369E5E75D
:106AB000434CD4F85831A3B394F86A21C4F8603138
:106AC0000021C4F86431C4F8541102BBD4F89C32DC
:106AD0000022012184F8681184F8692184F86A2170
