:10000000F06C00203D2D0000D12C0000692D000077
:1000100000000000000000000000000000000000E0
:100020000000000000000000000000006D2B000038
:1000300000000000000000000D2B00000000000088
:10004000FD2C00006D490000FD2C0000FD2C00007F
:10005000FD2C0000FD2C0000FD2C0000FD2C0000FC
:1000600061490000FD2C0000FD2C0000FD2C00006B
:10007000FD2C0000FD2C0000FD2C0000FD2C0000DC
:10008000FD2C0000FD2C0000FD2C0000FD2C0000CC
:10009000FD2C0000FD2C0000FD2C0000FD2C0000BC
:0800A000FD2C0000FD2C000006
:1000A800002243088B4274D303098B425FD3030AAF
:1000B8008B4244D3030B8B4228D3030C8B420DD3C2
:1000C800FF22090212BA030C8B4202D31212090250
:1000D80065D0030B8B4219D300E0090AC30B8B428E
:1000E80001D3CB03C01A5241830B8B4201D38B033C
:1000F800C01A5241430B8B4201D34B03C01A5241E1
:10010800030B8B4201D30B03C01A5241C30A8B4223
:1001180001D3CB02C01A5241830A8B4201D38B020E
:10012800C01A5241430A8B4201D34B02C01A5241B2
:10013800030A8B4201D30B02C01A5241CDD2C30924
:100148008B4201D3CB01C01A524183098B4201D3A0
:100158008B01C01A524143098B4201D34B01C01A8B
:10016800524103098B4201D30B01C01A5241C30803
:100178008B4201D3CB00C01A524183088B4201D372
:100188008B00C01A524143088B4201D34B00C01A5E
:100198005241411A00D20146524110467047FFE7CA
:1001A80001B5002000F0F0F802BDC0460029F7D0E4
:1001B80076E7704703460B437FD4002243088B42FF
:1001C80074D303098B425FD3030A8B4244D3030BD6
:1001D8008B4228D3030C8B420DD3FF22090212BA9B
:1001E800030C8B4202D31212090265D0030B8B4217
:1001F80019D300E0090AC30B8B4201D3CB03C01A01
:100208005241830B8B4201D38B03C01A5241430BDB
:100218008B4201D34B03C01A5241030B8B4201D3CB
:100228000B03C01A5241C30A8B4201D3CB02C01A36
:100238005241830A8B4201D38B02C01A5241430AAE
:100248008B4201D34B02C01A5241030A8B4201D39D
:100258000B02C01A5241CDD2C3098B4201D3CB0144
:10026800C01A524183098B4201D38B01C01A5241F3
:1002780043098B4201D34B01C01A524103098B42F7
:1002880001D30B01C01A5241C3088B4201D3CB00E2
:10029800C01A524183088B4201D38B00C01A5241C5
:1002A80043088B4201D34B00C01A5241411A00D275
:1002B80001465241104670475DE0CA0F00D04942DE
:1002C800031000D34042534000229C4603098B424E
:1002D8002DD3030A8B4212D3FC22890112BA030AD6
:1002E8008B420CD3890192118B4208D38901921158
:1002F8008B4204D389013AD0921100E08909C309DD
:100308008B4201D3CB01C01A524183098B4201D3DE
:100318008B01C01A524143098B4201D34B01C01AC9
:10032800524103098B4201D30B01C01A5241C30841
:100338008B4201D3CB00C01A524183088B4201D3B0
:100348008B00C01A5241D9D243088B4201D34B00CB
:10035800C01A5241411A00D20146634652415B100D
:10036800104601D34042002B00D5494270476346EE
:100378005B1000D3404201B5002000F005F802BD33
:100388000029F8D016E770477047C0461C210123A2
:100398001B04984201D3000C10391B0A984201D360
:1003A800000A08391B09984201D30009043902A23E
:1003B800105C40187047C0460403020201010101A5
:1003C8000000000000000000002B11D1002A0FD10E
:1003D800002900D1002802D00021C943081C07B415
:1003E800024802A14018029003BDC0469DFFFFFFCE
:1003F80003B4684601B5029800F02EF8019B9E46AA
:1004080002B00CBC7047C046F0B515042D0C0F00A7
:1004180001002E00C64684460004140C000C090C8A
:1004280046434D43604361434019340C241800B5DA
:10043800A54203D98020400280464144250C6D180E
:10044800614659437A43300449192404000C2018A2
:10045800891804BC9046F0BDF0B557464E4645464F
:10046800DE46E0B504000D009246994683B08B4203
:1004780030D82DD04946504600F0BAF82900060079
:10048800200000F0B5F8331A9846203B9B4633D439
:100498005A465346934042461F00534693401E0017
:1004A800AF423AD8AF4200D178E05B46A41BBD41C9
:1004B800002B00DA75E0002200230092019301234B
:1004C8005A4693400193012342469340009328E003
:1004D8008242CFD900220023009201930C9B002B6B
:1004E80001D01C605D600098019903B03CBC904647
:1004F8009946A246AB46F0BD424620239B1A524677
:10050800DA40414613004A468A40170042461F43D4
:10051800534693401E00AF42C4D9002200230092E4
:1005280001934346002BD9D0FB0772081A4346466D
:100538007B080EE0AB4201D1A2420CD8A41A9D411F
:10054800012024196D410021013E24184D41002E3F
:1005580006D0AB42EED9013E24196D41002EF8D1E8
:10056800009801995B4600196941002B24DB2B0098
:100578005A464446D3402A00E2401C005B46150018
:10058800002B2ADB26009E40330026004746BE404B
:100598003200801A9941009001919FE7A342BCD88C
:1005A80083E74246202300219B1A002200910192F2
:1005B8000122DA40019286E7424620239B1A2A004C
:1005C80046469A402300F340444613432A00E2403B
:1005D8001C005B461500002BD4DA42462F0020236E
:1005E800260097409B1ADE403B003343CDE7C046C8
:1005F80010B5002903D1FFF7C9FE203002E0081C1E
:10060800FFF7C4FE10BDC046F0B587B004F0B0F9DE
:1006180000F0FCFC00F0CEF900F05AF800F050F8B9
:1006280000F0DAFE00F0E4FD00F052F8543001F07A
:10063800DBF96B4600240720204FDE1D9D1D17287F
:1006480009D880003B589F46200002A900F04EFEC2
:1006580002A800F06DFF00F0E3FC002803D000F0D2
:10066800CBFD00F001FD00F011FE041EF3D000F0F8
:1006780023FEE4E7200000F083FDECE700F062FDD4
:10068800E9E7200002A900F029FE02A801F034FCE5
:10069800E1E701F03BFC00F0EFF900F025FADAE7BA
:1006A8002A00200002A9330000F008FE00F0E4F957
:1006B8002978307802AA00F04BFACCE7C85B000032
:1006C800EA2210B50021520002F07EFC10BDC0469F
:1006D8000048704718040020F8B50D4C070025683D
:1006E8000E00002D10D000F0FFFE0100280000F0E1
:1006F8000FFE084A206813681660F91A283900F0B6
:10070800FFFD00F0C5FCF8BD00F03CFEFBE7C0466D
:10071800180600200C060020010010B5CD3100207D
:1007280004F066FE04F01CFA10BDC04610B50020A7
:1007380004F03CFD002004F013FA00F0E9FE04F098
:1007480005FB002004F044FA10BDC046F0B5DE46B3
:100758004E4645465746E0B583B00E000090FFF779
:10076800B7FF634B05009B461B68002B00D1ACE02C
:10077800FFF7AEFF5F4F81463B789A46002B00D0CB
:1007880079E03323C45C0023012122001A4111427D
:1007980000D0A9E00133082BF7D10023019304F01E
:1007A8008DF908239846002809D14A46C933FF33F2
:1007B800D35859784B425941C9004BB298464E4BD1
:1007C800023C1978534689005800019B01430B43AA
:1007D8005BB29A4604F034FB4B4641465A8853466E
:1007E80019435B460143C9B2186800F017FD5B4620
:1007F8006142614118680F23494299433F4B009A6F
:100808001C682831141B611A1E6000F079FD00F085
:100818003FFCE8235B00EB581B78DB439B075ED06B
:100828002B79002B4BD1E8232A005B00E85854327F
:10083800397801F0B5F901223B7853403B701DD05F
:100848003223EC5C04F06EFA00281DD0022C32D062
:1008580031000926C4317118002004F0C9FD04F0E4
:100868007FF90822264B1A7003B03CBC9046994683
:10087800A246AB46F0BD3223C45C84E73323EC5C6C
:1008880004F050FA0028E1D1310002300F3104F0B1
:10089800AFFD194B05001A78002053425A41032333
:1008A80052429A4321001F3204F010FA280004F043
:1008B8008FF9022CCCD131000526B431CBE72800C2
:1008C800397801F00BFD6871ADE700F05BFDE823B6
:1008D8005B00EB58074F1B78DB439B07A0D1280030
:1008E800397801F013FD9BE71B015BB2019356E7D2
:1008F800180600207E030020DC6800200C0600207B
:10090800DD680020F0B5C64600B500F09FFB214B1E
:10091800186000283CD000F06DFC04001E4B1B78CA
:10092800002B23D0FFF7D4FE1C4B05001B78002BAF
:1009380027D13322825C9046194A10685168194EB3
:10094800194F306171613800337604F0CFFA3900FD
:100958002200300004F07EF8288B00F03DFF0121D2
:100968004140C9B2404604F08FF802E0200004F08C
:10097800BDFAFFF7ADFEE8235B00C45004BC904607
:10098800F0BD3222825C9046084A10685168D6E76A
:10099800074CC3E718060020DC6800207E0300200F
:1009A80008040020D8030020EC05002000040020E3
:1009B8001C0600200022084B10B502201A7004F013
:1009C8008DF80400012004F03BF80100200004F039
:1009D80015FC024B187010BDDD680020D868002097
:1009E80070B5114C0D0010220100200004F0DAFE51
:1009F800200029000822193002F0A2FA0022002360
:100A08000A49226163610A604B6009490A604B60C8
:100A18000849094B09781878217604F035FC012239
:100A2800064B1A7070BDC046D80300200804002089
:100A3800000400207E030020D8680020DC68002025
:100A480010B5044B187804F04FFC0022024B1A70C2
:100A580010BDC046D8680020DC68002000220023B2
:100A680003490A604B6003490A604B607047C046FF
:100A7800080400200004002070B5144D2B78002BCA
:100A88001FD1002404F022FA04F056F9104B18780C
:100A980004F02AFC0F4B00221C7000230E49002092
:100AA8000A604B600D490A604B6004F073FB01203B
:100AB80004F070FB01220A4B2C701A70094B1C6061
:100AC80070BD002004F04CF8DBE7C046DD6800206C
:100AD800D8680020DC6800200804002000040020FA
:100AE8007E0300201806002010B5FFF7C5FF144844
:100AF80004F096F825220121012004F0E7F800F01F
:100B0800FDFC04F023F90F4804F080F90E4804F0C6
:100B180051F9022003F0E2FF0100002004F07CFC00
:100B2800082003F0DBFF0100012004F075FC002021
:100B380004F04EF8FFF7E6FE0122044B1A7010BDD0
:100B4800E50D0000745C0000705C0000DD680020AA
:100B580070B506000D001400FFF78EFF1C4804F066
:100B68005FF825220121012004F0B0F800F0C6FC4E
:100B780004F0ECF8174804F049F9174804F01AF99A
:100B8800164B06221E70164E21003570154D280092
:100B980002F0D6F92900307804F06EF904F0B8F8BC
:100BA800022003F09BFF0100002004F035FC082020
:100BB80003F094FF0100012004F02EFC002004F053
:100BC80007F8FFF79FFE0422074B1A7070BDC04656
:100BD800E50D0000745C0000705C0000DB6800201C
:100BE800D968002010060020DD68002070B50020BC
:100BF80004F0DCFA002003F0B3FFFFF769FD438837
:100C0800040001334380FFF763FD01F0FDFB01227F
:100C1800244B1A7000F0C2FE002805D12379002B5E
:100C28000AD06379002B07D01F4B204A1978204B34
:100C38001878FFF78DFF70BD608800F0CBFC04F0DA
:100C480085F81C4B00201A7853425A41032352421C
:100C58009A432F33E45C1F32210004F037F800F088
:100C68002DFE8138050000F051FE022C16D0092413
:100C7800283029002418022004F0BAFB21000500BE
:100C8800002004F0B5FB0400280003F0A1FF2000B9
:100C980003F066FF0722084B1A70CCE705241830CA
:100CA800E7E7C0467E030020D96800201006002030
:100CB800DB680020DC680020DD68002070B582B0A9
:100CC8000E000500FFF704FD0400FFF7D5FE012024
:100CD80004F052FA3B4B20001A7833781340312243
:100CE8009B06DB0FA3540023638001F007FB200061
:100CF8003100143000F0F6FC3349344801F04EFA64
:100D080020003100543000F087FE314803F088FF9E
:100D180003F0FEFF20001F3004F078F82000223096
:100D280004F048F82B4B00201A7853425A41032309
:100D380052429A432F33E65C1F32310003F0C6FF5C
:100D4800A07F237DE28A218B0190A08B0090280050
:100D580000F048FD022003F0C1FE0100002004F06D
:100D68005BFB082003F0BAFE0100012004F054FBED
:100D7800608800F02FFC03F0E9FF00F09FFD813848
:100D8800050000F0C3FD022E19D0092428302900DF
:100D98002418022004F02CFB21000500002004F098
:100DA80027FB0400280003F013FF200003F0D8FEFF
:100DB800FFF7A8FD0722084B1A7002B070BD052482
:100DC8001830E4E7DA680020080400200004002056
:100DD800E50D0000DC680020DD680020F0B5C6469F
:100DE80000B5050003F092FF841E604244410323CE
:100DF800002064429C4304F029FB0934061B0120AF
:100E080004F024FB08231A002A409046041B2B42B6
:100E180022D1754F3B78082B00D9CAE0734A9B0052
:100E2800D3589F464346002B03D021003000FFF7DC
:100E380053FCFFF77BFC01233B70FFF763FD04BC09
:100E48009046F0BD6A4B6B49187804F015F8FFF727
:100E58006DFC04233B70F0E7674B187803F024FE21
:100E6800614F3B78082B00D9A3E0644A9B00D35814
:100E78009F46AB06E1D504F041F8614D03782100A7
:100E880030002B70FFF728FC2D7803F0D9FF0028DD
:100E980003D00F232B40022BD9D004F017F82000E1
:100EA800FFF73AFC05233B70C7E7FFF79FFEC4E74F
:100EB80000F066FDFFF79AFEBFE74346002BF7D028
:100EC800FFF706FC4F4B1B78002B75D03223C05C14
:100ED8000238434258410F23404298432830301A81
:100EE80000F03EFD00F054FD21003000FFF72EFC1D
:100EF800A3E74346002BAAD021003000FFF7ECFB04
:100F0800A5E74346002B9DD021003000FFF7E4FB06
:100F180003F0F4FF0F2503781D4003F091FF052D22
:100F28004DD0032D8ED100288CD0314B3149187803
:100F380003F0A2FF2000FFF7EFFB06233B707CE7DE
:100F48004346002B00D174E730002100FFF7C4FBB3
:100F580003F0D4FF067803F073FF002800D168E798
:100F68000F253540032D00D063E72000FFF7D4FBA1
:100F78003D7062E721003000FFF7E8FB5DE72100E4
:100F88003000FFF7A9FB03F0B9FF057803F058FF1D
:100F9800002800D14DE70F231A002A402B4202D027
:100FA800062A00D045E72000FFF7B6FB02233B7076
:100FB80043E704233B7040E73323C05C88E70028FD
:100FC80000D13FE7104B1B78002B00D03AE70020F8
:100FD80003F0C6FD03F092FF01002000FFF76EFE4C
:100FE80007233B7029E7C046DD680020285C000025
:100FF800D968002010060020DC6800204C5C000046
:10100800DA6800207E030020DB6800200023024A03
:101018001380024A13807047D4680020D6680020E5
:10102800074B084A1B8812889A4207D09800C318B1
:101038001801C01A044B8000C01870470020FCE754
:10104800D4680020D668002038060020044B1B888E
:101058009800C3181801C01A024B8000C0187047C6
:10106800D668002038060020074A084913880988EE
:10107800994204D0072B03D001339BB213807047E9
:1010880000231380FBE7C046D4680020D668002000
:10109800044A1388072B03D001339BB2138070478F
:1010A8000023FBE7D6680020F0B58378050083B0FD
:1010B800012B44D906880336B6B2AC1901A803F04F
:1010C800CBFE200001A9032204F06CFB3321B01CE5
:1010D8002B5C01361A091B011A43D2B293109200F5
:1010E8008A430B4013435522DBB25F105B00174065
:1010F80093433B432B54AB5D18091B011843C0B203
:101108008310800088430B400343DBB258105B0018
:10111800104093430343AB55237818091B01184328
:10112800C0B28310800088430B400343DBB25910E0
:101138005B00114093430B43237003B0F0BD467826
:10114800B9E7C04670B50B4C2378DDB2002B00D050
:1011580070BD01332370084B08481A68120A0271DF
:101168001A68511C1960C270082100F095F92570A1
:10117800EEE7C046DE680020980F00200C00002033
:1011880070B5184D2B78002B00D070BD01332B7033
:10119800154B164E1A68120A32711A68511C1960DA
:1011A800C379F27082791B021A43037A407A1B04CE
:1011B80013430006184300F079F9030C3372030E49
:1011C8000400F0800A213000737200F065F90028ED
:1011D80004D0002C02D0200000F076F900232B70F8
:1011E800D3E7C046DE680020980F002000000020EA
:1011F8007047C0461430704710B5037A0400242B9A
:1012080005D901882000063100F046F910BD1430D8
:1012180000F02AFC617D14312180F3E7F0B5194E06
:1012280004003378150083B0DFB2002B01D003B07F
:10123800F0BD013333700133837004334371124BB3
:101248001A68120A02711A68E171501C1860637DED
:10125800E2701433238003F09FFD207203F0A2FD97
:10126800A5722D0A6072E57201A803F0B9FD20008D
:101278000422103001A904F095FA2000FFF714FFAA
:101288003770D4E7DE680020980F002010B500F012
:10129800B9F8021E0ED000688378012B08D903889C
:1012A800526806339B1A5A4253415B42184010BD9C
:1012B8004378F5E70020FAE74079704770B50400F5
:1012C800160008000622A11D1D0001F039FE237B2F
:1012D8003370637B5A1E93412B7070BD0B0010B5A1
:1012E800811D1022180001F02BFE10BD8379CB70F0
:1012F800C3790B70037A4B70437A8B707047C04682
:101308000B0A017343730B0C090E8373C173704787
:10131800F0B51A4D04002B780E0083B0DFB2002B15
:1013280001D003B0F0BD01332B7009338371083B42
:10133800837004334371124B1A68120A02711A68D7
:10134800511C1960437DC2701433038003F078FD8B
:101358002672E071A772E77203F024FD607201A89B
:1013680003F03EFD20000422103001A904F01AFA0F
:101378002000FFF799FE2F70D3E7C046DE680020F3
:10138800980F00207047C046802210B5054CD20047
:101398002000054904F012FA2100044804F0C6FAB6
:1013A80010BDC0462414002024100020341400204E
:1013B800A02210B5054CD2012000054904F0FEF921
:1013C8002100044804F0B2FA10BDC0464C64002065
:1013D8004C1400204014002010B5064803F000FB10
:1013E800FFF7D2FFFFF7E4FF034A0449044804F07B
:1013F8008BF810BDDF6800204C6400202414002006
:101408001400002010B50D4B0D4C0E4823608023AE
:101418002100636004F0DCFA431E98414042044016
:1014280004F004F9002801D0200010BD064804F09B
:10143800CBF90028F8D104F0EBF8F5E79C0F002071
:101448001C1000203414002024140020F8B50F4E7E
:101458000500300003F0C8FA041E01D12000F8BDD1
:10146800280004F06DFA0700094804F0BBF9874228
:1014780006D90024300003F0C5FA04F0A3F8EDE71C
:101488002900044804F076FAF4E7C046DF68002033
:101498004C6400204014002000B583B000906846DA
:1014A8000191FFF7D3FF03B000BDC046E12203005E
:1014B800D202904204D0034A0020934200D07047E1
:1014C8001800FCE740420F00E12310B5DB02984208
:1014D80006D0044B984202D1112004F037F810BD11
:1014E8000F20FAE740420F00024B034A1B78D05CFA
:1014F8007047C046E06800201C0000200022024B14
:101508001A70024B18787047E06800201C00002011
:1015180070B5054D054C2878E1780130FEF730FFAD
:10152800605C297070BDC046E06800201C00002087
:1015380010B501000422024801F002FD10BDC046AA
:101548001C0000200E4B0F4AF0B59446186000248A
:1015580000230726012531002F0019408F40DA08A3
:101568008218927C174203D06146621C0B55D4B294
:101578000133DBB2252BEED16246D454F0BDC04610
:101588005C6400206064002000220F4BF0B51A70E4
:101598000E4B0F4A186000240023944607260125A5
:1015A80031002F0019408F40DA088218927C1742C8
:1015B80003D06146621C0B55D4B20133DBB2252B34
:1015C800EED16246D454F0BDE16800205C6400208E
:1015D80060640020F8B5DE4657464E464546E0B5FD
:1015E8003D4B1C68637F002B5BD0A37BE27B1B0217
:1015F800217C1A43637C09020B435A4003239A4611
:10160800043301259B465040030A984600270023CF
:1016180046463E4159462E40B446CE1BB146664624
:1016280049468E4001373343DBB2082FF0D1C1B2AF
:101638008846002700201B021BB246465946064131
:10164800091A2E408E4001303743FFB20828F4D1E2
:101658003B439BB21801C3189B1898B201235B4205
:101668009C46E2445346002BCED14240100025212F
:101678001600FEF79BFDC8B2C308E4180723034011
:101688009D40A27C154205D03CBC90469946A24696
:10169800AB46F8BD2522114B9A5C72431214985C34
:1016A800F2E70F4D637828782521C018FEF768FE09
:1016B800C8B2C3080722E418012302409340A17C62
:1016C80028700B42E0D12523044CE15CFEF76EFD47
:1016D800C9B2605CD8E7C0465C6400206064002042
:1016E800E16800200B7A10B5C375CB7903768B7946
:1016F80043764B7983760B79C376CB7803778B7CEB
:1017080083734B7CC3730B7C0374CB7B43744B7D1B
:1017180043730B7D0373CB7CC3728B7D03700A7E8E
:10172800CB7D1202134343808A7E4B7E1202134301
:1017380083800A7FCB7E12021343C3808A7F4B7F4C
:10174800120213430381CB7F242283742023CB5CB2
:10175800C3742123CB5C03752223CB5C43752323FD
:10176800CB5C83751F238C5C234043708B5C5B09C7
:1017780083720223FF33C383FFF706FF10BDC04601
:101788004A2310B5C25C043BC35AC3844823C35AD6
:1017980003852A23C2541430FFF7D4FE10BDC04677
:1017A8000B0070B504000A780270498892B2418033
:1017B8009888A080DD88E5801B89238100F050F897
:1017C80070BDC0468B7F002B00D08377CB7F002B6A
:1017D80000D0C3777047C046D0231B0183428041A5
:1017E80040427047F0B5070005A8068806A80078AB
:1017F800164C84460F252760A76267463D40144F64
:101808006D00EF5B212500206755D025E061A061C0
:1018180010482D01A060A94215D94801401A80003E
:1018280040180D49C0008C4660440A494B434A435E
:1018380023610A4BE2605E432022002366626060F7
:101848006361A354F0BD4843EFE7C04688640020B5
:10185800785C0000E20400000038CDFF102700008B
:1018680050B5124C06006068E0616069A061D02044
:101878000001864217D97001801B800080190C4E28
:10188800C000B446604460600A48090442432261CB
:10189800094A090C53432022636200234143E16053
:1018A8006361A35450BD03487043ECE7886400208B
:1018B8000038CDFFE204000010270000104A10B5E0
:1018C800D4689369A446D16901334B43916814687D
:1018D80061445B182021505C5169203C8C4651685A
:1018E8006044484321211B18505CE41832305843A7
:1018F800044B05499C466044FEF7D2FB201A10BDF4
:10190800886400203F420F0040420F0070B5114C20
:101918001149E268A36994465D1CE3695D43A368C5
:101928006344ED182023E05C63699C466368604467
:10193800584321232D18E05C084B32309C466843FD
:101948006044FEF7ADFB236822699B1820335D19BC
:10195800401970BD8864002040420F003F420F00CC
:1019680000220121054B5A619A601A61DA60DA6136
:101978009A612032186099547047C04688640020E4
:10198800024A5369013353617047C0468864002096
:10199800014B1A689A627047886400202022114B14
:1019A8009A5C002A18D099681A688C46D9686244EB
:1019B8008C46996A6244521A596958680131414300
:1019C80052189969D8690131414300205B6A52185D
:1019D8009A424041C0B2704705205B6998428041F5
:1019E8004042F8E78864002010B504001022002166
:1019F800074801F0E9FA200010220021173001F011
:101A0800E3FA2100034803F007F8BC23E05210BDB5
:101A1800F4640020D91E000070B5BE23002604001F
:101A28000D0006718671C654273006220331FF3037
:101A380001F086FA9622200029002B7852005B06D6
:101A4800DB0FA3547330273A0931FF3AFF3001F016
:101A580077FABC222B785200DB09A354BF23E65443
:101A68000133E65470BDC0460322F0B5C6461600E1
:101A780000B5037804001E401A422CD10322825676
:101A88004778C378002A29DA40253F221D401A40AA
:101A98006B425D4190463623011D6D42BA1C0A30E7
:101AA8009D4301F035FA4346062123720623523539
:101AB800E5716672DB19043B1BB2E3709BB21B0A2B
:101AC800237104230220637100232278C919024379
:101AD80022706170A37104BC9046F0BDC11CFA1C51
:101AE800073001F015FA04230421E3E7F8B5CE46E0
:101AF8004746284D284E80B5040031002022280092
:101B08002F0003F04FFE310020372022380020310B
:101B180003F048FEE6239846A044202229004046C8
:101B280001F0D8F999235B009946A14406002022C8
:101B38002900484601F0CEF9002E18D100281FD000
:101B480049462022280003F02DFE2100533120228F
:101B58003800FF3103F026FEBF230122E254033B85
:101B6800E05A02F063FF0CBC90469946F8BD002885
:101B7800F9D141462022280003F014FEE11DE6E7D2
:101B8800200020220549C13003F00CFEBE230122AB
:101B9800E254E8E7B4640020200000206000002040
:101BA800F0B54646D6464F46C0B510605171037829
:101BB80005009A4643780E00984697235B0099469D
:101BC80014009144002902D04C3B9946914403F0FB
:101BD80037F9070002F072FF3A00030031002800CD
:101BE80000F000FB4346002B08D003235246134065
:101BF800022B36D0032B4CD0012B04D01CBC9046B2
:101C08009946A246F0BD00F0E7FA0028F6D14B4607
:101C18001B88062BF2D1250063792F35FF35002B61
:101C280000D04C3DAB780C2BE8D12168E8784E7891
:101C38003218402A02DD4026361AF6B20430320045
:101C48000331281801F07CF9EB78F618F6B2EE703B
:101C58006379002BD2D1402ED0D12000FFF746FF68
:101C6800CCE72568AA796B79120213434A46138098
:101C7800062BC3D1260062792F36EB79FF36002A6E
:101C880000D04C3EB3700C2BB8D8584A9B00D358A0
:101C98009F462168CB78052B00D193E018D8032BF9
:101CA80074D0042BAAD1200008220431933001F00B
:101CB80047F92000216804220C31AF3001F040F9C7
:101CC800C0230122E254043BE05A02F0AFFE95E73C
:101CD8000B2B00D092E76379002B00D08EE7FEF73C
:101CE800AFFE8BE70123A37123685F78053FFFB23E
:101CF800B846402F01D94023984643462900DAB216
:101D08000831301D01F01CF94346F3706379002B4C
:101D180000D073E73F2F00D870E79EE7290063796A
:101D280020000831002B5CD01022413001F008F966
:101D380064E76379002B00D060E7290020000222C5
:101D48001031373001F0FCF8290020000822083152
:101D5800393001F0F5F851E729006379200008319E
:101D6800002B39D01022613001F0EAF846E7012350
:101D7800237143E76379002B00D03FE72900200057
:101D880010220831173001F0DBF837E7200008226D
:101D98000431813001F0D4F82000216802220C318E
:101DA800893001F0CDF82000216808220E318B30EF
:101DB80001F0C6F82000216804221631AB3001F08A
:101DC800BFF81BE7210020000022B3312730FEF7BF
:101DD80007FEFEF743FE11E71022713001F0B0F85C
:101DE8000CE71022513001F0ABF807E7885C0000DF
:101DF80030B5837904008BB0002B1BD0BE23C35CA5
:101E0800002B01D10BB030BD02AD019525000300B8
:101E1800020001007335FF352733FF33713261311A
:101E2800C130009500F078F91022E01D06A901F0F4
:101E380087F8E7E702000100C31D613202487131EB
:101E480000F054F9DEE7C046F464002070B5037969
:101E58000400002B32D1250021009B3508228B314C
:101E6800280001F06DF82100200008229331A330EA
:101E780001F066F8210020000422AB31B33001F0F4
:101E88005FF821002000AF310422B73001F058F884
:101E980020000221893003F075FC002806D02000BC
:101EA8000821813003F06EFC00280AD121002000AF
:101EB8002A001731273000F033F870BDFFF798FF7C
:101EC800C9E720002A00E11D273000F029F8F4E7CF
:101ED800BF2370B5C25C0400002A01D00022C2549E
:101EE800C025635D002B00D170BD2000FFF7AEFF59
:101EF80000236355F8E7C04610B5010010220248D8
:101F080003F050FC10BDC046F464002010B5102248
:101F18000021024801F058F810BDC046F4640020C2
:101F2800030010B5080011001A0003F083F810BD73
:101F3800F0B585B00D00160017496A4603F07AF827
:101F48006946012300224C1E6F1EE15C48000243D3
:101F5800FA540133CA09112BF7D16B46DB7B2C7875
:101F68007F2B02D987235C402C700020002300E0DF
:101F78002C5C6400234333542B5C0130DB091028AC
:101F8800F6D1EB7B7F2B04D9792332785B4253401F
:101F9800337005B0F0BDC0460465002070B505007B
:101FA800801A1030140000F0CBFF0F228023121B80
:101FB800AB54002A03DD0021280001F005F870BDAC
:101FC800F0B54546DE4657464E4688461C00E0B505
:101FD80099B003900192404608AA04A9FFF7A8FF08
:101FE80025000F230F3523402D09029336D110AB5E
:101FF800180010220021994600F0E6FF14AB9A461B
:1020080004AB9C462F263F35654466444C460199EF
:10201800029A0CA8FFF7C2FF0CAB08A91A78087837
:10202800013142401A7001339C42F7D104AB1F20A2
:102038009C4660440123C25CF15C4A40EA54013387
:10204800112BF8D151464046039A02F0F3FF19B01C
:102058003CBC90469946A246AB46F0BDEBB29B46C7
:1020680010AB102200211800994600F0ADFF012D99
:1020780032D0019B113C9C4614AB9A4604AB3F25D9
:102088002F2664449C460127654466440123E25C8C
:10209800F15C4A40EA540133112BF8D101374A4622
:1020A80051464046FFB202F0C5FF103CBB45EDD19A
:1020B800029B002BAAD104AA94461F206146012343
:1020C800019A6044013A4C1ED15CE75C7940C154E6
:1020D8000133112BF8D1ADE714AB9A4604AB9C46FB
:1020E8002F263E3565446644E2E7C04670B51600C3
:1020F8001C00050084B0082202A800F021FF31006E
:102108000822684600F01CFF6A4629002000FFF7F5
:1021180007FF04B070BDC046F0B593B00D001600BF
:102128001F000200202368461A49FFF749FF802351
:1021380012205B0004AC189907226844238000F041
:10214800FFFE192039000722684400F0F9FE31002B
:10215800102208A800F0F4FE290010220CA800F0B4
:10216800EFFE04220C4910A800F0EAFE34250023F3
:1021780022006946199863553533FFF721FF01237B
:10218800199863552200694610303433FFF718FF59
:1021980013B0F0BDC05C0000BC5C0000074B084AEF
:1021A8001860084B196000231370074A1370074A18
:1021B8001370074A1370074A13707047146500209C
:1021C800E468002018650020E5680020E368002026
:1021D800E6680020E2680020014B18787047C04686
:1021E800E2680020F0B54F464646D6460125C0B500
:1021F8000478A94625074678ED0F002925D07042B6
:1022080070412F4908702F49087804006C40A44693
:1022180067462D4C2770A84212D14C466040087082
:10222800002E0DD0002A0BD0002B09D1274B0122FC
:10223800196800230C684D6812196B410A604B60DD
:102248001CBC90469946A246F0BD21498A460978A9
:102258000F006F40B84640461B4F3870A94219D14D
:102268004846414050460170002E13D019490120BC
:102278000D6800212E686F688019794128606960AF
:10228800002A07D0002B05D102220023B6185F418F
:102298002E606F60104B64071A78E40FA2420DD0CD
:1022A800074A1278002A09D101200021074A12683A
:1022B8001568566840197141106051601C70BFE77D
:1022C800E5680020E6680020E26800201465002028
:1022D800E368002018650020E4680020C279030044
:1022E8008A4208D0E822520082589B791078400729
:1022F800C00F584070470020FCE7C0460123037018
:10230800002303720374037383807047F8B5E823CE
:102318005B00C6580400F578022D60D020D8002D47
:1023280036D0B57A737A40882D021D433449281A6D
:10233800FEF726F8334B99425EDC46233279E254A5
:1023480072790133E254B2790133E254F2790133FC
:10235800E254327A0133E254493B23746582F8BD72
:10236800182DFCD1F579B37940882D021D432449F5
:10237800281AFEF705F8234B9942F0DC52233279EC
:10238800E25472790133E254523B2373E581E6E764
:10239800B37B777B1B0240881F431949381AFDF726
:1023A800EFFF184B994225DC34233279E254B27995
:1023B800737912021343E386327AF37912021343D4
:1023C8002387B27A737A120213436387327BF37AD4
:1023D80012021343A387012367812372BFE703799E
:1023E800002BBCD1013303713278C171D20813407C
:1023F8008371B4E72570B2E700232370AFE7C046C6
:10240800FFFF0000FE7F000010B5027C0400438837
:10241800002A02D0428A9A421FD0227A002A02D089
:1024280062899A420FD0227B002A02D0E2899A421E
:1024380000D010BD2100200034311430FFF7C2F95C
:1024480000232373F5E72100200034311430FFF70F
:10245800A7F9002323726388E5E7FFF791F90023C2
:1024680023746388D9E7C04610B50400080011003A
:102478001A00A04701F0BCFF00F0FAFCF8B5474687
:102488008368CE469846802380B50768CE0004004E
:102498000D00BE191B02984527D33068E368184021
:1024A800FDF774FF80231B029946002243464946E4
:1024B8008B4252411F239B1A6268181A9446C30024
:1024C80063445A68511C5960002A10D10A0082409E
:1024D80061690A4362611D60A3684B452AD3B560F0
:1024E800A3684B452CD3F56020E03088D6E7186800
:1024F800A268C300FB184A4510D39A68B260A16865
:1025080049450DD3D200F060BF18A2684A450AD3E6
:10251800FD60A2684A4511D39D6007E09A88B280A1
:10252800D200F080BF18ADB2FD809D800CBC9046F3
:102538009946F8BDADB2B580F580F7E7ADB2F4E7DE
:10254800ADB2F580F2E7C0460723F0B5D646464659
:102558004F46CD1D89189D439943C0B54E1BF308BE
:102568002C0005609A46AB60802318342D606C609F
:102578001B029A4537D2284B5046EB6000236B610B
:10258800FDF704FF844620206346C01AC000C00837
:10259800C31C99462B616346202B35D080231B0230
:1025A8000021002298461F204646130062602260E0
:1025B800AF680131B74253416646C31A08349B1BC2
:1025C8009942F1DD4B465246D800D61A281847459D
:1025D8001FD3066028002969FFF750FF1CBC9046EE
:1025E8009946A246F0BD0D4B5046EB6000236B6147
:1025F800FDF7CCFE84461F206346C01AC000C00801
:10260800C31C99462B61C9E74B465246D800D61AD7
:1026180028180680DEE7C046FF7F0000FFFFFF7F27
:102628007047C046FF230B405900C918C26889008B
:1026380051184B7A002B04D1087A43425841C0B252
:1026480070470220FCE7C046FF2330B5C2684468E3
:102658001940EFF3108572B64B005B189B00D21837
:10266800137A002B18D0013BDBB200201372002B29
:1026780005D0002D02D162B6BFF36F8F30BD89003F
:102688006118CB788021C9058C460121634410600C
:10269800506019605072ECE745204042E9E7C046B7
:1026A800F0B55746DE4645464E46E0B5FF25436839
:1026B8000D4014008B469A46C76883B06A00002C08
:1026C80009D053199B00DB599C4258D0002B02D0EB
:1026D8001B68002BF8D1EFF3108872B653199B00D2
:1026E800FB181E7A0136F1B2197243460191002B8C
:1026F80002D162B6BFF36F8F002C21D00323984616
:102708008026C2234146521992009B00F605BA184A
:10271800F150537A002B27D1EFF3108172B6236062
:102728005368002B2ED01C605460002902D162B679
:10273800BFF36F8F8022C1230321D2059B00D150A4
:10274800019B0020012B08D18022D2059446AD00C0
:102758005544AB78019A63441A6003B03CBC904678
:102768009946A246AB46F0BDC1228021434692005D
:10277800C9058B505946A26863689847E0E710205E
:102788004042EAE754601460CFE7C046FF2310B523
:10279800C26844681940EFF3108072B64B005B18AA
:1027A8009B00D218137A0133DBB21372002802D1CE
:1027B80062B6BFF36F8F012B07D1890061188A7841
:1027C8008021C9058C4662441360002010BDC046B4
:1027D80010B5002204000121002000F0E1F90020DA
:1027E80000F0D2F98023A3220121DB05D200995001
:1027F800C1220231920099500023E2680020136040
:102808005360E268D360136110BDC04670B5144EC2
:102818004400F36824189C460123A400644405007E
:10282800637209E0002A02D162B6BFF36F8F9A681B
:10283800290030005B689847EFF3108272B623686E
:10284800002B06D01968606821608342EAD1616074
:10285800E8E7002A02D162B6BFF36F8F70BDC046A9
:1028680084030020134B10B51A68002A0DD080216C
:10287800C122C90592008A58D20706D500221A60DB
:102888000D4BDB685B7A002B10D00C4B1A68002AC2
:102898000BD08021C122C90592008A58920704D51D
:1028A800002201201A60FFF7B1FF10BD0020FFF7DA
:1028B800ADFFEAE700010040840300200401004066
:1028C8007047C0460022084B10B51A60A823074A73
:1028D800DB00D058064A1368C01A0002000A1B1809
:1028E800136001F075FF10BD401101400010014058
:1028F8003465002010B5164801F05EF8002823D092
:10290800836801211B689847A12200238021114C6C
:10291800D200A350104A89021360104A8133FF3352
:10292800D15080228533FF335202E2500121002228
:10293800112000F035F9112000F026F901230020BC
:10294800074A1360236010BD01204042FBE7C046E0
:10295800D05C0000001001404011014000E100E09F
:1029680008100140F0B5C64600B5431C66D0464B7A
:102978000138984200DC83E044488021444A454BB2
:102988000904D358444A14681B1B1A020B405D42C1
:102998006B41120A5B42184001321018884200D37A
:1029A8003A488027C2233A4A7F029B00D750394BC6
:1029B8002418D0583C339C46002665463749D358DE
:1029C80088460E600102090A5151D1211B1A89005B
:1029D8001B0257501B0A012B4CD0C0238021304AC0
:1029E8005B008902D1502A4B2A4A9858211A0902B9
:1029F800090A012924D0A8212002000AC900585038
:102A08009D58601B023800020FD5A81C0002000A5E
:102A180058509858A84208D008009C58A11C090290
:102A2800090A195099588C42F7D1C1238021184AB4
:102A38009B004902D15004BC9046F0BD12489CE767
:102A4800A824811C0902090AE400195199588842EE
:102A5800EBD09858811C0902090A195199588842E3
:102A6800E3D09858811C0902090A195199588842DB
:102A7800EFD1DAE70F2001F02BFD43461E60ACE7EB
:102A8800C343DB17184078E7FEFF7F00FFFF7F0096
:102A98000010014004050000346500204011014089
:102AA80000E100E0EFF3108372B6074A074988583F
:102AB800074A1268801A0002000A002B02D162B687
:102AC800BFF36F8F7047C046040500000010014037
:102AD80034650020084A0949936809685866996668
:102AE800802307495B05486803434B6062B6BFF320
:102AF8006F8F9368986E704734660020745D00008D
:102B080000ED00E013498A6813481044EFF3098C7C
:102B1800F0C043464C4655465E466746F8C072B616
:102B28000E4F0F4E4A6A8A603E60506E002353660D
:102B3800002800D162B6084C10191030F8C8984621
:102B4800A146AA46B346BC462438F0C88CF3098887
:102B580070470000346600203000000004ED00E0FB
:102B68000000000804207146014202D0EFF30980FA
:102B780001D1EFF308808169023909780229FFD071
:102B880001B500F09BF801BD030605D41F231840CA
:102B98001E3B8340014A13607047C04600E100E0D5
:102BA80070B543B2020614D4154A03249446FF2292
:102BB80020401400C026C000890184400A40824099
:102BC8009B089B006344B6009D59A5432A439A512C
:102BD80070BD0C4A0F239446032203401040FC3278
:102BE8001500C000890185400A408240083B9B08C7
:102BF8009B006344DC69AC432243DA61E8E7C046E2
:102C080000E100E000ED00E010B50021012000F037
:102C180051F810BD10B5EFF3108472B6074B186A5F
:102C2800002805D1002C02D162B6BFF36F8F10BD0A
:102C380000221A6200F0FCFEF4E7C0463466002069
:102C48008A180721203A10B58A431360029B012491
:102C58005360039B06499360049BA143D360802380
:102C68005B04D361002391610265436610BDC046D1
:102C780071240000891807229143064A9060181CA5
:102C880081F30988002162B6BFF36F8F0022002309
:102C9800FFF7EAFB34660020014910220A607047FA
:102CA80010ED00E0BFF34F8F30BF62B6BFF36F8FF8
:102CB8007047C04610B500F0A5FE10BD10B5010064
:102CC800006800F09FFE10BD10B500F003F800F09A
:102CD800A5F810BD30BFFDE77047C04610B5FFF737
:102CE800FBFF00F0BDFE00F0C7FE00F0A7F800F003
:102CF800F5FEC04601B572B60A4A106A002803D02C
:102D08000021116200F094FE62B6EFF305800649D7
:102D1800401AC0000549014409C9984709BC9E46A4
:102D2800034908473466002010000000E85A0000F4
:102D3800252E000000F0AEF972B607480749401882
:102D480080F30988EFF314800221084380F3148884
:102D5800BFF36F8FFFF7C2FFF06D0020000800007F
:102D6800EFF30880EFF30981724601B500F002F82D
:102D780001BDC04630B5254B89B05B68DB05DB0D6E
:102D880062B6BFF36F8F140EFF2C17D1F33C1440BB
:102D9800082C13D008242500154014420FD1032B0A
:102DA8002CD06C4620220100200000F0C9F8E3690D
:102DB800DA0510D1164A1343E3610CE00021032B16
:102DC8000FD06C462022200000F0BAF80025E369F5
:102DD8005B0A5B02E36121002800FFF76BFF09B083
:102DE80030BD8B690D68023B1A880A4B9A42E8D1BC
:102DF8006C462022200000F0A3F8E8E78369023B34
:102E08001A88044B9A42CCD10568CAE700ED00E065
:102E1800FF01000002DF00007047C046044B9968BC
:102E2800586A884202D00349034A0A607047000082
:102E38003466002004ED00E000000010F0B5C02466
:102E480000220326FF25A40030002F000749104068
:102E58008C46C000874093089B006344195901328F
:102E6800B94319511A2AEFD1F0BDC04600E100E07C
:102E780070B50400EFF3108572B601F0CDF80A4B77
:102E88009B68A34203D0280000F0F4FE70BD074BF6
:102E98005A68D20505D08022596852050A435A60FB
:102EA800F1E72800FFF716FE3466002000ED00E089
:102EB80010B50C78027801230139944205D006E058
:102EC800C25C0133CC5CA24201D1002AF8D1101BAC
:102ED80010BDC04610B5002A11D0541E03000419B5
:102EE800012A06D110E05A1C481CA24209D0010050
:102EF800130018780A789042F5D0801A10BD002087
:102F0800FCE758784A78F8E700780A78F5E7C04689
:102F180010B5431A934208D30023002A04D0CC5C8E
:102F2800C45401339342FAD110BD013A8B5C8354E7
:102F3800002AF9D0013A8B5C8354002AF5D1F3E7D3
:102F48000323F0B50400C6461D004C4000B52540DB
:102F5800234227D1184231D0002A2CD0561CB4461F
:102F6800032600230400B0468C4402E00133002A03
:102F780021D06646B71ACE5C0134C6544646013A9B
:102F88003442F3D1032A1CD9111F89080131890061
:102F98007B5963510435A942FAD1032364181A40B6
:102FA800791800E00400002A05D00023CD5CE55420
:102FB80001339A42FAD104BC9046F0BD0F000400D8
:102FC800E0E73900EFE7C046F0B5C646040000B5B3
:102FD800CDB2830730D0002A2BD00300032602E0AD
:102FE8000134002A25D001332570013A3342F7D144
:102FF800FF2739400F0239430F040F43032A11D921
:10300800141FA408A4461E1DA400A04634001900DD
:10301800444480C1A142FCD103210A4061460131E8
:1030280089005B18002A04D09A181D700133934256
:10303800FBD104BC9046F0BD0300D9E7EFF3108341
:1030480072B6002B02D162B6BFF36F8F00207047B3
:10305800FF238021064A0340C9058B50BFF34F8FD9
:10306800044B054ADA60BFF34F8FC046FDE7C04600
:103078001C05000000ED00E00400FA0510B5022868
:1030880005D90122024B023800011343984710BDAD
:10309800C05B000010B500F069FC10BDF0B5C64675
:1030A80000B543680F261A7A1F2352010B401343B9
:1030B800C122C5681F204C4C9200A258A046164059
:1030C800844600220127100044464530FF30800026
:1030D80000596446000A204083423BD00132042A4A
:1030E800F1D1A020C0058446E0279A006244FF0081
:1030F8003E4CD059A4462040EC680126CC40D05123
:103108000020264223D02C69CC4026421FD0AC692F
:10311800CC40264231D0EA690327CA40164205D17D
:103128006F69CF403E400227BF1BFFB20022032039
:103138002D4C110005004531FF31890009590D401A
:10314800084226D00132042AF3D11320404204BC9D
:103158009046F0BD3000D0400742BFD0224C9000CE
:10316800A446A2246044E4000659BE430651C22086
:103178009740424680001750B3E76B69D459CB405B
:103188001E4003239E1B634636041C402643D6512B
:10319800DDE7154891008446A220C00080466144BE
:1031A8000E5813481B02064040460E500E58F82091
:1031B8004001034040463F043B4333430B50130058
:1031C8000948403384469B009BB263441D604346D4
:1031D800CD5801231D439340C122404692000D5013
:1031E8000020A350B3E7C04600600040FFFFFCFF8B
:1031F800FFE0FCFFF0B5C646364B14001340364AD4
:103208000D0000B54768934261D03FD8062B58D0CF
:103218002FD980225203934256D180235B000C267B
:10322800E2062FD501210800620A0A409046220AC8
:1032380090430200A00508D578688446200539D552
:10324800A124A9406046E400015140461F245200D1
:1032580002431343A0220020397A2540490129431B
:10326800C131FF3133438900D2058B5004BC9046ED
:10327800F0BD002BD3D0022B26D180230C26DB00F7
:10328800E206CFD4A606F60FB600CBE7134A934260
:103298000DD0A022D203934202D1C0239B00BEE7E7
:1032A8008022D20393420FD180239B00B7E7A0234B
:1032B800DB00B4E76005C8D5A9406046084C015159
:1032C800C3E7C023DB00AAE716204042CEE7E0238D
:1032D800DB00A4E70600F000060010000200400032
:1032E8000C05000043685A68A223DB00D35800206D
:1032F8000B607047436810B55868044BC458624067
:1033080011406140C150002010BDC04604050000B6
:1033180043685A68A123DB000020D1507047C0469B
:1033280043685A68014B0020D15070470C050000D3
:103338004368034A586883584B40835000207047BD
:103348000405000070B5A025C4686D02AA4230D0FB
:103358008025AD01AA421CD101228A40D643E568E6
:103368009543E560256995432561A5693540A561C3
:10337800C025ED02AB4216D0E5693540E5618025F0
:10338800ED02AB4212D1666916436661FFF786FE0D
:1033980070BD01228A40E568D6431543E56025697A
:1033A80015432561E1E7E3691A43E26163691E4059
:1033B800EBE71F2542680D40127A52012A43A025E7
:1033C800C132FF329200ED05555901222A420AD135
:1033D8008A40E568D6431543E560256915432561AC
:1033E800A5691543C3E723204042D1E7C06870B5FB
:1033F8004468002C1CD02300002600E02B009942D2
:103408000CD01D681E00002DF8D1002A20D00C60B9
:1034180083684160002B13D0002070BD0B68002E1C
:1034280010D033608368994200D1866000230B6016
:10343800002AF1D044680C6083684160002BEBD10E
:103448008160E9E784684360A142EFD18360EDE7DA
:1034580016204042E1E7C04601238B40C26810B500
:10346800146923431361FFF719FE10BD01238B4034
:10347800C26810B514699C431461FFF70FFE10BDB4
:103488000B4B10B51A78002A01D0002010BD01326C
:103498001A70012100220620FFF782FB0620FFF7A1
:1034A80073FBC1238021034A9B000906D150ECE736
:1034B800E768002000600040F0B55746DE464E46FB
:1034C8004546E0B5674B00241B6883B09A46002B3D
:1034D80031D11F2290460022C127002301209446A3
:1034E800614EBF0002009A40F159114213D05F4962
:1034F8009A0089464A44116800290CD019004546AB
:103508004531FF3189008959090A294005008D4054
:1035180061462C4311600133042BE3D1002C00D009
:1035280085E05346002B41D103B03CBC90469946F8
:10353800A246AB46F0BD4E4AD3685268D968934656
:103548001A69D86911409A695B69024358469143E0
:10355800A2220C004068D200825853409C430029A4
:103568001DD01F239846434BE026002001229C468D
:10357800F600114217D05B4645461B7A05405B01B1
:103588002B43A025ED05A94667469B004B449D5952
:1035980091433D409D51013052000029E9D100225C
:1035A800304B1A6095E701305200E2E7304BDE6895
:1035B8005B68F0689C463369F2691840B369134345
:1035C8009843B1D01F23E027002401219B461E3BCE
:1035D8009A4602339946274BFF000193014223D0B4
:1035E80063461A7A5B46520123401A43A023DB053F
:1035F800984692004244D359554698467369884381
:10360800E3402B404D46EB1A1B0400934346019DB3
:1036180001342B401D00009B49002B43D351002847
:1036280000D181E70142DBD101344900D6E7104BD4
:10363800DF6898467968002900D172E78A683B6993
:1036480022400E68134202D040464B689847002E2D
:1036580000D166E731008A683B6922403668134228
:10366800F5D0F1E77C610040006000400061004057
:10367800B4030020FFFFFCFF074B1A68002A08D09C
:1036880000221A60A3230020044ADB00D3580B70E1
:10369800704701204042FBE708210040002000401D
:1036A8009023024ADB00D058D050704700200040D9
:1036B800C36805CB05C100207047C04670B54B797B
:1036C800012B07D18B79032B04D1CC79002C08D09E
:1036D800012C02D02320404270BD43681B78002B88
:1036E800F8D00D79002D02D0022DF3D10C35962299
:1036F8000B681202934200D18BE01ED896229201E9
:10370800934200D183E033D89622D200934279D0F5
:1037180023D99622120193425FD0962252019342F6
:10372800D8D13D4A3D4B3E4E2C439A513D4A9C5080
:10373800C36805C905C30020CEE7E122920293427F
:1037480063D029D9E1221203934257D01BD9364AB4
:103758009342BFD180225205E4E796225200934259
:1037680047D096269C22B6009202B342DAD0B1E73F
:10377800E122D20193423FD01AD980222B4E120463
:10378800B342CFD0A6E72A4A93422FD0E122D202F1
:1037980093429FD1274AC5E79622520293422FD0DF
:1037A80011D9E1225202934200D093E7224AB9E7A5
:1037B800E1229201934216D09622D201934200D080
:1037C80088E71E4AAEE71E4A934209D0E122120258
:1037D800934200D07EE71B4AA4E79D221203A1E78B
:1037E800E52212049EE7EC2292039BE78022D20492
:1037F80098E7A022520295E7134A93E7134A91E704
:10380800134A8FE79E22D2028CE7124A8AE7124AAD
:1038180088E7124A86E7C04600B01300002000403F
:10382800240500006C05000040420F00127A0000D9
:1038380090D0030000705F0700E0D70100A04E00A1
:10384800C0DA000000F0EB0000F0750000D0BE0EFA
:1038580000903A0100B0AF030050270000509D00CF
:10386800F8B5A122A02380210325DB05D200890019
:10387800995014490B275D500021134C134E1951D0
:10388800134CA751134E023FA751802676009E5035
:10389800E426F6009D51E525ED0059510823A35073
:1038A800A2230A22DB00C168E250FFF707FF0028C5
:1038B80007D1A0230422DB00E250074B1860012344
:1038C8002360F8BD240700002C0700001405000041
:1038D800002000400C05000008210040F8B50F004A
:1038E80000F0F0FD00282CD16424184E07E0013CBC
:1038F80021200021E4B200F059FD002C20D0012243
:103908000021300000F0EEFF0028F0D00023012253
:10391800FA240F4DA4002B600E4B1A600E4A0F4B71
:10392800D75005E00120013C00F028F8002C02D017
:103938002B68002BF6D00122094B1A600023336054
:10394800F8BD0123014E3360E0E7C046586500200A
:103958001C21004008200040002000401C050000F9
:103968000C200040002010B5FFF772FB014B024A03
:103978001A607047880000200024F40010B500F099
:10398800A7FD10BDF8B582000A4B01308000D4585D
:10399800C658B4420CD200276568236828009847A7
:1039A800002802D0002D00D0AF600834B442F3D311
:1039B800F8BDC046605D000070B5104B104D0600A4
:1039C800AB4209D01C00A268002A02D02268B24289
:1039D80012D01034AC42F6D11C00AB420BD0A36815
:1039E800002B05D030002168FFF762FA002803D0C9
:1039F8001034AC42F3D10024200070BD84030020B1
:103A0800C4030020F8B505000E00EFF3108772B666
:103A180000F0EEFC310004002800FFF7A3FF002FA0
:103A280002D162B6BFF36F8F2000FFF721FAF8BD0D
:103A380010B5FEF745FF10BD70B5084DEFF31083C4
:103A480072B600F0A3FE0400022800DC0120012168
:103A580000F0A8FE2C62FFF725F9EFE73466002096
:103A680010B50348034A0021121AFFF7ADFA10BD3A
:103A7800D8030020F068002010B50648064A074918
:103A8800121AFFF75DFA064A06490748FFF758FA7F
:103A980010BDC04600000020D8030020545E00007E
:103AA80000000000545E00000000002010B5012452
:103AB800084B02201C70FFF765FF0320FFF762FF29
:103AC80000F032FDFCF7A0FD034A137BA3431373F8
:103AD80010BDC046E8680020C86500208022F0B507
:103AE800DE4657464E46454612019346E0B5304BF2
:103AF800A3B09B448BF308882E492F4A0B6A0024F5
:103B08001A40C0231B0413430B62FFF785F9FFF724
:103B1800C3F80222294D07ABFF329A81AB6000201F
:103B2800FFF730FF0120FFF72DFF00F0E1FB244BEA
:103B3800244E9A468023DB009946234B6E629846B2
:103B4800224B4146059301234A46300004930394CF
:103B5800534602940194009400F0BEFC0422737B47
:103B680030009343737300F041F901238022184F0A
:103B780004930E333800174903935200164B0594EB
:103B880002940194009400F0A7FC04227B7B414638
:103B980093437B735B466B602B001833AB61EB611F
:103BA8004A4653463000EF602C75FFF763F8C0466D
:103BB800F06D002000ED00E0FFFF00FF34660020FC
:103BC800B53A0000C8650020F0680020785D000064
:103BD8005C650020F06C0020413A000010B5FEF74B
:103BE80061FF0300044A00211068044AC3181361E6
:103BF80000F0D8FD10BDC0466C6600203466002079
:103C080070B50D00EFF3108472B6002200210D4B41
:103C18001A61430CC2030C4880185941FA22002348
:103C28009200FCF7D1FB094B1860094B1D60002876
:103C380001D0FFF7D3FF002C02D162B6BFF36F8F1C
:103C480070BDC04634660020E70300006C660020A3
:103C58006866002010B5002906D1EFF30583002B14
:103C680003D062B6BFF36F8F10BD0020FEF732FF9E
:103C7800FAE7C04610B5002806D1EFF30583002BFC
:103C880003D062B6BFF36F8F10BDFEF723FFFBE7CB
:103C9800EFF3108172B6054B9A68D37B013BD3735F
:103CA800002902D162B6BFF36F8F704734660020D7
:103CB800094B1A002832824207D00B684A68136001
:103CC8005A6000230B604B6070479B688B42F4D1AD
:103CD8004B7BDB06F1D0F7E7346600200368984297
:103CE80001D0180070470020FCE7C04670B5154E9B
:103CF800050030002830FFF7F1FFB36804005A7B55
:103D0800910602D508210A435A73002C14D0002DBD
:103D18000AD15A7BD20607D1A269002A04D1DA89CE
:103D28007F2A01D9736206E0A34203D0064B1B68C1
:103D3800002B03D1746270BDF468E8E7FFF74EFF0B
:103D4800F8E7C046346600206C66002010B5EFF333
:103D5800108472B6094B00209A68D37B0133D37361
:103D6800FFF7C4FF002C02D162B6BFF36F8FEFF3E9
:103D7800108072B6FFF77EFF10BDC0463466002083
:103D880070B5437BDB0602D18369002B00D070BD80
:103D9800154A1400916A2834A14200D00B00D56A54
:103DA800002B0AD00E2404570E2159568C420CDBE6
:103DB800AB4202D01B68002BF6D1130045602833B4
:103DC8000360D36A1860D06204E05A6803604260F6
:103DD800106058608023427B5B421343437300208A
:103DE800FFF784FFD3E7C0463466002010B5EFF331
:103DF800108472B6FFF7C4FF002C02D162B6BFF37D
:103E08006F8F10BD70B50500183DAB680400002B1E
:103E18001CD0EFF3108672B60300103B1868290017
:103E2800FFF746FF02220B3C2378934300222370BE
:103E3800AA60002E03D162B6BFF36F8F23781422D5
:103E4800934328002370FFF7D1FF70BD0B3C237804
:103E5800F5E7C04610B5EFF3108472B60422437B31
:103E68001A4205D1002C02D162B6BFF36F8F10BD84
:103E780093434373FFF784FF21000248FFF7EAFEEC
:103E8800F5E7C04668660020F8B5EFF3108472B60F
:103E98000D228256437B002A31DB234A97681100A2
:103EA800936A28318B423AD0D66A002B0AD00E2565
:103EB80045570E2159568D421BDBB34202D01B6871
:103EC800002BF6D11300466028330360D36A1860CC
:103ED800D0628023427B5B4213434373C01B43423F
:103EE8005841FFF703FF002C02D162B6BFF36F8F72
:103EF800F8BD5A680360426010605860E9E70A4AF2
:103F08009768B8420DD0416803680B605960002378
:103F1800110003604360936A28318B42C4D10023A7
:103F2800C2E7DB06EFD0BAE734660020194B1A4A1D
:103F380070B599681468A14217D000241460174C12
:103F48002268002A0ED0CA897F2A0BD80E25144A67
:103F58004D571268954205DB124A914202D08A6990
:103F6800002A09D000221A6170BD0C4B1B68002B77
:103F7800FAD0FFF733FEF7E71A69824202DD101A1A
:103F88001861F1E70800FFF77FFF2368002BEBD0EB
:103F9800EFE7C04634660020646600206C660020A7
:103FA800686600205C65002070B50400183000F0D9
:103FB800CBFBEFF3108572B60D22164EA256637B2B
:103FC800B068002A10DB1022201A1343637343429F
:103FD8005841FFF78BFE002D02D162B6BFF36F8FF9
:103FE800B368A34210D070BD84420AD023686268C7
:103FF80013605A60002323606360637B7F22134051
:10400800E1E7DA06F2D0F9E7EFF3108072B6FFF7CE
:1040180031FEE8E734660020F0B54646D6464F46FE
:10402800836DC0B50600002B00D0984730001830CB
:1040380000F08AFBEFF3108A72B61F221000737B20
:1040480018401A4202D1B269002A50D09A0711D5F5
:10405800354AB468110028318C425ED033687268E2
:1040680013605A60002333607360737B02229343AA
:104078000022B26008223700B46A134328377373EA
:10408800A74229D0284B0025994628234B44984617
:1040980011E02368626813605A60637B256065607D
:1040A8000222934320006373A560A566FFF768FEAC
:1040B800B46ABC4210D0002C0ED02000183000F09A
:1040C80043FBA3684345E4D14B469B68A342E0D138
:1040D800637BDA06DDD0E3E75346002B02D162B6F4
:1040E800BFF36F8F1CBC90469946A246F0BD5BB2E9
:1040F800002B09DA336871680B6059607F233260DE
:104108007260727B13407373074B9868801B43423D
:104118005841FFF7EBFD737BACE7926896429DD15F
:1041280000289BD0A2E7C046346600200D2310B5B6
:10413800C356427B002B07DB0D4B9B68C01A4342DA
:104148005841FFF7D3FD10BD094B9B6898420BD02F
:10415800026841680A605160002202604260427B46
:104168007F210A404273E9E7D106F1D0F8E7C0465B
:104178003466002010B5EFF3108472B6FFF7D6FF4F
:10418800002C02D162B6BFF36F8F10BDF8B50500E1
:1041980000F0A4FB2C18EFF3108772B60E4E0F4BED
:1041A800B26810001A60FFF7E5FFB0682A00EB1745
:1041B8000B49183000F038FA1021B2683800537BE8
:1041C8000B435373FEF786FC00F088FB201AC343A9
:1041D800DB171840F8BDC04634660020646600202E
:1041E8000D3E000070B504000D00FFF79FFF02228E
:1041F800637B13436373002D1AD02B68A5609D421F
:1042080017D0002B15D00E210E2261569A569142D6
:1042180009DB6A6893420DD01B68002B0AD00E2276
:104228009A569142F5DA5A682360626014605C60BD
:1042380070BD6A6862606B6825601C606C60F7E737
:10424800F8B5040016001D00EFF3108772B6FFF7EB
:10425800C9FF002F02D162B6BFF36F8F2B00721C0B
:1042680002D1013300D1F8BD200032002B000249F1
:10427800183000F0D9F9F6E70D3E000010B50C0033
:10428800064B11009868064B1860029A039BFFF7CB
:10429800D7FF2000FEF71EFC10BDC0463466002084
:1042A8006466002070B5EFF3108572B6FFF716FD4F
:1042B8000400002D02D162B6BFF36F8F002C15D019
:1042C800EFF3108572B62100A068FFF7F1FC022217
:1042D800637B934363730023A360002D02D162B60E
:1042E800BFF36F8F2000183000F02EFA200070BD49
:1042F800054B10B51A002832002100209A62DA62B4
:10430800FFF77EFC10BDC046346600202549264BC9
:104318008A6870B59A4236D0EFF3108472B61F20BF
:1043280005008A68537B1D40184205D15068136800
:10433800036058601560556008008B6A2830834216
:104348002DD0CE6A002B0AD00E2555570E201856B0
:1043580085421EDBB34202D01B68002BF6D10B004E
:10436800566028331360CB6A1A60CA628023517B77
:104378005B420B4301205373FFF7B8FC002C02D1BA
:1043880062B6BFF36F8FEFF3108072B6FEF7A2FB31
:1043980070BD5968136051600A605A60E6E70023EF
:1043A800CFE7C046346600205C65002010B50B00DE
:1043B8000C00421C12D0041E0DD0FFF7E7FEFA22B3
:1043C8000023C1179200FCF71FF84904C00B0143F2
:1043D8000C00200010BDFFF799FFFAE70133EAD17E
:1043E800024B9868FFF7E0FDF3E7C046346600200B
:1043F800014B98687047C04634660020002A07D0F1
:104408008A4205D38160C260006040600020704726
:1044180016204042FBE7C04670B50400EFF3108554
:1044280072B6FFF73FFF002808D000238366FFF726
:10443800DDFC29000548FFF70DFC70BDA268E368A4
:104448009B1A591E8B419B18A360F2E770660020E7
:1044580010B5010082B0EFF3108072B68C68002CA2
:104468000AD0013C8C60002804D162B6BFF36F8F7C
:1044780002B010BD0020FBE714001C4307D00092D7
:1044880001930A0001000748FFF7F8FEF0E700284B
:1044980004D162B6BFF36F8F1038E9E710204042AD
:1044A800E6E7C04670660020110010B5194302D136
:1044B800FFF7D0FC10BD0249183000F0B5F8F9E755
:1044C8000D3E0000EFF30580431E9841C0B27047CF
:1044D80010B5FEF7D3FD10BD70B5040025002835D2
:1044E800A562E56204256573002586B00D980E9EC9
:1044F800A07303900C98267302900B98E5730190B3
:104508000A98A5610090E56120000496FEF798FBE3
:10451800044B65659B68A565002B00D01B6E236660
:1045280006B070BD34660020F0B5CE464746244B31
:1045380080B59846234B87B09946984517D246468A
:10454800F76AF368B268716830680597376A049744
:10455800F7690397B76902977769019737690097F1
:10456800FFF7BAFF33685E6530364E45E8D3FFF78C
:104578008FFBC8451DD247467B6A5A1C16D0DA43C2
:10458800D2171340D9175A0CCD0315430021FA222C
:104598000D48DC039200002300196941FBF714FF62
:1045A8003E68020000233000FFF77EFF30374F459A
:1045B800E2D3FFF7CBFB07B00CBC90469946F0BDA1
:1045C800C4030020C4030020E7030000124B10B509
:1045D8001C689C4214D0114B00201B68002B17D07C
:1045E800002C13D0A368181AC343DB1718400C4BD0
:1045F8001B69002B01D0984200DC10BD1800FCE7B5
:10460800064B1B68002B01D1FEF74CFA0548EEE774
:10461800FEF748FAE4E7C0468C00002070660020E8
:1046280034660020FFFFFF7FF0B5CE4600B50700D7
:104638000E0014001D0082B0531C00D16FE001224F
:104648000023A4185D4102225242D317121BAB412A
:10465800002B4CDB394B0022994600230092019332
:104668004B461B68002B62D0354BFE6018685968B2
:1046780002225242D317121A8B41121BAB4114006B
:104688001D00009A019BA41A9D412600002D34DDCF
:10469800EFF3108472B64B461B680020002B01D143
:1046A800FEF700FA274980190B684D68B8608B42FD
:1046B80001D109E01B68002B06D09A68824226DCEB
:1046C800801AB860AB42F5D17D604B6839601F60D5
:1046D8004F600B688B4201D09F4212D0002C02D150
:1046E80062B6BFF36F8F02B004BC9146F0BD134BA6
:1046F800FE6099462600002DCADC002D13D0012645
:10470800C6E7FFF763FF0021FEF72CF9E6E7101A6A
:104718005A6898607A603B6017605F60D9E76B1CE5
:1047280000D08CE7DFE7002CB2D10126B0E7FEF716
:10473800B9F9C3170090019396E7C0467066002048
:10474800100400208C00002010B5EFF3108172B621
:104758000368002B15D00C4A5268904204D0846834
:104768009A68A44662449A60426813605A600023BB
:10477800036043600020002902D162B6BFF36F8F47
:1047880010BD16204042F6E78C00002010B5EFF36C
:10479800108472B6FFF71AFF002C02D162B6BFF37D
:1047A8006F8F10BD70B505000E00EFF3108472B660
:1047B800FFF70CFFA84205DD012803DD31002800C2
:1047C800FEF7D0F8002C02D162B6BFF36F8F70BD30
:1047D800F0B5DE46454657464E46E0B583B005007F
:1047E800FFF7A4FBEFF3108472B62E4B01941D6003
:1047F80099462D4B9A4618682C4B9B4650452ED00F
:104808000023984600282AD08168A94246DC0E0079
:104818005B46CF171A685B685C4692197B41226039
:1048280063604B466D1A1D604346426883600368A7
:1048380013605A60434603604360019B002B02D11A
:1048480062B6BFF36F8FC3689847EFF3108472B6F0
:10485800534618684B4601941D685045D2D12A002A
:104868005946EB170868496812184B4159460A60BF
:104878004B6000234A461360FFF7A8FE0021FEF7AD
:1048880071F8019B002B02D162B6BFF36F8F03B0A2
:104898003CBC90469946A246AB46F0BD491B816098
:1048A800DDE7C046706600208C0000201004002060
:1048B80010B5EFF3108472B6FEF7F4F80023020087
:1048C80005490868496880185941002C02D162B628
:1048D800BFF36F8F10BDC0461004002010B5FFF75E
:1048E800E7FF10BD030030B5EFF3108472B61D6802
:1048F80000208D4201D11A600130002C02D162B62D
:10490800BFF36F8F30BDC04670B5094C094DAC423E
:104918000BD223000C332000A2686168E360236196
:104928001434FDF711FEAC42F3D3002070BDC0462D
:10493800C4030020C40300207047C046044B10B5D0
:104948001B68002B02D0034A1068984710BDC04668
:10495800746600207866002010B500F07FFDFEF731
:1049680059F910BD10B500F0D1FAFEF753F910BD92
:1049780010B5002200210820FEF712F900220021BC
:104988000120FEF70DF9002202211420FEF708F994
:10499800002202210220FEF703F900F01FFC00F0BC
:1049A800CFFB00F02BFB00F0ABFB00F0B5FB00F0F9
:1049B800BDFB00F0EBFC0022C521FF20064B89005F
:1049C8001A60064A53588343BF3803435350802321
:1049D8005B03136010BDC0467466002000E100E070
:1049E800002303707047C0460200EFF3108172B6CF
:1049F800037858424341D8B201231370002900D1EB
:104A080062B67047EFF3108372B600220270002B73
:104A180000D162B67047C046024B1860024B0020B6
:104A28001960704774660020786600208023802112
:104A3800024A5B004903D1507047C04600E100E0DC
:104A480003000020022B02D8014A9B0098187047E7
:104A580000F0004030B5A0240225074BE4001D51AA
:104A680008341851054C06481C5006481950A22114
:104A7800C9005A5030BDC04600F000407C66002096
:104A8800140500000C05000082220021044B52008E
:104A980099500449043AFF3A5A501A607047C04680
:104AA80000F0004004050000002803D0024A136803
:104AB800002BFCD07047C04604F100408222064B10
:104AC80052009A580020002A05D08022D200985817
:104AD800431E9841C0B2704700F0004020280DD80E
:104AE800002809D0202807D8124B80001B589F4661
:104AF800114870471148FCE70020FAE780280FD0DA
:104B080080235B00984201D10D48F2E74038431EEC
:104B180098410C4B404218400B4B9C466044E8E7D8
:104B28000A48E6E70A48E4E70A48E2E70A48E0E70D
:104B38000A48DEE7805D00000411004000110040D3
:104B480028110040E8EEFFBF181100401C1100407A
:104B580014110040081100400C11004010110040D1
:104B680070B5041E05D0164900F0B4FB154B18703B
:104B780070BD144B187800F0DDFBAA22124BD2004E
:104B88009A58002AF4D08022C22010259200800072
:104B980099581D509C50F03A9C50103AFF3A1A61AF
:104BA8000A4A1368002BFCD088220020064B5200CA
:104BB8009850F032995010210532FF329950D7E7BA
:104BC8001010004080030020001000401011004029
:104BD80010B5002805D00F4900F07CFB0E4B18706B
:104BE80010BD80220D4B5200985004329850043268
:104BF8009850043298500432985004329850043235
:104C08009850043298500C329850024B283AFF3A88
:104C18001A60E5E7041000408103002000100040FE
:104C2800F8B5022180231D4AD150BFF34F8FBFF33F
:104C38006F8F002401251A4B1A4E13279C519D5142
:104C48008026B6009F51184E9C51184E9C51A624A0
:104C5800E4001D51C1240F35A4001D51C0235B0081
:104C6800D150043C1359124D2B4013511160114B74
:104C7800114E1860307800F05DFB104D287800F078
:104C880059FB0F4C207800F055FB0E490E4800F0F8
:104C9800B5FAFF2330702B702370F8BD00E100E0F7
:104CA80000100040FC0F00000C0500002C0500005F
:104CB800FF00FFFF886700207F030020800300209B
:104CC8008103002010100040181100404342584151
:104CD8000A4BA2219C46FF2310B503241340084A1F
:104CE80040421A43074BC90000045C50000C0649B7
:104CF8006044585004315A5010BDC04606010200A5
:104D08000000030200100040140500000120704755
:104D180080220820024992008B5803438B50704729
:104D2800001000408023034A9B00D0580007C00FA2
:104D38007047C046001000408022082002499200B7
:104D48008B5883438B50704700100040282110B5C2
:104D5800FBF72CFA0C4BC9B219700B00253BDBB2E0
:104D6800022B08D8094AD35CA120094AC000135075
:104D7800084BD15010BD0A238B429B418A1C5B42D1
:104D88009B185B00DBB2EFE7E9680020045E0000D7
:104D98000010004054050000014B18787047C046C9
:104DA800E9680020A923024ADB00D058C0B2704746
:104DB8000010004002780749074BCA5043788278B0
:104DC8001B0612041343C27812021343034A8B5082
:104DD8007047C04600100040240500001C05000074
:104DE800074B084A9A580270074A9958090E4170A9
:104DF8009958090C81709B581B0AC3707047C046AC
:104E080000100040240500001C0500000421084A89
:104E1800084BFF31D15008490433D1508378417889
:104E28001B0409020B4301780B4304495350704794
:104E380000100040340500005B0600003C0500003F
:104E48008023044ADB00D058013843425841C0B29D
:104E58007047C04600100040054A064BD158017003
:104E6800D158090A4170D3581B0C83707047C0464B
:104E7800001000400C04000010B50C784B78CA787C
:104E880024021C438B7812021A430B7900021B047C
:104E98001A434B79C0211B0613430A4AC9001BBA9F
:104EA8005350C423DB00D45080235B001840FF3BE1
:104EB8001843C823DB00D050034B187800F0E4F9FE
:104EC80010BDC046001000407F03002010B5054B00
:104ED800187800F009FAC8230021034ADB00D150F2
:104EE80010BDC0467F03002000100040014A024B5D
:104EF800D05070470010004004050000014A024BE2
:104F0800D05870470010004004050000882370B591
:104F1800364C5B00E358002B00D170BD344E30781E
:104F280000F008FA334D287800F004FAFF233370B4
:104F38002B700133E058431E984182235B00E358ED
:104F4800002B01D0022318438423284A5B00D3583E
:104F5800002B01D0042318438623244A5B00D3582E
:104F6800002B01D0082318438823204A5B00D3581C
:104F7800002B01D0102318438A231C4A5B00D35806
:104F8800002B01D0202318438C23184A5B00D358E8
:104F9800002B01D0402318438E23144A5B00D358BA
:104FA800002B01D0802318439423104A5B00D35868
:104FB800002B02D080235B001843802100220B4B7A
:104FC80049005A5004315A5004315A5004315A5049
:104FD80004315A5004315A5004315A5004315A504D
:104FE8000C315A50044B1B68984796E70010004054
:104FF800800300208103002088670020074B084AAF
:1050080019001360074A103111601900064A20314F
:1050180011600649064A8B507047C04694670020C5
:10502800C4670020906700208C67002000E00040E3
:1050380004050000F8B50400174B16001868102284
:1050480000F0B0FB154B10221868210000F0AAFBF5
:10505800002280248220944600250127104B6400FA
:1050680040001D511D501F6002E01958002902D14F
:1050780019590029F9D01A58012A0AD0802200218A
:1050880052009950074B30001968F03A00F08AFB3B
:10509800F8BD62461A50E4E790670020C467002014
:1050A80000E000408C67002010B51000FFF7B4F94D
:1050B80010BDC046002370B588B001930F4B04AEF5
:1050C80004000D0002930396012200213000FFF72F
:1050D80095F9A3689B68002B0DD02900200001AA30
:1050E8009847002805D101225242D3173000FFF714
:1050F800AFF908B070BD23204042FAE7B150000074
:1051080010B50348FEF758FC024B186010BDC046A6
:10511800D05C0000C867002010B5034B0021186858
:10512800FFF7C8FF10BDC046C867002010B5034B85
:1051380001211868FFF7BEFF10BDC046C8670020F0
:105148000822FF2110B50B48FDF73EFFA023A3213D
:105158008020A122DB05C9008003D2005850985056
:105168008020C00358509850802000045850985010
:1051780010BDC046CC670020044BA0211A5C012357
:105188009340034AC9058B507047C046085E00002B
:105198000C050000044BA0211A5C01239340A122B6
:1051A800C905D2008B507047085E0000A022084B4A
:1051B800D205D158074B10B5185C012383401C0059
:1051C800A1208C430B400449C0001450535010BD1B
:1051D80004050000085E00000C05000010B5C022A0
:1051E80000210448FDF7F0FE202200210248FDF7C7
:1051F800EBFE10BDD46700209468002030B5040091
:105208001C480022030003E001320C330C2A11D0A1
:105218001D68AC42F8D15D68A942F5D11D7A002D10
:10522800F2D153009B189B00C0180123143203725B
:10523800D0B209E00023104A1078002805D00133C5
:105248000C32102BF8D1FF2030BD5A000B48D21871
:10525800920014508218012051601072084AD8B286
:105268009446A222DB006344D2009C50054A995020
:10527800EAE7C04694000020DC670020D4670020DD
:1052880000F00140140500000300143BDBB20B2BB7
:105298000DD85A00D3180B4A9B00D3181B7A002B41
:1052A80005D0012383400849084A8B5070470F28CE
:1052B800FCD84300064A1B189B00D3181B7A002B06
:1052C800F4D0EEE79400002000F00140040500004F
:1052D800D467002010B5FFF791FF0400FF2801D024
:1052E800FFF7D2FF200010BD0300143BDBB20B2BED
:1052F8000ED85A00D3180C4A9B00D3181B7A002BDF
:1053080006D00123A12283400849D2008B50704760
:105318000F28FCD84300064A1B189B00D3181B7A99
:10532800002BF4D0EDE7C0469400002000F00140C7
:10533800D467002010B50400FFF7D6FF2200143A06
:10534800D1B20B290ED84B000E485B189B00C3182E
:105358001B7A002B06D053009B1800229B00C31811
:105368001A7210BD0F2CFCD8600007490419A4005C
:105378000B191A7A002AF4D0002262505A601A7265
:10538800EFE7C04694000020D467002070B5802560
:105398008023134C6D00E550BFF34F8FBFF36F8F21
:1053A800104E042200213000FDF70EFE01230122D9
:1053B80000215B42336003260B4B0C485A60DA60CD
:1053C800195004301E50083001361E5080208000CD
:1053D80019508131FF31655025601A6070BDC04693
:1053E80000E100E0B46800200080004004050000EF
:1053F800A02210B50024064B8000C31852009C5010
:10540800A822D2009950034B9C46604410BDC04668
:105418000080004040810040F8B50A4B0A4F9C4686
:1054280086000400385C0D006644FFF783FF002DFA
:1054380005D031002800FFF74DFF3855F8BD01238E
:105448003360FBE740800040B46800205130024BD5
:10545800FF308000C0587047008000407047C04649
:10546800F0B5C646A12300B51E4D1F4C2A78DB00B7
:10547800E2506A781D4B8E27E250AA780433E25036
:10548800EA781B4B0026E25084237F005B00E6503D
:10549800E651687912219846FAF788FE154BC9B289
:1054A8008900CA58144B8021E2502A79134B1448BA
:1054B800E250C12304229B00E250E150FD33FF3348
:1054C800E2504346E650E651C0240E4BA400195959
:1054D8000840C0210904014319511A6004BC9046D0
:1054E800F0BDC046C4680020002000400C05000044
:1054F800140500000C5E0000240500006C05000087
:10550800FFFF00FF00E100E070B50D00140001008E
:1055180006220948FDF714FD084B1D60084B1C6066
:10552800FFF79EFF0122C1210420064B89001A7053
:10553800054B58501A6070BDC4680020CC68002024
:10554800D0680020ED6800200020004070B50124DC
:10555800154B16491870164B1A6893680B60154B53
:105568001C70154C2478002C02D11C78002C00D11A
:1055780070BD55680C68D66861006A005208490811
:105588008A420FD3A5420DD071188A1A002AEFD18A
:105598001A700A4B0A495871A023DB00CA50FFF75A
:1055A8005FFFE5E78A1AF1E7EC680020C068002091
:1055B800D0680020EB680020EE680020C468002056
:1055C80000200040C123802230B50D4C9B000D4DBA
:1055D800E2502B7883B0002B01D003B030BD0A4BCA
:1055E80018686B46D91D00F089F90028F5D06B467C
:1055F800DA79064BE2500123A3602B70EDE7C04631
:1056080000200040EE680020D06800201C05000043
:105618000122C1210420034B89001A70024B585003
:105628001A607047ED68002000200040014B187890
:10563800C0B27047ED680020F0B5C6468E2300B5AD
:10564800424A5B00D15882B0002913D00021D150C2
:105658003F4A1378002B4AD13E4B1C686B4620000A
:10566800D91D00F04BF900283ED06B46374AD9794E
:10567800394BD1508423354A5B00D158002903D0D7
:10568800364C217800290BD19223304A5B00D1583F
:10569800002901D00021D15002B004BC9046F0BDD1
:1056A80000212F4DD1502B78002B3ED02D4B2E4E64
:1056B8009846A323254FDB00F95843462B4AC9B225
:1056C8001970136830680133136000F09DF8287072
:1056D800306800F079F80028D6D000232370C22360
:1056E80004229B00FA50CFE7214B1870C2E7194BF0
:1056F8001C68204B656818686B004100E6685B0809
:1057080049088B4220D385421ED07118CB1A002B32
:10571800A4D11370184A1178184A5171A0220B4964
:10572800D2008B50FFF79CFE98E70E4B0E4E19786F
:105738003068984600F068F828700028B9D1104AF7
:10574800136801331360B4E7CB1AE0E70020004088
:10575800EB680020D06800201C050000ED680020E0
:1057680082030020EA680020CC680020BC68002082
:10577800EE680020C0680020EC680020C4680020A3
:10578800B868002000290AD00023411802780130A7
:1057980013438842FAD158425841C0B27047012099
:1057A800FCE7C046002A08D0013A8A18137803702B
:1057B80013000130013A9942F8D170470023436041
:1057C8000160C260836070474368826810B500203A
:1057D800590054008C4203D19B1A581E8341D8B2F9
:1057E80010BDC04610B5C1684468806863004200B7
:1057F8005B085208934204D3844202D08A18D01A14
:1058080000E0D01A081A10BD70B545688268030018
:1058180050006E004408864209D018680155D968BE
:105828000134A14207D0013201209A6070BD0020E6
:105838009542FBD1F1E7D243D20FD207F4E7C04635
:10584800F0B54F464646D646C368C0B5160042680E
:10585800876899467C005300050088465B08640801
:105868009C420AD8BA4208D04A461219D31A4A4664
:10587800D31AB34206D200201DE04A46E31AD31ACF
:10588800B342F8D3131B9A462B681819564517D9F3
:1058980052464146FDF754FB4B464146E21A9219DF
:1058A80028685144FDF74CFBEA68131B9E420FD24F
:1058B800BE190120AE601CBC90469946A246F0BDB8
:1058C80032004146FDF73CFBEA68131B9E42EFD3CA
:1058D800FF43A41AFF0FA619FF073E43E9E7C04696
:1058E800826843689A4206D0026801205B005B0820
:1058F800D35C0B7070470020FCE7C04683684268A1
:1059080010B5934210D0046853005B08E45C01337F
:105918000C70C468511C9C4202D04160012010BD2B
:10592800D143C90FC907F8E70020F8E770B50D00A3
:10593800040004220021FDF747FBA56070BDC046A6
:105948004168002913D003680220591807E0BC2ACF
:1059580008D0CD2A06D0013301308B4206D01A7800
:10596800AB2AF4D1013302308B42F8D170470220C0
:10597800FCE7C046F8B54B680E00002B22D0002289
:105988000124CD27114909E0BC2B0BD0CD2B09D020
:105998000B5573680132013493420CD933689B5C10
:1059A800AB2BF1D1651C01330F554B557368013290
:1059B80002349342F2D8621CBC230B558068FFF76F
:1059C8003FFFF8BD022201240049F5E72401002029
:1059D8008023F0B54746CE465B009846FF3B80B52E
:1059E80005000E000027994683B06B46A868D91DAC
:1059F800FFF776FF041E1DD06B466C78DB79002C10
:105A08002BD0AB2B31D0BC2B43D06A6871688A424B
:105A180008D0297800292CD0AC2B11D0BD2B0FD061
:105A2800CE2B0DD06B46A8686F70D91DFFF758FFB5
:105A3800041EE1D1200003B00CBC90469946F0BD8D
:105A48003168013B8B546B68A86801336B606B4607
:105A58002F70D91DFFF752FFC7E7AB2B05D06B4658
:105A6800A868D91DFFF74AFFBFE743466F602B8040
:105A7800F5E7CD2B05D031688B546B6801336B602B
:105A8800EDE74B462B706B46A868D91DFFF736FF2C
:105A9800ABE700236B706B46A868D91DFFF72EFF94
:085AA8006B687360C6E7C0469D
:085AB000B0A9FF7F0100000016
:105AB800453000000000000011490000000000000F
:105AC800D9270000840300206938000094030020CF
