:1000000050F400207D340000E1330000AD340000E6
:10001000AD340000AD340000AD340000000000003D
:10002000000000000000000000000000A1320000FD
:10003000AD3400000000000059320000A52F000080
:100040003D340000695600003D3400003D3400009E
:100050003D3400003D3400003D3400003D340000DC
:100060004D5600003D3400003D3400003D3400009A
:100070003D3400003D3400003D3400003D340000BC
:100080003D3400003D3400003D3400003D340000AC
:100090003D3400003D3400003D3400003D3400009C
:1000A0003D3400003D3400003D3400003D3400008C
:1000B0003D3400003D3400003D3400003D3400007C
:1000C0003D3400003D3400003D3400003D3400006C
:0C00D0003D3400003D3400003D340000D1
:1000DC0053B94AB9002908BF00281CBF4FF0FF31A3
:1000EC004FF0FF3000F06CB9ADF1080C6DE904CEA7
:1000FC0000F006F8DDF804E0DDE9022304B07047F7
:10010C002DE9F047089E0D4604468E46002B40F024
:10011C0082808A42174646D9B2FA82F24AB1C2F1BB
:10012C00200105FA02F320FA01F1974041EA030E8F
:10013C0094404FEA1748230CBEFBF8FCB9B208FBFD
:10014C001CEE43EA0E430CFB01F098420AD9FB1853
:10015C000CF1FF3580F01681984240F21381ACF11E
:10016C00020C3B441B1AA4B2B3FBF8F008FB10338F
:10017C0044EA034400FB01F1A14209D93C1900F106
:10018C00FF3380F00181A14240F2FE8002383C44F2
:10019C00641A40EA0C4000211EB1D4400023C6E989
:1001AC000043BDE8F08702B9FFDEB2FA82F2002A02
:1001BC004FD1CB1B4FEA174E1FFA87F80121B3FB27
:1001CC00FEFC250C0EFB1C3345EA034508FB0CF327
:1001DC00AB4207D97D190CF1FF3002D2AB4200F2D1
:1001EC00E7808446ED1AA3B2B5FBFEF00EFB10556A
:1001FC0043EA054408FB00F8A04507D93C1900F177
:10020C00FF3302D2A04500F2D7801846A4EB0804B5
:10021C0040EA0C40C0E78B4208D9002E00F0AF80BA
:10022C000021C6E900050846BDE8F087B3FA83F162
:10023C0000294BD1AB4202D3824200F2B780841A20
:10024C0065EB030301209E46002EAAD0C6E9004EA2
:10025C00A7E7C2F1200C01FA02F3974020FA0CF048
:10026C004FEA174E21FA0CFC1843BCFBFEF1050CAF
:10027C000EFB11CC1FFA87F845EA0C4501FB08F37D
:10028C00AB4204FA02F409D97D1901F1FF3C80F06C
:10029C008B80AB4240F2888002393D44EB1A85B228
:1002AC00B3FBFEF00EFB103345EA034500FB08F3ED
:1002BC00AB4207D97D1900F1FF3C71D2AB426FD92B
:1002CC0002383D44EB1A40EA014178E7C1F1200CB9
:1002DC008B4022FA0CF71F4320FA0CF405FA01F3B9
:1002EC004FEA174E25FA0CF51C43230CB5FBFEF90F
:1002FC001FFA87F80EFB195543EA054509FB08FA66
:10030C00AA4502FA01F200FA01F308D97D1909F1A4
:10031C00FF3047D2AA4545D9A9F102093D44A5EBC6
:10032C000A05A4B2B5FBFEF00EFB105544EA0544D9
:10033C0000FB08F8A04507D93C1900F1FF352DD278
:10034C00A0452BD902383C4440EA0940A4EB0804F0
:10035C00A0FB02894C45C6464D4619D316D05EB15A
:10036C00B3EB0E0264EB050404FA0CFCCA404CEA35
:10037C000202CC40C6E900240021BDE8F0873146DA
:10038C0030460EE7AC46EDE6184601E74345E6D2AB
:10039C00B8EB020E69EB07050138E0E72846D3E716
:1003AC0060468FE78146BAE7614677E708464BE738
:1003BC00ACF1020C3D4415E702383C4426E700BF83
:1003CC00704700BF70B491E87800B2E802105B1877
:1003DC0054EB0C04B2E802104D4156EB0C0680E8CD
:1003EC0078008041013070BC704770B491E878009F
:1003FC00B2E802105B1A74EB0C04B2E802108D41E7
:10040C0076EB0C0680E878008041404270BC704767
:10041C002DE9F00791E8F807B2E802105B1854EBED
:10042C000C04B2E802104D4156EB0C06B2E8021077
:10043C004F4158EB0C08B2E8021059EB01095AEB8A
:10044C000C0A80E8F80780410130BDE8F0077047DE
:10045C002DE9F00791E8F807B2E802105B1A74EB8B
:10046C000C04B2E802108D4176EB0C06B2E80210D7
:10047C008F4178EB0C08B2E8021079EB01097AEBAA
:10048C000C0A80E8F80780414042BDE8F00770474D
:10049C002DE9F007524290E87800B1E88007174048
:1004AC00DB1918EA020854EB080419EA020955EBA7
:1004BC0009051AEA020A56EB0A0678C090E8780099
:1004CC00B1E8800717407B4118EA020854EB080496
:1004DC0019EA020955EB09051AEA020A56EB0A0653
:1004EC0078C080410130BDE8F00770472DE9F00776
:1004FC00524290E87800B1E880071740DB1B18EAFD
:10050C00020874EB080419EA020975EB09051AEAEA
:10051C00020A76EB0A0678C090E87800B1E880070A
:10052C001740BB4118EA020874EB080419EA0209E7
:10053C0075EB09051AEA020A76EB0A0678C08041C7
:10054C004042BDE8F007704790E8300091E8C000E9
:10055C00A31B1340E41AF618EB1B1340ED1AFF18FB
:10056C0030C0C0C17047F0B55242FFF7EDFFFFF746
:10057C00EBFFFFF7E9FFFFF7E7FFF0BD2DE9F00711
:10058C003AC91668A1FB069A4FF0000CE3FB06ACC7
:10059C004FF00007E4FB06C74FF00008E5FB0678B8
:1005AC0040F8049B56684FF00009E1FB06A9E3FBF9
:1005BC0066C9E4FB6679E5FB668940F804AB96688E
:1005CC004FF0000AE1FB06CAE3FB667AE4FB668A9D
:1005DC00E5FB669A40F804CBD6684FF0000CE1FBC3
:1005EC00067CE3FB668CE4FB669CE5FB66AC80E872
:1005FC008017BDE8F00770470A462DE9F04F92E8E6
:10060C00F00F2DE9F30F87B01EC90998A1FB0078F4
:10061C004FF00009E2FB00894FF0000AE3FB009A5F
:10062C004FF0000BE4FB00AB0D984FF0000CE1FB1E
:10063C0000BC4FF0000EE2FB00CE4FF00005E3FBD8
:10064C0000E54FF00006E4FB005600970A984FF0C7
:10065C000007E1FB0087E2FB6097E3FB60A7E4FB8C
:10066C0060B70E98E1FB60C7E2FB60E7E3FB605705
:10067C00E4FB6067CDF804800B984FF00008E1FBB9
:10068C000098E2FB60A8E3FB60B8E4FB60C80F983D
:10069C00E1FB60E8E2FB6058E3FB6068E4FB607838
:1006AC00CDF808900C984FF00009E1FB00A9E2FB93
:1006BC0060B9E3FB60C9E4FB60E91098E1FB6059A9
:1006CC00E2FB6069E3FB6079E4FB6089CDF80CA088
:1006DC00089901F110011EC909984FF0000AE1FBBD
:1006EC0000BAE2FB60CAE3FB60EAE4FB605A0D98D7
:1006FC00E1FB606AE2FB607AE3FB608AE4FB609AF0
:10070C00CDF810B00A984FF0000BE1FB00CBE2FBE8
:10071C0060EBE3FB605BE4FB606B0E98E1FB607BE2
:10072C00E2FB608BE3FB609BE4FB60ABCDF814C099
:10073C000B984FF0000CE1FB00ECE2FB605CE3FB80
:10074C00606CE4FB607C0F98E1FB608CE2FB609CCE
:10075C00E3FB60ACE4FB60BCCDF818E00C984FF008
:10076C00000EE1FB005EE2FB606EE3FB607EE4FBEF
:10077C00608E1098E1FB609EE2FB60AEE3FB60BE16
:10078C00E4FB60CE079800F11C0181E8E05FBDE856
:10079C00F80380E8F8030AB0BDE8F08F30B44FF0EE
:1007AC00000310F8014B11F8015B013A84EA0504CF
:1007BC0043EA0403F5D1A3F101034FEAD37030BC33
:1007CC0070474FF0000310F8012B013943EA020384
:1007DC00F9D1A3F101034FEAD370704711F8013B33
:1007EC0000F8013B013AF9D17047002200F8012BC7
:1007FC000139FBD1704700BF2DE9F00791E8F807EC
:10080C00B2E802105B1854EB0C04B2E802104D4134
:10081C0056EB0C06B2E802104F4158EB0C08B2E84C
:10082C00021059EB01095AEB0C0A8941B3F1FF3361
:10083C0074F1FF3475F1FF3576F1000677F100079E
:10084C0078F1000879F101097AF1FF3A51F10001D0
:10085C004A425B184C414D4156F1000657F10007D6
:10086C0058F1000859EB02095AEB010A80E8F80725
:10087C00BDE8F00770472DE9F00791E8F807B2E8FA
:10088C0002105B1A74EB0C04B2E802108D4176EB8B
:10089C000C06B2E802108F4178EB0C08B2E802109B
:1008AC0079EB01097AEB0C0A89414A425B184C41FD
:1008BC004D4156F1000657F1000758F1000859EB6D
:1008CC0002095AEB010A80E8F807BDE8F007704707
:1008DC000A462DE9F04F92E8F00F2DE9F30F87B09F
:1008EC001EC90998A1FB00784FF00009E2FB0089B2
:1008FC004FF0000AE3FB009A4FF0000BE4FB00AB57
:10090C000D984FF0000CE1FB00BC4FF0000EE2FB29
:10091C0000CE4FF00005E3FB00E54FF00006E4FBD2
:10092C00005600970A984FF00007E1FB0087E2FBA6
:10093C006097E3FB60A7E4FB60B70E98E1FB60C730
:10094C00E2FB60E7E3FB6057E4FB6067CDF80480F3
:10095C000B984FF00008E1FB0098E2FB60A8E3FB6A
:10096C0060B8E4FB60C80F98E1FB60E8E2FB6058FC
:10097C00E3FB6068E4FB6078CDF808900C984FF0CE
:10098C000009E1FB00A9E2FB60B9E3FB60C9E4FBF1
:10099C0060E91098E1FB6059E2FB6069E3FB607968
:1009AC00E4FB6089CDF80CA0089901F110011EC977
:1009BC0009984FF0000AE1FB00BAE2FB60CAE3FBC6
:1009CC0060EAE4FB605A0D98E1FB606AE2FB607A36
:1009DC00E3FB608AE4FB609ACDF810B00A984FF004
:1009EC00000BE1FB00CBE2FB60EBE3FB605BE4FBA9
:1009FC00606B0E98E1FB607BE2FB608BE3FB609B22
:100A0C00E4FB60ABCDF814C00B984FF0000CE1FB8D
:100A1C0000ECE2FB605CE3FB606CE4FB607C0F9839
:100A2C00E1FB608CE2FB609CE3FB60ACE4FB60BC34
:100A3C00CDF818E00C984FF0000EE1FB005EE2FBE5
:100A4C00606EE3FB607EE4FB608E1098E1FB609EC1
:100A5C00E2FB60AEE3FB60BEE4FB60CEDDE90423A9
:100A6C00069C12EB0A0253EB0B0354EB0C0455EBF4
:100A7C000E05002040F1000012EB0B0253EB0C03AF
:100A8C0054EB0E0455EB0E0546410020474158EB44
:100A9C00000859EB0A0940F10000B2EB0E0273F1A9
:100AAC00000374F1000475EB0A0576EB0B0677EB8B
:100ABC000C0778EB0A0879EB0C0960F10000B5EB38
:100ACC000B0576EB0C0677EB0E0778EB0B0879EB46
:100ADC000E0960F100005FEAE07C7FEA0C0CDCF1AF
:100AEC00000EB2EB0C0273EB0C0374EB0C0475F1FF
:100AFC00000576F1000677F1000778EB0E0879EB2C
:100B0C000C0960F100005FEAE07CDCF1000E12EBF6
:100B1C000C0253EB0C0354EB0C0455F1000556F18D
:100B2C00000657F1000758EB0E0859EB0C0940F181
:100B3C0000005FEAE07CDCF1000E12EB0C0253EBE0
:100B4C000C0354EB0C0455F1000556F1000657F15B
:100B5C00000758EB0E0859EB0C09DDE900ABDDE999
:100B6C0002011AEB060A5BEB070B50EB080051EB8A
:100B7C0009015FF0000C4CF1000C1AEB070A5BEB5F
:100B8C00080B50EB090051EB090152EB0C025FF022
:100B9C00000C53EB0C0354EB0C0475414CF1000CA2
:100BAC00BAEB090A7BF1000B70F10000B141BA41BC
:100BBC0073EB0803B44175EB08056CF1000CC91B11
:100BCC0072EB080273EB0903BC4175EB09056CF180
:100BDC00000C5FEAEC787FEA0808D8F10009BAEB60
:100BEC00080A7BEB080B70EB080071F1000172F145
:100BFC00000273F1000374EB090475EB08056CF14A
:100C0C00000C5FEAEC78D8F100091AEB080A5BEBF0
:100C1C00080B50EB080051F1000152F1000253F1A6
:100C2C00000354EB090455EB08054CF1000C5FEA8A
:100C3C00EC78D8F100091AEB080A5BEB080B50EBC7
:100C4C00080051F1000152F1000253F1000354EB82
:100C5C00090455EB0805079FA7E8000C87E83F003F
:100C6C0011B0BDE8F08F00BF10B586B004F004FDE4
:100C7C0000F026FD00F0D6F900F062F800F05AF80A
:100C8C0000F0FCFE00F000FE00F05AF8543001F0C9
:100C9C00FFF900240720172814D8DFE800F03813D8
:100CAC0013131313133113131313292613131313C1
:100CBC0013221313130C204602A900F067FE02A89E
:100CCC0000F08CFF00F006FD18B100F0E1FD00F023
:100CDC0021FD00F02FFE04460028F3D000F03CFE6E
:100CEC00D9E7204600F0A4FDECE700F083FDE9E72E
:100CFC00204602A900F044FE02A801F079FCE1E7CD
:100D0C0001F07EFC00F0F0F900F024FADAE720465E
:100D1C000DF1060202A90DF1070300F01FFE00F011
:100D2C00E3F99DF806109DF8070002AA00F04AFAB4
:100D3C00C8E700BF4FF4EA72002102F0EFBD00BF1C
:100D4C000048704750040020F8B50D4E37689FB12D
:100D5C000D46044600F01CFF0146384600F02AFE02
:100D6C00084B306819681D60611A283900F018FEAC
:100D7C00BDE8F84000F0E0BCBDE8F84000F054BE1F
:100D8C00300700202407002010B50446002004F092
:100D9C0069FD04F16801022005F0BEF904F0A4FD20
:100DAC0004F1CD01002005F0B7F9BDE8104004F0C6
:100DBC0059BD00BF08B5002005F09AF8002004F0DA
:100DCC0051FD00F0F9FE04F07DFEBDE80840002066
:100DDC0004F08ABD2DE9F04FDFF8988183B0074607
:100DEC000D46FFF7ADFFD8F800308246002B00F01F
:100DFC00A7805C4EFFF7A4FF32788346002A74D19B
:100E0C0090F83390002349FA03F414F0010440F0F5
:100E1C00A6800133082BF6D1019204F0CFFC019A85
:100E2C00002840F08480DBF8D031597800290CBFC1
:100E3C00082100214C4B01911B78520042EA83029D
:100E4C00144304F0B9FE0199BBF8022064B20C43C0
:100E5C000443E1B2D8F8000000F032FD434BD8F85F
:100E6C00000019681D60B9F1020FA7EB01070CBF58
:100E7C0018212821791A00F093FD00F05DFCDAF8B6
:100E8C00D0311B7803F00303032B63D09AF80430A2
:100E9C00002B4ED13178DAF8D0010AF1540201F06E
:100EAC00C3F9337883F0010333700BB39AF83260D3
:100EBC0004F0F6FD044610B3022E35D0C4350921DA
:100ECC002944002005F028F904F0CCFC01F04AF884
:100EDC00A0F19C01032005F01FF904F0F7FC244B52
:100EEC0008221A7003B0BDE8F08F90F8329089E7B1
:100EFC009AF8336004F0D4FD04460028DCD105F1E7
:100F0C006801022005F008F9174B1B78002B0CBF69
:100F1C00FB22FF2207463146204604F07FFD38466F
:100F2C0004F0E2FC022EC9D1B4350521C8E7082132
:100F3C0080E73178504601F03DFD8AF80500A9E7BD
:100F4C0000F072FDDAF8D031064E1B7803F0030383
:100F5C00032B9BD13178504601F042FD96E71C01E2
:100F6C0064B259E79E03002038F0002024070020CB
:100F7C0039F00020300700202DE9F84300F0BEFBCB
:100F8C00204A106000283AD000F080FC04461E4B2A
:100F9C001B782BB3FFF7D4FE1C4B1B78054643BBC9
:100FAC001B4A90F83370D2E900891A4E1A483376EE
:100FBC00C6E9048904F048FE22461749304604F07D
:100FCC00C5FB288B00F05EFF80F00101C9B23846EA
:100FDC0004F0D0FBFFF7B4FEC0F8D041BDE8F883B5
:100FEC00204604F031FEFFF7ABFEC0F8D041BDE85F
:100FFC00F8830A4A90F83270D2E90089D5E7084C98
:10100C00C5E700BF3007002038F000209E03002009
:10101C004004002010040020240600203804002086
:10102C0034070020084B10B5002202201A7004F07F
:10103C00D1FB0446012004F07FFB0146204604F05E
:10104C007BFF024B187010BD39F0002034F00020EB
:10105C0038B5114C0D4610220146204605F0B2FB66
:10106C002946082204F1190002F024FC0B4B0C4A0F
:10107C001B780C490C4D1078237600220023C4E910
:10108C000423C5E90023C1E9002304F099FF074BB1
:10109C0001221A7038BD00BF100400209E030020EE
:1010AC0034F00020380400204004002038F00020E8
:1010BC0008B5044B187804F0B1FF034B00221A70EA
:1010CC0008BD00BF34F0002038F00020044805496A
:1010DC0000220023C0E90023C1E90023704700BFB0
:1010EC00400400203804002070B5134D2B78FBB958
:1010FC0004F09CFD04F0DCFC104B114E187804F04D
:10110C008DFF104B1049002400221C702046002338
:10111C00C1E90023C6E9002304F0DEFE012004F03F
:10112C00DBFE0A490A4B2C7001220C601A7070BD50
:10113C00002004F097FBDBE739F0002034F00020AE
:10114C004004002038F00020380400203007002034
:10115C009E03002008B5FFF7C7FF164804F0FCFB00
:10116C00012004F0E7FB01212522084604F056FC7F
:10117C0000F018FD04F0A6FC0F4804F005FD0F4824
:10118C0004F0DAFC022004F025FB0146002004F0F8
:10119C00D5FF082004F01EFB0146012004F0CEFF11
:1011AC00002004F0A1FBFFF7E7FE054B01221A70AB
:1011BC0008BD00BF891400000C7400000874000006
:1011CC0039F000202DE9F0410E4615460446FFF794
:1011DC008BFF1F48DFF890801E4F04F0BDFB0120F1
:1011EC0004F0A8FB01210846252204F017FC00F0AE
:1011FC00D9FC04F067FC184804F0C6FC174804F04E
:10120C009BFC174B3E700622294640461C7002F090
:10121C0051FB4146387804F0EBFC04F037FC02201B
:10122C0004F0D8FA0146002004F088FF082004F0EE
:10123C00D1FA0146012004F081FF002004F054FB98
:10124C00FFF79AFE074B04221A70BDE8F08100BF2D
:10125C008914000035F000200C74000008740000A4
:10126C0037F0002039F000202807002070B500204E
:10127C0004F03EFE002004F0F5FAFFF761FD438810
:10128C00013343800446FFF75BFD01F047FC294B1B
:10129C0001221A7000F0D6FE18B9237953B1637984
:1012AC0043B1254A254B11781878254ABDE8704082
:1012BC00FFF788BF608800F0DFFC04F003FC214BD3
:1012CC0094F832501B78002B0CBFFB22FF222946CE
:1012DC00002004F0A3FB00F045FEA0F1280600F06E
:1012EC0069FE022D1CD02830092505443146022008
:1012FC0004F012FF29460646002004F00DFF0546B7
:10130C00304604F0F1FA284604F0ACFA208B00F0D9
:10131C00B9FD40B104F0BAFB0B4B07221A7070BD3B
:10132C0018300525E1E704F0C3FB074B07221A70C0
:10133C0070BD00BF9E03002035F0002037F0002068
:10134C002807002038F0002039F00020F0B583B0D9
:10135C000D460746FFF7F4FC0446FFF7C5FE0120D7
:10136C0004F0AEFD3F4B2A781B781340C3F34013B7
:10137C00002684F831306680204601F029FB29468E
:10138C0004F1140000F008FD3749384801F086FAE2
:10139C00294604F1540000F093FE354804F0DCFAC1
:1013AC00012004F0C7FA04F11F0004F0EDFB04F176
:1013BC00220004F0C1FB2F4B94F832501B78B3423F
:1013CC000CBFFB22FF223046294604F027FBA07FEE
:1013DC00237DE28A218B0190A08B0090384600F08F
:1013EC0057FD022004F0F6F90146304604F0A6FE43
:1013FC00082004F0EFF90146012004F09FFE6088FC
:10140C0000F03AFC04F05EFB00F0ACFDA0F1280605
:10141C0000F0D0FD022D22D028300925054431469C
:10142C00022004F079FE29460646002004F074FEE2
:10143C000546304604F058FA284604F013FA208B7F
:10144C0000F020FD40B104F021FBFFF795FD0A4BA5
:10145C0007221A7003B0F0BD04F02AFBF5E7183030
:10146C000525DBE736F0002040040020380400207E
:10147C008914000038F0002039F000202DE9F041EB
:10148C00044604F0F9FA02284FF000000CBF0525C1
:10149C00092504F06FFE0746012004F06BFE14F0E2
:1014AC000808A7EB0507A0EB050527D17D4E33787F
:1014BC00013B072B00F2F280DFE803F00B0B0B3E35
:1014CC0013185C59B8F1000F03D029463846FFF7C2
:1014DC003BFCFFF76FFC01233370BDE8F041FFF7D5
:1014EC004BBD714B7149187804F082FBFFF762FC1D
:1014FC0004233370BDE8F041FFF73EBD6C4B694EE1
:10150C00187804F053F93378013B072B00F2C680AE
:10151C0001A252F823F000BF4D1600000F16000078
:10152C00D114000045150000CD150000BD150000BC
:10153C008B15000043160000A306CED504F08AFBE1
:10154C005C4C0378237038462946FFF7FDFB247862
:10155C0004F032FB18B104F00F04022CC6D004F0D6
:10156C0065FB2846FFF710FC05233370B5E7FFF742
:10157C007DFEB2E700F058FDFFF778FEADE7B8F15D
:10158C00000FF7D0FFF7DCFB4B4B1B78002B6FD118
:10159C0090F83330022B0CBF18202820381A00F09A
:1015AC0033FD00F049FD29463846FFF713FC94E75C
:1015BC00B8F1000F9AD029463846FFF7C5FB95E7DE
:1015CC00B8F1000F8DD029463846FFF7BDFB04F06B
:1015DC0041FB047804F00F0404F0EEFA052C4AD019
:1015EC00032C7FF47EAF00283FF47BAF2E4B2F49AA
:1015FC00187804F0FDFA2846FFF7C6FB0623337073
:10160C006BE7B8F1000F3FF464AF38462946FFF79B
:10161C009BFB04F01FFB047804F0CEFA00283FF487
:10162C0058AF04F00F04032C7FF453AF2846FFF798
:10163C00ABFB347051E729463846FFF7CBFB4CE740
:10164C0038462946FFF780FB04F004FB047804F0CD
:10165C00B3FA00283FF43DAF14F00F0402D0062C6F
:10166C007FF437AF2846FFF78FFB0223337034E744
:10167C0090F832308EE700283FF433AF0F4B1878D8
:10168C0000287FF42EAF04F0EDF804F0E3FA0146E5
:10169C002846FFF75BFE072333701EE704233370E5
:1016AC001BE700BF39F0002035F000202807002090
:1016BC0038F0002036F000209E03002037F0002088
:1016CC000249034A00230B801380704730F000203E
:1016DC0032F00020064B074A1B8812889A421DBF25
:1016EC0005484FF4967202FB03000020704700BFC0
:1016FC0030F0002032F0002030080020034A044B68
:10170C0012884FF4967000FB0230704732F00020C4
:10171C0030080020064A074913880988994205D0E9
:10172C00072B1ABF01339BB200231380704700BFF5
:10173C0030F0002032F00020044A1388072B1ABF27
:10174C0001339BB200231380704700BF32F000209E
:10175C0070B58378012B8CBF0588457882B0033532
:10176C000446ADB201A804F033FA01A960190322B2
:10177C0005F028F8A81C691C235C1A0142EA131214
:10178C00C2F38506930003F0CC0306F03302134337
:10179C005A105B0002F0550223F0550313432354F7
:1017AC00635C1A0142EA1312C2F38500930003F042
:1017BC00CC0300F0330213435A105B0002F05502C5
:1017CC0023F0550313436354635D1A0142EA131269
:1017DC00C2F38501930003F0CC0301F033021343F1
:1017EC005A105B0002F0550223F055031343635566
:1017FC0002B070BD38B50B4C237803B138BD0A4A22
:10180C000A4803F0FF050123237011681368C370A5
:10181C00090A013301710821136000F091F9257058
:10182C0038BD00BF3AF00020901100200C000020C1
:10183C0070B5124C237803B170BD114A114DD0F81C
:10184C0006000123237011681368EB70090A013339
:10185C001360297100F080F90A210646020C030E70
:10186C002846EE802A726B7200F06AF918B116B134
:10187C00304600F07DF90023237070BD3AF0002053
:10188C009011002000000020704700BF14307047FA
:10189C0010B5037A242B044606D90188204606315C
:1018AC00BDE8104000F04CB9143000F02DFC617D07
:1018BC001431218020460631BDE8104000F040B9BB
:1018CC00F0B51A4E337883B00BB103B0F0BD0446BB
:1018DC0003F0FF07012333701546637D144AE17151
:1018EC00106803F1140121801368E3700221A170C8
:1018FC00000A0621617101332071136004F00EF9A6
:10190C00207204F011F92B0AE3726072A57201A81F
:10191C0004F026F901A9042204F1100004F052FF8E
:10192C002046FFF715FF377003B0F0BD3AF00020EA
:10193C009011002008B500F0B9F8034650B10068CA
:10194C0059688278012A8CBF02884278931D8B4299
:10195C0018BF002008BD00BF4079704770B5044621
:10196C00164608460622A11D1D4601F0A3FF237B47
:10197C003370637B003B18BF01232B7070BD00BF1D
:10198C00034610220846991D01F094BF8379CB7051
:10199C00C3790B70037A4B70437A8B70704700BF1E
:1019AC0010B40A0C0C0A0B0E4473017310BC827336
:1019BC00C3737047F0B51A4E337883B00BB103B0D4
:1019CC00F0BD04460D46617D164A03F0FF07012366
:1019DC0033701431106821800A211368A17102211F
:1019EC00A170000A06216171E3702071013313604C
:1019FC0004F0E2F82572E071A772E77204F094F833
:101A0C00607201A804F0ACF801A9042204F11000E2
:101A1C0004F0D8FE2046FFF79BFE377003B0F0BDF4
:101A2C003AF0002090110020704700BF10B5064C12
:101A3C00064920464FF4806204F0CEFE214604484D
:101A4C00BDE8104005F01CB81C1600201C1200202C
:101A5C002C16002010B5064C064920464FF4504277
:101A6C0004F0BAFE21460448BDE8104005F008B861
:101A7C0044E60020441600203816002008B507481C
:101A8C0003F02CFEFFF7D2FFFFF7E4FFBDE80840A0
:101A9C00034A0449044804F0D5BB00BF3BF00020C6
:101AAC0044E600201C1600201400002010B50D4C3C
:101ABC000D4B2360214680230C48636005F038F8F9
:101ACC00002808BF002404F07BFC08B1204610BDA0
:101ADC00074804F087FE0028F8D104F079FC204672
:101AEC0010BD00BF14120020941100202C160020F1
:101AFC001C16002070B505460E4803F0F3FD044695
:101B0C0008B9204670BD284604F0C4FF06460A48B2
:101B1C0004F076FE864207D90024064803F0F2FD55
:101B2C0004F018FC204670BD0448294604F0CEFF92
:101B3C00F3E700BF3BF0002044E6002038160020FD
:101B4C0000B583B003466846CDE90031FFF7D2FFFC
:101B5C0003B05DF804FB00BFB0F5E12F04D0034BDC
:101B6C0098420CBF18460020704700BF40420F003F
:101B7C00B0F5E12F06D0054B984200D070471120EC
:101B8C0004F0AABB0F2004F0A7BB00BF40420F001B
:101B9C00024B034A1B78D05C704700BF3CF000201E
:101BAC001C000020024A034B00211878117070476A
:101BBC003CF000201C00002010B4064806490378B5
:101BCC00CC785A1CB2FBF4F304FB1323037010BC47
:101BDC00C85C70473CF000201C000020014B0068E2
:101BEC00186070471C0000200E4AF0B400230E4F02
:101BFC0010601C460126C3F3C401014403F0070224
:101C0C00897C06FA02F21142DDB203F1010302D023
:101C1C00621C3D55D4B2252BEDD187F82540F0BC84
:101C2C00704700BF54E6002058E60020F0B40F497E
:101C3C000F4C104F2060002213460A7014460126E8
:101C4C00C3F3C401014403F00702897C06FA02F2D3
:101C5C001142DDB203F1010302D0621C3D55D4B236
:101C6C00252BEDD187F82540F0BC70473DF00020C6
:101C7C0054E6002058E60020424B1A68537FF0B41B
:101C8C00002B5AD0117C947BD57B537C45EA0425E0
:101C9C0043EA01235D4080EA050103260023184630
:101CAC000F0A47FA00F4C0F1070C04F0010404FA1F
:101CBC000CF4013023430828DBB2F2D11B020024C0
:101CCC001BB2C9B2274641FA07FCC7F107000CF05A
:101CDC00010C0CFA00FC01374CEA0404082FE4B2A6
:101CEC00F1D123439BB203EB03132B44013E99B276
:101CFC00D4D1254885EA0103A0FB0310191A00EB87
:101D0C005100400900EBC00100EB8100181AC0F330
:101D1C00C4010A4400F00704917C0122A240114244
:101D2C00C0B201D0F0BC7047184A92F8255003FBA2
:101D3C0005F31B14F0BCD05C704715495478087837
:101D4C00144B204483FB004303445B1103EBC3049B
:101D5C0003EB8403C01AC0B202EBD00200F00704FC
:101D6C00927C08700123A3401A42DBD1074A92F8F7
:101D7C002510B0FBF1F301FB1300C0B2F0BC105CFA
:101D8C00704700BF54E600204D91CFBA58E60020B2
:101D9C003DF00020A7C867DD10B40A7AC275CA7975
:101DAC0002768A7942764A7982760A79C276CA783C
:101DBC0002778A7C82734A7CC2730A7C0274CA7B67
:101DCC0042744A7D42730A7D0273CA7CC2728A7D58
:101DDC0002700C7ECA7D42EA042242808C7E4A7ECE
:101DEC0042EA042282800C7FCA7E42EA0422C2802C
:101DFC008C7F4A7F42EA04220281CA7F827491F866
:101E0C002020C27491F82120027591F8222042758D
:101E1C0091F82320827591F8242010BC02F01F0247
:101E2C00427091F8242040F2011152098272C18350
:101E3C00FFF7FCBE10B403461430B3F84640B3F8B9
:101E4C00481093F84A20DC84198583F82A2010BCAA
:101E5C00FFF7CABE30B40D460A78027004462B89CF
:101E6C00A8884988ED88E5806180A080238130BCFA
:101E7C0000F04AB88B7F03B18377CB7F03B1C37774
:101E8C00704700BFB0F5506F94BF00200120704721
:101E9C00F0B49DF814501A4F1A4C05F00F05064675
:101EAC0037F8150084F8210040F2E2450020B1F526
:101EBC00506F2660A662C4E90600BDF81060A560EC
:101ECC001BD94FF47A7000FB01F1A1F54B11A1F570
:101EDC00006140F2E24000FB02F200FB03F042F230
:101EEC001073002503FB06F3C4E9032061606362F1
:101EFC00656184F82050F0BC704705FB01F1E8E700
:101F0C001074000080E6002070B4154C666865699A
:101F1C00B0F5506FC4E906561CD94FF47A7505FB21
:101F2C0000F0A0F54B10A0F5006040F2E24589B23C
:101F3C0005FB01F105FB02F542F2107202FB03F303
:101F4C000022C4E9031560606362626184F820209A
:101F5C0070BC704740F2E24505FB00F0E5E700BFBE
:101F6C0080E60020114A70B4D2E90661D2E902354C
:101F7C0092F820000E4C2B4406FB01115669556853
:101F8C00194492F821301268304405FB00103233AA
:101F9C0000FB03F303F57423203A03F23F231044B0
:101FAC00A4FB0323A0EB934070BC704780E6002099
:101FBC0083DE1B43124B70B4D3E90662D3E90205EE
:101FCC0093F820100F4C284406FB02225E695D68D2
:101FDC00024493F82100314405FB012132301A6888
:101FEC001B6901FB00F0134400F5742000F23F2044
:101FFC002033A4FB00200B4403EB904070BC7047D3
:10200C0080E6002083DE1B43064B00220121C3E93E
:10201C000322C3E90622186083F820105A619A60E3
:10202C00704700BF80E60020024A536901335361B8
:10203C00704700BF80E60020014B1A689A62704717
:10204C0080E60020114B93F82020C2B1D3E90201A5
:10205C001A68024470B458689E6A5D690A44D3E9F0
:10206C00064105FB0000921B04FB01115B6A024454
:10207C00501883428CBF0020012070BC70475869F7
:10208C00052894BF00200120704700BF80E6002087
:10209C0010B5102204460021074801F03FFC102225
:1020AC00002104F1170001F039FC0448214603F02B
:1020BC0031FBA4F8BC0010BD2CE70020B1250000BA
:1020CC0070B5002504460E460571857180F8BE502A
:1020DC000331062200F5937001F0ECFB314604F558
:1020EC00B97011F8093BC3F3801384F82C31062224
:1020FC0001F0E0FB337884F8BF50DB0984F87831C9
:10210C0084F8C05070BD00BF2DE9F041037813F086
:10211C0003052ED190F903204678C378002A044693
:10212C0029DA13F0400F00F1040106F1020200F16C
:10213C000A0003F03F070CBF4FF01B084FF052088A
:10214C0001F09EFB0623277284F8078065721946FE
:10215C0033442278043B1BB2C3F30725314442F0CD
:10216C0002020420E37000232571617022706071FB
:10217C00A371BDE8F081C11CF21C073001F080FB9B
:10218C0004231946E4E700BFF8B52249044620228F
:10219C00214804F017FB04F1E607204920482022CF
:1021AC0004F010FB1C492022384601F04BFB04F5CF
:1021BC009976054618492022304601F043FBA5B913
:1021CC00F0B131462022144804F0FCFA202204F528
:1021DC00A971134804F0F6FA0123B4F8BC0084F892
:1021EC00BF30BDE8F84003F09FBA00B1F8BD3946E6
:1021FC002022094804F0E6FA202204F58371E8E76E
:10220C000849202204F1C10004F0DCFA012384F80F
:10221C00BE30F8BD40000020ACE60020600000207D
:10222C00CCE60020800000202DE9F04710605171B1
:10223C0090F8008090F801A0154604460E46C9B1EE
:10224C0002F1E20903F0B8FC074603F0B7FA3A468C
:10225C0003463146204600F047FBBAF1000F07D089
:10226C0008F00303022B36D0032B63D0012B04D0D0
:10227C00BDE8F08702F59779E4E700F02FFB002822
:10228C00F6D1B9F80030062BF2D16B79002B00F0A7
:10229C00098105F1E206B3780C2BE9D12968F378B2
:1022AC004C78E218402AC4BFC3F14004E4B20433B2
:1022BC00F0182246033101F0FDFAF3782344DBB227
:1022CC00F3706A79002AD3D1402BD1D12846BDE8CE
:1022DC00F047FFF759BF2C68A279637943EA0223D0
:1022EC00062BA9F80030C3D16B79E279002B00F0F2
:1022FC00D68005F1E206531EB2700B2BB8D801A2A2
:10230C0052F823F0A52400007D2200007D2200005D
:10231C008F2400007D220000752400004D24000055
:10232C00352400007D2200007D2200007D2200006B
:10233C00FF2300002968CB78033B082B98D801A217
:10234C0052F823F0AF23000083230000E9230000A0
:10235C007D2200007D2200007D2200007D220000F5
:10236C007D220000752300006B79002B80D1BDE825
:10237C00F047FEF79DBE0431082205F1930001F0F1
:10238C0099FA2846042250F8AF1B0C3101F092FA4E
:10239C000123B5F8BC0085F8C030BDE8F04703F068
:1023AC00C3B90431082205F1810001F083FA2846F3
:1023BC00022250F8891B0C3101F07CFA28460822C5
:1023CC0050F88B1B0E3101F075FA2846042250F898
:1023DC00AB1BBDE8F047163101F06CBA05F1B30147
:1023EC0005F127000022FEF733FEBDE8F047FEF7AB
:1023FC006DBE2B680122AA715F78053FFFB2402F9A
:10240C00B84628BF4FF0400804F108014246301D81
:10241C0001F050FA86F803806B79002B7FF428AF1B
:10242C003F2F7FF625AF51E76B7904F10801002BA4
:10243C0042D005F141001022BDE8F04701F03ABA54
:10244C006B79002B7FF414AF04F11001022205F11B
:10245C00370001F02FFA04F1080105F139000822C8
:10246C00BDE8F04701F026BA6B79002B7FF400AF82
:10247C0004F1080105F117001022BDE8F04701F046
:10248C0019BA6B7904F108017BB105F161001022D6
:10249C00BDE8F04701F00EBA01232B71E8E605F513
:1024AC00977628E705F59776F5E605F17100102289
:1024BC00BDE8F04701F0FEB905F151001022BDE86E
:1024CC00F04701F0F7B900BF10B583798AB0044624
:1024DC00CBB190F8BE300BB90AB010BD02AA00F512
:1024EC00B973CDE9003200F1610100F5937300F18D
:1024FC007102C13000F08EF9E01D102206A901F026
:10250C00D9F90AB010BDC31D00F1610200F17101CF
:10251C00024800F069F90AB010BD00BF2CE700209A
:10252C0038B5037904468BBB04F19B05082204F1F2
:10253C008B01284601F0BEF9082204F1930104F145
:10254C00A30001F0B7F9042204F1AB0104F1B300CC
:10255C0001F0B0F904F1AF01042204F1B70001F06D
:10256C00A9F9022104F1890004F01CF928B1082111
:10257C0004F1810004F016F958B92A4604F1170148
:10258C0004F12700BDE8384000F042B8FFF79CFF8B
:10259C00CAE72A46E11D04F12700BDE8384000F0E7
:1025AC0037B800BF90F8BF3010B5044653B994F853
:1025BC00C03003B910BD2046FFF7B2FF002384F8EA
:1025CC00C03010BD074A0849084804F019FB0749F8
:1025DC00202204F1C10004F0F5F80123A4F8BE3068
:1025EC00E5E700BFACE6002020000020ECE6002070
:1025FC0001461022014804F0E5B800BF2CE700208A
:10260C0002481022002101F089B900BF2CE70020FC
:10261C0010B4134604462246084610BC194603F073
:10262C00ABBB00BF70B584B00E4615461B496A465D
:10263C0003F0A2FB0DF10F04701E0DF1FF3200230D
:10264C0012F8011F43EA4103A24200F8013F4FEA8E
:10265C00D113F5D19DF90F30002BB7BF33783278F9
:10266C0083F087023270681E344605F10F01002397
:10267C0000E0227843EA420300F8013F14F8013BE2
:10268C0088424FEAD313F4D196F90F30002B03DABA
:10269C002B7883F087032B7004B070BD3CE70020CF
:1026AC0038B50546C2F110001446284401F002F971
:1026BC00C4F10F028023002AAB5400DC38BD28463D
:1026CC000021BDE8384001F029B900BF2DE9F04FD9
:1026DC0097B00DF1180A1C4683460F46084616465D
:1026EC0002A95246CDF804B0FFF79CFF04F10F038A
:1026FC0004F00F021D0900922FD1294610220EA8BA
:10270C0001F00CF90DF1470512AC009A31460AA8FC
:10271C00FFF7C6FF0DF1270213460DF117000DF15F
:10272C00370613F8011F10F801CFB34281EA0C01F0
:10273C001970F6D1314612F8013F11F8010F96428B
:10274C0083EA000305F8013FF5D1019A214638468A
:10275C0003F012FB17B0BDE8F08F0EA81022002179
:10276C0001F0DCF8012D5FFA85F839D0A8F10203ED
:10277C00DBB2A4F12008A4F1100BA8EB031806F1AE
:10278C00FF390DF1470512AC09EB0B000EAA2946D7
:10279C0012F8013B10F801CF944283EA0C0301F8C4
:1027AC00013FF5D1ABF1100B0EAA2146384603F0D0
:1027BC00E3FAC345E8D1009B002BA6D10DF127020B
:1027CC00013E02A9104611F8013B16F801CF8A45CB
:1027DC0083EA0C0300F8013FF5D10DF13706A9E7A8
:1027EC000DF1470512ACE6E770B5164684B0082229
:1027FC0005460DEB02001C4601F05CF831466846BC
:10280C00082201F057F86A4629462046FFF700FFD8
:10281C0004B070BDF0B593B00C4615461E4602468A
:10282C001C49199F68462023FFF750FF4FF4807313
:10283C001899ADF8103007220DF1120001F03AF89A
:10284C00314607220DF1190001F034F82946102207
:10285C0008A801F02FF8214610220CA801F02AF844
:10286C000D49042210A801F025F8002469463846C9
:10287C0004AA35238DF84440FFF728FF012404AA4D
:10288C00694607F1100035238DF84440FFF71EFF11
:10289C0013B0F0BD2474000020740000F0B4084A9A
:1028AC00084B094F094E0A4D0A4C10600A4A196030
:1028BC0000233B7033702B7023701370F0BC704787
:1028CC004CE7002050E7002040F0002041F00020B1
:1028DC003FF0002042F000203EF00020014B187821
:1028EC00704700BF3EF00020F0B404784578C4F384
:1028FC00C000F1B1284E294C3178294F81EA000CE7
:10290C0084F800C0B5FA85F4640981423C700ED19C
:10291C0081F00101317055B14AB143B9214B1A68AC
:10292C00D2E90031013341F10001C2E90031F0BCC0
:10293C0070471D4E194F317881EA000C814287F89F
:10294C0000C013D181F0010131707DB117490968C4
:10295C00D1E90005471C45F10006C1E900762AB112
:10296C0023B9023045F10005C1E90005104B1A7876
:10297C00C4F38004A2420BD0094A127842B9094A26
:10298C001168D1E90020013240F10000C1E90020BA
:10299C001C70F0BC704700BF42F000203EF00020DD
:1029AC0041F000204CE700203FF0002050E70020D1
:1029BC0040F00020C3798B4207D0D0F8D021837926
:1029CC001078C0F38000584070470020704700BF5B
:1029DC000023012202700372037403738380704717
:1029EC0030B4D0F8D031DA78182A17D8DFE802F0F2
:1029FC005F370D161616161616161616161616160A
:102A0C0016161616161616161800027932B9012269
:102A1C0002711B78C171C3F3C003837130BC704762
:102A2C00DC799D7942883C4945EA0425AA1A81FB48
:102A3C0002418C18D117C1EBE431C1EB0141521AA0
:102A4C0047F6FE718A42E9DC1A7980F852205B79EC
:102A5C0080F853300123C581037330BC70479C7AD6
:102A6C005D7A42882C4945EA0425AA1A81FB024169
:102A7C008C18D117C1EBE431C1EB0141521A47F666
:102A8C00FE718A4243DC1A7980F846205A7980F824
:102A9C0047209A7980F84820DA7980F849201B7A07
:102AAC0080F84A3001234582037430BC70479C7B0C
:102ABC005D7B4288184945EA0425AA1A81FB02412C
:102ACC008C18D117C1EBE431C1EB0141521A47F616
:102ADC00FE718A421BDC1A7980F8342099795A7974
:102AEC0042EA0122C286197ADA7942EA0122028785
:102AFC00997A5A7A42EA012242871A7BDB7A45811B
:102B0C0043EA0223012230BC838702727047002300
:102B1C0030BC0370704700BF01800080027C43888A
:102B2C0010B5044612B1428A9A421DD0227A12B1D3
:102B3C0062899A420ED0227B12B1E2899A4200D06D
:102B4C0010BD04F1340104F11400FFF793F90023D4
:102B5C00237310BD04F1340104F11400FFF77AF96A
:102B6C00002323726388E6E7FFF764F900232374DC
:102B7C006388DBE70C4608B511461A460346204627
:102B8C00984702F0CDFA00F079FD00BF8368D0F8C9
:102B9C0004C0F0B40568C768B3F5004F2CBF55F8F6
:102BAC00314035F83140B3F5004F04EA070234BF29
:102BBC0000230123B2FA82F2C3F11F039B1A0CEB20
:102BCC00C30405EBC1066268571C67607AB9426999
:102BDC0001249C40224342614CF833108368B3F5C6
:102BEC00004F2CD289B2B180F180F0BC7047826862
:102BFC005CF83340B2F5004F05EBC40309D29A8858
:102C0C00B280F48005EBC20589B2E9809980F0BCF2
:102C1C0070479A68B2608768B7F5004FF1D3F460DB
:102C2C008468B4F5004F05EBC205EDD3E96082680A
:102C3C00B2F5004F28BF9960E9D289B2E6E7B160DE
:102C4C008368B3F5004F28BFF160E0D289B2CBE7BF
:102C5C00F0B58E18073121F0070226F00706B61AD8
:102C6C00F60802F11801B6F5004F0260B6FA86FEBE
:102C7C00C2E90021966030D2CEF1200C2CF0604CD1
:102C8C000CF1030C47F6FF700023BEF1200FC2E9D4
:102C9C00030C53612ED00020054647F6FF774D609C
:102CAC0041F8085B9468BC4294BF00230123C3F134
:102CBC001F030130A3EB0E039842F0DDB4F5004F77
:102CCC00A6EB0C0602EBCC0318D342F83C60104682
:102CDC00BDE8F0401169FFF759BFCEF11F0C2CF085
:102CEC00604C0CF1030C6FF000400023C2E9030CA4
:102CFC005361D0E7A6EB0C0602EBCC031E801169E6
:102D0C00BDE8F0401046FFF741BF00BF704700BF61
:102D1C00C368C9B201EB410103EB81014B7A23B9C2
:102D2C00087AB0FA80F0400970470220704700BF63
:102D3C0070B4C9B24568C0684FF04003EFF3118618
:102D4C0083F31188BFF36F8F01EB410300EB830416
:102D5C009A00237AB3B1013BDBB2237233B100206A
:102D6C0086F31188BFF36F8F70BC704705EB810140
:102D7C000125C978835001F18042636018461560C3
:102D8C006372EDE76FF04400EAE700BF2DE9F8430A
:102D9C00D0F80CC047680E46CDB2002A5AD005EBCD
:102DAC0045036C005CF823309A4255D013B11B6874
:102DBC00002BF9D14FF04003EFF3118E83F3118800
:102DCC00BFF36F8F63190CEB83019B000C7A0134FA
:102DDC00E4B20C728EF31188BFF36F8F0AB391F8C3
:102DEC0009904FF0804E4FF00308CEF80883B9F1EC
:102DFC00000F1BD14FF04000EFF3118E80F31188C0
:102E0C00BFF36F8FC2F80090486848B302604A6005
:102E1C008EF31188BFF36F8F4FF080430322C3F8FA
:102E2C000423012C0AD00020BDE8F883D2E901323A
:102E3C00CEF8048331469847012CF4D1012E13D0DF
:102E4C0007EB85050122AB7803F1804300201A6063
:102E5C00BDE8F8836C00ADE76FF00F00BDE8F883B8
:102E6C004A604CF80320D3E7044C2378002BE7D1BD
:102E7C004FF4A57002F0CCF92670E1E743F0002086
:102E8C000022FFF783BF00BF002238B501210446A2
:102E9C00104600F01FFA002000F00CFAE3684FF027
:102EAC008042002001250321C2F81855C2F80413F2
:102EBC00C3E90000E368C3E9030038BD2DE9F04124
:102ECC001A4DE96800EB400301EB8304012207462D
:102EDC009B0062724FF04000EFF3118280F3118877
:102EEC00BFF36F8FCB58D3B1A84666681D682560B9
:102EFC009E4208BF656082F31188BFF36F8FD3E9E0
:102F0C00015239464046A8474FF04003EFF3118277
:102F1C0083F31188BFF36F8F2368002BE5D182F305
:102F2C001188BFF36F8FBDE8F08100BFA4030020B0
:102F3C0000B5164B1A6883B072B14FF08042D2F8CC
:102F4C000423D10708D5124A0021D26819601B68E6
:102F5C00507A0093009BB0B10E4B1A6882B14FF0BF
:102F6C008042D2F8042392070AD500221A601B680B
:102F7C000193019B012003B05DF804EBFFF79EBFAA
:102F8C0003B05DF804FBFFF799FFE5E70001004093
:102F9C00A403002004010040704700BF704700BF2D
:102FAC00094B0A4A0A490020186082B01B68019339
:102FBC00019B1368D1F84005C01A20F07F400344F0
:102FCC00136002B002F092BA401101406CE700208D
:102FDC000010014030B583B0154801F035FB20B32B
:102FEC008368144D1B6801219847134B134A002426
:102FFC00C5F808451C601B6801934FF400314FF471
:10300C0080330198C2F8801111202246C5F8043390
:10301C00012100F05FF9112000F04CF9084A01235E
:10302C00136020462B6003B030BD4FF0FF30FAE741
:10303C0034740000001001404011014000E100E038
:10304C00081001402DE9F041441C82B075D0424B70
:10305C00013898427CDDDFF814E1404A4049D2F84F
:10306C00043508683F4DDFF804C14FF48037C2F8CF
:10307C000873D2F80485D2F840151B1A13F4000F0C
:10308C004FF0000623F07F442E6018BFB646A1EB2C
:10309C000803013429680191744423F07F4328F01C
:1030AC007F41644594BF041900EB0C04012BDDF83F
:1030BC0004E0C2F84015C2F8447341D02A4A274BA9
:1030CC004FF40031C2F88011D3F80415621A22F0C3
:1030DC007F42012A27D024F07F42C3F84025D3F841
:1030EC000425A41A023C210213D5911C21F07F4126
:1030FC00C3F84015D3F8041591420AD0D3F804153F
:10310C008A1C22F07F42C3F84025D3F80425914253
:10311C00F4D1124B4FF48032C3F8042302B0BDE853
:10312C00F081D3F804158A1C22F07F42C3F84025A5
:10313C00D3F804259142F4D1EBE7DFF81CE08CE7DF
:10314C000F2002F065F82E602B680093009BB5E70A
:10315C0020EAE07E81E700BFFEFF7F000010014007
:10316C006CE700204011014000E100E0FFFF7F0010
:10317C004FF04002EFF3118382F31188BFF36F8F8E
:10318C000649074AD1F804051268801A20F07F40DE
:10319C0083F31188BFF36F8F704700BF001001409D
:1031AC006CE7002038B5114C114B1248E361102527
:1031BC004FF48063104A1149236260660023A566B0
:1031CC00E01D0325A3626362E3622367E366636722
:1031DC00A2612266C4E9045500F01AFB0849204696
:1031EC0000F016FB2023A37138BD00BF70E7002050
:1031FC0028E8002018E800206474000070740000B7
:10320C0074740000FFF7CEBF08B5FFF7FBFF00207A
:10321C0008BD00BF0A4A0B49936810B40C680A49F0
:10322C00C3E91B044B6843F080534B60002383F3CA
:10323C001188BFF36F8F936810BC186F704700BF75
:10324C0034ED00202C75000000ED00E00F498A6879
:10325C004FF030001044EFF3098C80E8F01F402051
:10326C0080F31188BFF36F8F094F4FF000664A6AE5
:10327C008A603E60D06E0023D36680F3118802F121
:10328C00300090E8F01F8CF30988704734ED002073
:10329C0004ED00E01EF0040F0CBFEFF30880EFF319
:1032AC000980816911F8021C0229FFD001B500F0D8
:1032BC008DF801BD43B2002B08DB054901225B09E7
:1032CC0000F01F0002FA00F041F82300704700BF25
:1032DC0000E100E0D3075CBF0231490143B254BFA7
:1032EC00C9B20021002B06DB03F1604303F56143F7
:1032FC0083F800137047034B00F00F00034419765A
:10330C00704700BFFCEC00E00021012000F05CB82D
:10331C0008B572B6054B186A08B962B608BD00222A
:10332C001A6201F0D1F962B608BD00BF34ED00207D
:10333C00F0B48C18203C24F007040A4D0166059E5D
:10334C0006994266049F236025F001054FF08072B8
:10335C000023C4E90261A5616760E2610465C3668C
:10336C00F0BC7047812B0000F8B506460C4617469A
:10337C001D4600F0ADF9094BE11921F007019E60E3
:10338C00284681F30988002163B681F31188BFF3C5
:10339C006F8F00220023FFF7EDFB00BF34ED002000
:1033AC00014910220A60704710ED00E072B64040EF
:1033BC0080F31188BFF36F8FBFF34F8F30BF62B6AE
:1033CC00BFF36F8F704700BF01F062B90146006810
:1033DC0001F05EB908B500F005F8BDE8084000F052
:1033EC0033B900BF30BFFFF7FDBF00BF0E4A08B5B1
:1033FC000E4B22F07F029A60BFF34F8FBFF36F8F9B
:10340C00D3F8882022F47002C3F88820EFF31483D9
:10341C0023F0040383F3148801F072F901F07AF9B4
:10342C0000F020F901F0A8F90000000000ED00E028
:10343C0001B572B60B4A106A00281EBF002111623A
:10344C0001F042F962B6EFF30580A0F110004FEAEB
:10345C00C0000549014409C99847BDE8014003492A
:10346C000847000034ED0020C472000055360000FF
:10347C0000F0BAFA402080F3118808484FF400613C
:10348C00401880F30988EFF314800221084380F37D
:10349C001488BFF36F8FFFF7A9FF000090F5002091
:1034AC00EFF30880EFF30981724601B500F022F8C2
:1034BC0001BD00BF0E4B9A6A9A6A9A6A920508D5AA
:1034CC009A6B9A6A120404D518B19A6A22F40042D3
:1034DC009A62074B9A6A9A6AD205054A58BF9B6A48
:1034EC00936A002043F47F4393620870704700BFD7
:1034FC0000ED00E070B54C4B5B688AB0C3F3080379
:10350C00002585F31188BFF36F8F02F07F44B4F16F
:10351C007F4F33D102F00C04082C2FD014074EBF70
:10352C000C46044601250022033B8DF80720032B93
:10353C0010D8DFE803F02B4051023B4B9A6A9A6A91
:10354C009A6A9A6A9A6A9A6A9A6A6FEA02426FEA65
:10355C0012429A620026214602A8202200F0AAF903
:10356C00099B6DB1C3F3080240F2FF11002A3FD052
:10357C0002A93046FFF728FF0AB070BD2C46D2E7EF
:10358C0023F4FF7323F001030993F1E7264BDA6A66
:10359C009207DFD4DA6A5600DCD5244A1278002A66
:1035AC0029D1234A1278002A33D1224A128892B2A6
:1035BC00002ACFD0C2E71C4B9A6A9A6A9A6A920781
:1035CC0044BF5A6B9B6A184B9A6A9A6A9A6A9A6AAF
:1035DC0042F0FF029A62BDE70DF107010020FFF7F0
:1035EC0069FF9DF807300646002BB4D00AB070BDB9
:1035FC000B430993BCE79A6A9A6A9A6A9007E2D5D8
:10360C005A6B9A6A1106DED59A6A22F080029A6287
:10361C00D9E70DF107010120FFF74CFF9DF80730AA
:10362C000646002BE2D196E700ED00E028ED00E025
:10363C0029ED00E02AED00E0024A536943F0100343
:10364C005361704700ED00E0044B9968586A88425A
:10365C0003D003494FF080520A60704734ED0020CC
:10366C0004ED00E0044800234021C2180133272B4D
:10367C0082F80013F9D1704700E100E038B5044638
:10368C004FF04003EFF3118583F31188BFF36F8F75
:10369C0001F040FB0C4B9B68A34204D02846BDE8CC
:1036AC00384001F041B9094B5A68C2F3080242B1E3
:1036BC005A6842F080525A602846BDE8384001F002
:1036CC0033B92846FFF7A6FD34ED002000ED00E0ED
:1036DC0030B585B00749084801910290074D084B59
:1036EC00084A039501AC01216846009400F068F883
:1036FC0005B030BD000000200000000000000B06EB
:10370C000000012000000020D1E90023202B896853
:10371C0018D9B3F1004F17D8013BB3FA83F3C3F1B7
:10372C001F035B00072843EA01030FD822F01F0296
:10373C000849024342F0100243F001038860CA605A
:10374C000B6170470823EDE73E23EBE76FF01500A4
:10375C00704700BF90ED00E0164B30B41D68082D8B
:10376C0024D8BFF35F8F144C0022626095B1596866
:10377C000B688868A26023F01F031343013243F0E7
:10378C00100340F001009542E36001F10C0120614F
:10379C00EED1EDB2094A084B157005225A60BFF301
:1037AC004F8FBFF36F8F002030BC70474FF0FF304E
:1037BC00FAE700BF8C74000090ED00E044F00020AC
:1037CC00F8B5124F3A781346F1B10D46041F002696
:1037DC0054F8041F4B6801368BB11F2B03F1FF3CCF
:1037EC0011D9D1F800E043EA0E0313EA0C0FD0B262
:1037FC0009D1FFF789FF10F1160F04D0421CAE421D
:10380C00E6D1D3B200E0EA233B70F8BD44F00020CF
:10381C000B7802462BB102F8013B11F8013F002B4B
:10382C00F9D100231370704703780A789A4206D1B5
:10383C002BB110F8013F11F8012F9342F8D0981AD0
:10384C00704700BF8AB1013A16D070B4841801E0F9
:10385C0084420CD00D46064611F8012B10F8013BA2
:10386C009342F5D0981A70BC704710467047737825
:10387C006A7870BC981A704703780A78981A70475F
:10388C00431A934210B40BD342B10139024403469C
:10389C0011F8014F03F8014B9342F9D110BC70475A
:1038AC008B18024413F8014D02F8014D8B42F9D1EB
:1038BC0010BC704781EA0003F0B49E0729D185073C
:1038CC0029D022B3034600E00AB311F8014B03F8E8
:1038DC00014B9C0702F1FF32F6D1032A0ED9171FB8
:1038EC0027F003070437CE191C1F51F8045B44F86A
:1038FC00045FB142F9D102F003023B443AB1013BFF
:10390C000A4411F8014B03F8014F8A42F9D1F0BC7B
:10391C0070470346F2E70346DFE700BF8307C9B2EF
:10392C0026D03AB3034600E022B303F8011B13F090
:10393C00030F02F1FF32F7D130B4032A41EA01251B
:10394C0045EA054512D9141F24F0030404341C4421
:10395C0043F8045BA342FBD102F0030222B12244E0
:10396C0004F8011BA242FBD130BC70471C46F5E7A2
:10397C000346E1E7704700BF4FF04003EFF31182BD
:10398C0083F31188BFF36F8F06484FF080410123FA
:10399C00C0F84035C1F8783582F31188BFF36F8FCA
:1039AC000020704700E001404FF08043C0B2C3F8E4
:1039BC001C05BFF34F8F0549054BCA6802F4E06242
:1039CC001343CB60BFF34F8F00BFFDE700ED00E06A
:1039DC000400FA0520B1034B800143F001031847A2
:1039EC00704700BF0074000000F01CBCF0B44268CB
:1039FC00514D167AD5F80433C46801F01F0242EA1F
:103A0C004612D8B282B02E46002302E00133082BB6
:103A1C001BD003F5A27556F82550C5F30425AA4210
:103A2C00F4D120FA03F5ED07F0D5980000F18040B1
:103A3C0000F5C0400125D0F8107505FA03F327F006
:103A4C000107C0F81075C6F80833930003F1A043C2
:103A5C00E068D3F80057C84025F4403510F0010059
:103A6C00C3F8005722D02069C84010F001001DD0C7
:103A7C00A069C84010F001001BD0E369CB40DB0704
:103A8C0029D46369CB4003F00103C3F10203DDB217
:103A9C00294C002101F5A27054F8200010F003000D
:103AAC001BD001310829F5D16FF0120002B0F0BC27
:103ABC0070476269D3F8004722FA01F101F0010165
:103ACC0024F44032C1F1030142EA0141C3F800176A
:103ADC0002B0F0BC70470325DAE78E0006F1804691
:103AEC0006F5C04601F14007D6F8103523F4473CE3
:103AFC002CF4407C1302BF00C6F810C5BAB203F414
:103B0C00F85343EA054302F18042D6F8105502F50A
:103B1C00C0422B43C6F81035106013680193019B0B
:103B2C00D6F8102501231A4303FA01F1C6F8102523
:103B3C00C4F80413BAE700BF00600040304BF0B487
:103B4C00304C46681340A34257D03AD8062B4AD083
:103B5C002CD9B3F5801F30D14FF48073D0065ABFE7
:103B6C00C2F34015AD000C2582F480749705C4F3A4
:103B7C000024C2F3402007D512F4006F776835D0CB
:103B8C0001228A40C7F80825327A01F01F0141EA68
:103B9C00421140EA4402134301F5E0714FF0A04298
:103BAC002B430020F0BC42F821307047002BD5D0BD
:103BBC00022B08BF4FF48063D0D06FF01500F0BC1F
:103BCC007047114883420BD0B3F5A00F08BF4FF4D8
:103BDC004073C3D0B3F5800FEFD14FF40073BDE742
:103BEC004FF4A063BAE74FF4C063B7E75205CBD5E7
:103BFC0001228A40C7F80C25C6E74FF4E063ADE715
:103C0C000600F000060010000200400043685B68EC
:103C1C00D3F810350B600020704700BF43685B6819
:103C2C00D3F8040542400A404240C3F80425002062
:103C3C00704700BF43685B680020C3F808157047E5
:103C4C0043685B680020C3F80C15704743685A68DA
:103C5C00D2F804354B40C2F804350020704700BF41
:103C6C00B2F5A03FF0B4C46831D0B2F5005F4FF0AC
:103C7C000102D4E9036502FA01F219D125EA020521
:103C8C0026EA0206C4E90365D543A6692E40B3F5BE
:103C9C00C02FA66112D0E669B3F5802F06EA05069F
:103CAC00E6610ED1656915436561F0BCFFF79EBEF8
:103CBC0015431643C4E90365D543E6E7E3691A43A4
:103CCC00E261626915406561F0BCFFF78FBE426826
:103CDC00157A01F01F0242EA451202F5E0724FF02C
:103CEC00A04555F82220D2070BD4D4E90375012244
:103CFC008A40A66915431743C4E903751643D54397
:103D0C00C5E76FF02200F0BC704700BF70B4C46808
:103D1C006068D0B10346002600E02B4699420BD0D8
:103D2C001D681E46002DF8D10AB30860A0686160BA
:103D3C0098B1002070BC704796B10B683360A368D3
:103D4C00994208BFA66000230B60002AF1D060687E
:103D5C000860A06861600028EBD1A16070BC70475E
:103D6C00A0680B6863608142EDD1A360EBE76FF054
:103D7C001500DFE710B4C468012223698A4013439D
:103D8C00236110BCFFF732BE10B4C4680122236952
:103D9C008A4023EA0203236110BCFFF727BE00BF51
:103DAC000A4B1A780AB10020704710B5052101247E
:103DBC0006201C70FFF78EFA0620FFF77BFA044BE7
:103DCC004FF00042C3F80423002010BD45F0002042
:103DDC00006000402DE9F041594B1D6882B0002D68
:103DEC0046D12C460022574F94460126D7F804138F
:103DFC00930006FA02F003F18043084203F5C24334
:103E0C000FD0196802F5A27059B157F82010C3F8F9
:103E1C0000C01B680193C1F3042306FA03F3019954
:103E2C001C430132082AE1D124B9002D55D102B02E
:103E3C00BDE8F081444FD7F80C80D8F80430002B43
:103E4C00F3D01E68002E38BF00269A68D8F81010E0
:103E5C0022400A423846194601D05B689847002E2A
:103E6C00E3D03268002A38BF002233461646ECE70E
:103E7C00354B5F68DB687A68D3E90361D2F810458B
:103E8C00D3E90502DB6931401343444021EA0301C5
:103E9C0021EA0404B9B1002001220A4200F01F03F8
:103EAC0018D03E7A43EA46139B0003F1A04321EA63
:103EBC000201D3F8006726F4403601305200C3F8F3
:103ECC0000670029E9D11E4B00221A601B68009381
:103EDC00009B87E701305200DFE71B4BDD685E6813
:103EEC00D5E90314D5E906320C4013439C439ED00C
:103EFC00002001210C4200F01F031ED0377A6A69A2
:103F0C0043EA47139B0003F1A043C240D3F8007768
:103F1C0002F0010227F44037C2F1030224EA010443
:103F2C0047EA02424900C3F800270130002C3FF455
:103F3C007EAF0C4200F01F03E0D101304900D9E7FD
:103F4C007C61004000600040D4030020094B1A68DB
:103F5C0062B10020186082B01A680192A3F58473D4
:103F6C00019AD3F818350B7002B070474FF0FF3040
:103F7C00704700BF08210040024BD3F88004C3F8FF
:103F8C008004704700200040C2680B4692E8030092
:103F9C0083E80300002070474B79012B06D18B7905
:103FAC00032B03D1CA794AB1012A03D06FF0220343
:103FBC001846704743681B78002BF7D070B40C7907
:103FCC0014B1022C2ED10E240B68B3F5164F00F051
:103FDC0084802CD8B3F5165F7DD018D8B3F5966FC6
:103FEC0074D032D9B3F5166F5BD0B3F5965F19D197
:103FFC003B4B3C4EC568C6F824352243C6F86C25AD
:10400C0003C9002385E80300184670BC7047B3F55C
:10401C00E14F55D034D947F61225AB4208BF4FF4C7
:10402C000003E6D06FF02203184670BC7047B3F55E
:10403C00613F4ED01BD9B3F5612F43D00FD92A4D18
:10404C00AB42EFD14FF08053D3E7B3F5967F34D02A
:10405C00B3F5167F08BF4FF41C33CAD0E2E7234DEB
:10406C00AB4227D0B3F5E12FDCD1214BC1E7B3F53F
:10407C00963F29D00CD9B3F5E13FD3D11D4BB8E70E
:10408C00B3F5615F13D0B3F5964FCBD11A4BB0E7B4
:10409C004DF6C025AB4207D0B3F5614FC2D1174BDB
:1040AC00A7E74FF41D23A4E74FF46503A1E74FF4F2
:1040BC006C139EE74FF080639BE74FF4A03398E7B7
:1040CC000F4B96E70F4B94E70F4B92E74FF49E2361
:1040DC008FE70E4B8DE70E4B8BE70E4B89E700BF3E
:1040EC0000B013000020004040420F0090D00300AD
:1040FC0000705F0700E0D70100A04E0000F0EB005D
:10410C0000F0750000D0BE0E00903A0100B0AF0375
:10411C000050270000509D0070B54FF0A043174C85
:10412C000325402100220826C3F80815C3F81857A8
:10413C00C168C3F82027C4F814650626C4F80C65BA
:10414C002026C3F80865C3F8145705260725C3F8BD
:10415C001C2782B0C4F80865C4F81055FFF71CFF83
:10416C0048B9074B0422C4F8002518601B6801935A
:10417C000123019A236002B070BD00BF00200040F3
:10418C0008210040F0B583B00C4601F03BF868BB49
:10419C001D4E64270125BFF35B8F56E8003F002BB3
:1041AC0003D146E80052002AF7D1BFF35B8F21D12F
:1041BC00164D174A174B00212960296801910121DE
:1041CC0001981160C3F81C454FF47A7403E000F0B9
:1041DC0019FA013C03D02B680120002BF7D00E4AB2
:1041EC00012100231160336003B0F0BD064E0123A2
:1041FC003360DDE721200021013F00F071FF17F053
:10420C00FF07C8D1F0E700BF48EC00201C2100409C
:10421C0008200040002000400C20004008B5002081
:10422C00FFF7C2FB924B1B68591C30B400F018818D
:10423C00904A1268062B00F008818F4B1B78062BD6
:10424C0000F0F2808A4B1B685A1C00F0E680894A09
:10425C001268062B00F0D680874B1B78062B00F0DB
:10426C00BE80834B1B685D1C00F0B280814A1268D3
:10427C00062B00F09F80804B1B78062B7AD07C4B52
:10428C001A68541C49D07B4B062A1B6818D0784AF4
:10429C001268062A21D0764A1268062A2DD04FF0D1
:1042AC001023D3F80022002AC0F26C81D3F8043218
:1042BC00002BC0F26781714B714A1A6030BC704799
:1042CC00033B032B194640F20781694B1A68511CBA
:1042DC0044D0684B062A1B68DDD1033B032B19D84D
:1042EC004FF08042D2F80034DB0713D5614B6FF0EE
:1042FC0001011B68C2F80014CDE7033B032BCED899
:10430C00604AD35C002BCAD05F4A136843F48063C5
:10431C001360C4E7574B1B68BDE757495B4B0978E3
:10432C001B680629C3F30313B9D1D91E032940F224
:10433C00D380514A554B12781B68062AC3F30313DA
:10434C00ADD1033B032BC0D8514B524A1B6803F031
:10435C004F031360464B1A68511CBAD1464A4B4B5B
:10436C0012781B68062AC3F3031398D1033B032B63
:10437C00B6D9CFE7454B1B68C3F30313033B032BA1
:10438C003FF67DAF444AD25C12B1444A032111601E
:10439C00434AD35C002B3FF472AF424A424C434930
:1043AC00434B05201060012500203F22256008604A
:1043BC001A6064E7033A032A3FF65DAF4FF080437F
:1043CC000022C3F80C21C3F81021C3F8382552E79A
:1043DC002E4A294B12681B78C2F3031248E72B4B69
:1043EC001B68C3F30313033B032B3FF63AAF314A6D
:1043FC00D35C002B3FF435AF2F4AD36823F0807386
:10440C00D3602EE7033A032A3FF626AF2B4B2C4AF8
:10441C001B68C3F3423313601EE71C4A164B126829
:10442C001B78C2F3031214E7184B1B68C3F3031376
:10443C00033B032B3FF606AF224AD35C002B3FF421
:10444C0001AF214B214A1A60FCE6033A032A3FF6DE
:10445C00F4AE1F4B1F4A1B68C3F304231360ECE636
:10446C000A4A054B12681B78C2F30312E2E600BF3E
:10447C003001001034010010E00F00F0A800002003
:10448C000090D003107500003C170040E80F00F0BE
:10449C0058020010E40E004014750000A005004006
:1044AC001475000010560040885600401856004005
:1044BC001456004014750000F0ED00E044020010AA
:1044CC003C0500401475000074C007400DF0ADBAF7
:1044DC002403001040350140434B5B5C002B48D05B
:1044EC004FF08052414BD2F80414C3F82015D2F887
:1044FC000814C3F82415D2F80C14C3F82815D2F8F4
:10450C001014C3F82C15D2F81414C3F83015D2F8C3
:10451C001814C3F83415D2F81C14C3F84015D2F88B
:10452C002014C3F84415D2F82414C3F84815D2F853
:10453C002814C3F84C15D2F82C14C3F85015D2F823
:10454C003014C3F85415D2F83414C3F86015D2F8EB
:10455C003814C3F86415D2F83C14C3F86815D2F8B3
:10456C0040142348C3F86C15D2F844140268C3F8FD
:10457C007015501C3FF4DDAE1E4B062A1B683FF431
:10458C00E0AE84E61C4A0123C2F80435D2F80034AC
:10459C00002BFBD04FF010231521174AC3F8001243
:1045AC00D2F80034002BFBD04FF010231521124A07
:1045BC00C3F80412D2F80034002BFBD000230E49B0
:1045CC00C2F80435D1F80034002BFBD0BFF34F8F69
:1045DC000A490B4BCA6802F4E0621343CB60BFF389
:1045EC004F8F00BFFDE700BF0C75000000C00040FE
:1045FC00300100103401001000E0014000ED00E03B
:10460C000400FA0500F004BEF8B50E4A431C52F83B
:10461C00204052F82360B44212D2361B013E04F102
:10462C00100326F007061E440834002754E902350F
:10463C0028460834984708B105B1AF60B442F5D1AB
:10464C00F8BD00BF1875000070B50F4A0F4DAA4297
:10465C0016D006461446A36813B12368B34210D093
:10466C001034AC42F7D1AA420AD0074CA3683046AA
:10467C001BB12168FFF7D8F818B11034AC42F5D152
:10468C000024204670BD00BFA4030020E4030020DA
:10469C00F8B505460E464FF04003EFF3118783F350
:1046AC001188BFF36F8F00F03BFD3146044628465E
:1046BC00FFF7B4FD87F31188BFF36F8F2046BDE879
:1046CC00F840FEF7DBBF00BFFEF768BC08B50B4D2A
:1046DC004FF04002EFF3118382F31188BFF36F8F19
:1046EC0000F0DAFE022804464FF00101D8BF012089
:1046FC0000F0E2FE2C62FEF759FEE9E734ED0020F3
:10470C00024A03480021121AFFF708B94CF00020A6
:10471C001004002008B50648064A0749121AFFF78C
:10472C00C9F8BDE80840054A05490648FFF7C2B874
:10473C00000000200C04002048760000000000005F
:10474C00487600000000002008B5094B0122022029
:10475C001A70FFF759FF0320FFF756FF00F080FD9A
:10476C00FCF782FA034A137B23F00103137308BD91
:10477C0046F00020C0EC00202DE98048DFF8F8B0AE
:10478C00A5B08BF30888364D364E6B69364FDFF883
:10479C00ECA0DFF8EC90DFF8EC800024E021202284
:1047AC0043F400736B6185F82210EA772C766C76F3
:1047BC00AC766B6A43F4E0236B62FEF73DFFFEF7C9
:1047CC00EFFD4FF0FF33AB6240F20112EB6220467B
:1047DC0007ABADF82820B360CDE91F44FFF714FFF9
:1047EC000120FFF711FF00F017FC204B7762012529
:1047FC00CDE90453384649464FF480625346CDE91F
:10480C000244CDE9004400F005FD7B7B23F004035A
:10481C0038467B7300F04CF90F23CDE9045414494E
:10482C0003934046134B00944FF4A072CDE901441E
:10483C0000F0F0FC98F80D50C6F804B0384625F09E
:10484C00040506F11807534649464FF48062C6E941
:10485C000677C6F80C80347588F80D50FEF784FD89
:10486C0000ED00E034ED0020C0EC002030750000BD
:10487C0050F40020D946000090FD00205547000060
:10488C0050F000204CEC002008B5FEF771FC0549F7
:10489C00054A03460868034413610021BDE808403B
:1048AC0000F00ABE6CED002034ED0020F8B50C468B
:1048BC004FF04003EFF3118583F31188BFF36F8F33
:1048CC00104B4FF4004240F2E7360027E2FB006742
:1048DC0000221A6130464FF47A7200233946FBF7F6
:1048EC00F7FB094A094B1460186020B985F311884D
:1048FC00BFF36F8FF8BDFFF7C7FF85F31188BFF3C8
:10490C006F8FF8BD34ED002068ED00206CED0020B9
:10491C0021B9EFF3058008B9FEF77CBC81F311884F
:10492C00BFF36F8F704700BF034620B9EFF30582CA
:10493C000AB9FEF76FBC83F31188BFF36F8F704712
:10494C004FF04003EFF3118183F31188BFF36F8FA6
:10495C00044B9A68D37B013BD37381F31188BFF36B
:10496C006F8F704734ED0020094B03F1280282420F
:10497C0007D0D1E90020002302605060C1E9003368
:10498C0070479B688B42F4D14B7BDB06F8D1F0E788
:10499C0034ED00200368984204D0002B38BF00236C
:1049AC00184670470020704738B5134D024605F184
:1049BC002800FFF7EFFFAB68597B0446880644BF1D
:1049CC0041F0080159738CB14AB95A7BD20606D111
:1049DC00A26922B9DA897F2A01D96B6238BDA34258
:1049EC0002D0064B1B681BB96C6238BDEC68EBE758
:1049FC00FFF74AFF6C62F8E734ED00206CED002005
:104A0C0010B54FF04003EFF3118483F31188BFF31B
:104A1C006F8F0C4B9A68D37B0133D3730020FFF755
:104A2C00C3FF84F31188BFF36F8F4FF04003EFF394
:104A3C00118083F31188BFF36F8FBDE81040FFF72F
:104A4C0073BF00BF34ED0020437BDB0601D18369CB
:104A5C0003B1704770B4154C224652F8281F91428E
:104A6C0003D000290B4638BF0023E66A53B190F9F6
:104A7C000E5093F90E108D4211DBB34202D01B681D
:104A8C00002BF6D14660E36A02601860E062437B5B
:104A9C0063F07F03437370BC0020FFF785BF5A6837
:104AAC00C0E9003210605860F1E700BF34ED00201F
:104ABC0010B54FF04003EFF3118483F31188BFF36B
:104ACC006F8FFFF7C1FF84F31188BFF36F8F10BD99
:104ADC0038B550F8103C0446A0F11801C3B14FF0A2
:104AEC004003EFF3118583F31188BFF36F8F50F8F8
:104AFC00100CFFF739FF14F80B3C002223F00203D3
:104B0C0004F80B3C44F8102C85F31188BFF36F8F1D
:104B1C0014F80B3C23F0140304F80B3CBDE83840AC
:104B2C000846FFF7C5BF00BF10B54FF04002EFF3CA
:104B3C00118482F31188BFF36F8F427B530704D427
:104B4C0084F31188BFF36F8F10BD22F004024273FF
:104B5C00FFF77AFF21460248BDE81040FFF7D8BEA8
:104B6C0068ED0020F8B503464FF04002EFF31187D3
:104B7C0082F31188BFF36F8F90F90D202349447B8A
:104B8C008868002A2FDB8A6ADFF884C0624538D037
:104B9C00002A38BF0022CE6A52B193F90E5092F916
:104BAC000E40A5420BDBB24202D01268002AF6D1AD
:104BBC005E60CA6AC3F800C01360CB6204E051683F
:104BCC00C3E900210B6053605A7B181A62F07F0214
:104BDC00B0FA80F040095A73FFF7E6FE87F31188AC
:104BEC00BFF36F8FF8BD83420DD0D3E9004500228F
:104BFC002C606560C3E90022DFF814C08A6A624544
:104C0C00C6D10022C7E7E206BDD1EEE734ED0020A5
:104C1C005CED00201849194B70B51A688C689442E9
:104C2C0015D0174D2A6800261E606AB1E3897F2BC8
:104C3C000AD8144B94F90E201B689A4204DB124BD1
:104C4C009C4201D0A36953B100230B6170BD0C4B86
:104C5C001B68002BFAD0BDE87040FFF715BE0B693E
:104C6C00834202DD181A086170BD2046FFF77AFFF7
:104C7C002B68002BEFD170BD34ED002064ED0020CB
:104C8C006CED002068ED00204CEC002070B5044663
:104C9C00183000F0DBFB4FF04003EFF3118683F389
:104CAC001188BFF36F8F94F90D20194D637BA868A1
:104CBC00002A10DB201A43F01003B0FA80F0637363
:104CCC004009FFF771FE86F31188BFF36F8FAB6855
:104CDC00A3420DD070BD844216D0D4E900321360CB
:104CEC005A600022C4E90022637B03F07F03E1E7F2
:104CFC004FF04003EFF3118083F31188BFF36F8FF4
:104D0C00BDE87040FFF710BEDA06EED1E5E700BF54
:104D1C0034ED0020836D2DE9F047054603B198472B
:104D2C0005F1180000F092FB4FF04003EFF31189EE
:104D3C0083F31188BFF36F8F6B7B13F01F0101D1CD
:104D4C00AA69A2B39A0744D4AC6A05F1280643F0C9
:104D5C000803A6426B7336D0DFF8C0804FF0000A10
:104D6C0008F1280712E0D4E9003213605A60C4E954
:104D7C0000AA637BC4F808A023F002036373C4F891
:104D8C0070A0FFF761FEAC6AB4421CD004F11800AD
:104D9C00CCB100F05BFBA368BB422046E3D1D8F852
:104DAC0008309C42DFD1637BD906E3D1DBE71B06DD
:104DBC0022D41A4B9868401BB0FA80F04009FFF7D8
:104DCC00F3FD6B7BC0E789F31188BFF36F8FBDE8F0
:104DDC00F087124AAC6802F12800844217D0D5E95A
:104DEC00003213605A600022C5E900226B7B00225E
:104DFC0003F0FD03AA60A7E7D5E900310B60596009
:104E0C006B7B2A6003F07F036A606B73D1E7926857
:104E1C009542E4D10029E2D0E9E700BF34ED00204F
:104E2C0090F90D20437B002A07DB104B9A68801AFF
:104E3C00B0FA80F04009FFF7B7BD0C4A9268904277
:104E4C0010D0D0E900310B6059600021C0E900118D
:104E5C00437B03F07F034373801AB0FA80F0400960
:104E6C00FFF7A2BDD906F4D1EBE700BF34ED00206B
:104E7C0010B54FF04003EFF3118483F31188BFF3A7
:104E8C006F8FFFF7CDFF84F31188BFF36F8F10BDC9
:104E9C00F8B5054600F0AAFB2C184FF04003EFF3D1
:104EAC00118783F31188BFF36F8F0D4E0D4BB068D4
:104EBC001860FFF7DDFFB0680B492A46EB17183076
:104ECC0000F040FAB268537B43F01003537338463A
:104EDC00FEF7A0F900F08AFB201A20EAE070F8BD7A
:104EEC0034ED002064ED0020DD4A000038B50446A6
:104EFC000D46FFF795FF637B43F002036373DDB14F
:104F0C002B68A5609D4218D0002B38BF0023A3B19D
:104F1C0094F90E1093F90E20914208DB6A689342C3
:104F2C000CD01B6853B193F90E209142F6DA5A68F3
:104F3C00C4E9003214605C6038BD6A6862606B68FA
:104F4C0025601C606C6038BD2DE9F04114461D468F
:104F5C0006464FF04003EFF3118783F31188BFF33C
:104F6C006F8FFFF7C3FF87F31188BFF36F8F6B1C35
:104F7C0008BFB4F1FF3F01D1BDE8F08122462B46BA
:104F8C0006F118000249BDE8F04100F0DBB900BFA2
:104F9C00DD4A000010B50748074B806818600C46C6
:104FAC001146DDE90223FFF7CFFF2046BDE8104094
:104FBC00FEF730B934ED002064ED002038B54FF029
:104FCC004003EFF3118283F31188BFF36F8FFFF768
:104FDC00E1FC044682F31188BFF36F8FC8B14FF028
:104FEC004003EFF3118583F31188BFF36F8F0146F4
:104FFC008068FFF7B9FC637B002223F00203637324
:10500C00A26085F31188BFF36F8F04F1180000F0D4
:10501C001DFA204638BD00BF044B002103F12802C5
:10502C00C3E90A220846FFF741BC00BF34ED00205B
:10503C002849F8B58A68284B9A4236D04FF040037D
:10504C00EFF3118583F31188BFF36F8F8A68537B5D
:10505C0013F01F0305D1D2E9000420604460C2E9BB
:10506C0000338B6A1D4FBB4231D0002B38BF00235D
:10507C00CE6A53B192F90E4093F90E00844220DBB4
:10508C00B34202D01B68002BF6D15660CB6A176076
:10509C001A60CA62537B63F07F0353730120FFF7DE
:1050AC0083FC85F31188BFF36F8F4FF04003EFF350
:1050BC00118083F31188BFF36F8FBDE8F840FEF7C2
:1050CC00A9B85968C2E900310A605A60E2E70023C6
:1050DC00CEE700BF34ED00204CEC00205CED00204E
:1050EC00013108BFB0F1FF3F10B510D0044650B1EC
:1050FC00FFF7CEFE4FF47A7380FB0301C40B44EA36
:10510C004144204610BDFFF793FF204610BD034BD2
:10511C009868FFF7BBFD4FF0FF34F2E734ED002049
:10512C00014B9868704700BF34ED00203AB18A42B9
:10513C0005D3C0E90212C0E90000002070476FF0EF
:10514C001500704738B504464FF04003EFF3118556
:10515C0083F31188BFF36F8FFFF730FF48B1002244
:10516C000267FFF7A5FC29460848BDE83840FFF761
:10517C00CFBBD4E902329A4218BF0133A36029464F
:10518C000248BDE83840FFF7C3BB00BF70ED0020FC
:10519C0030B51D4683B04FF04003EFF3118183F31C
:1051AC001188BFF36F8F836843B1013B836081F338
:1051BC001188BFF36F8F002003B030BD144654EA42
:1051CC00050306D00246CDE900450548FFF7E2FE8F
:1051DC00F2E781F31188BFF36F8F6FF00F00EBE7ED
:1051EC0070ED002030B414461D462C4302D130BC67
:1051FC00FFF79ABC30BC0249183000F0A3B800BFCE
:10520C00DD4A0000EFF30580003818BF012070471D
:10521C00FEF7E0BBF0B587B00426109F467307730A
:10522C000F9E04970C9F867300F128050396009738
:10523C000D9E0E9FC0E90A550025C0E90655CDE923
:10524C000167C5730446FEF773F8044B65659B68EC
:10525C00A56503B19B6EA36607B0F0BD34ED0020CD
:10526C002DE9F04B234F244DAF4286B017D23C466C
:10527C00D4E90532D4E90710E66A0193CDE90406B6
:10528C00CDE9022123690093D4E90223D4E900017A
:10529C00FFF7C0FF23685C653034AC42E8D3FFF7FE
:1052AC004FFBAF4220D2134C4FF4004740F2E7388B
:1052BC004FF00009666AC34626EAE671CC46C7FB86
:1052CC0001BC01364FF47A724FF000035846614628
:1052DC0007D0FAF7FDFE2668024600233046FFF79A
:1052EC0081FF3034AC42E5D306B0BDE8F04BFFF79C
:1052FC0087BB00BFE4030020E40300200E4B10B575
:10530C001C689C420D4B1B680DD093B100206CB1F6
:10531C00A368181A20EAE070094B1B6913B1984274
:10532C00A8BF184610BD0BB9FDF722FF6FF0004067
:10533C00F2E7FDF71DFFEAE7AC00002070ED00205E
:10534C0034ED00202DE9F84F5C1C08BFB2F1FF3F93
:10535C005DD0551C1F466FF0010347F1000B4FF059
:10536C00FF32B3EB050862EB0B09B8F1000F79F1D2
:10537C000003DFF8D48004468A4615DBD8F80030E9
:10538C00002B4AD0002000212D4BD3E900676FF091
:10539C0001039B1B4FF0FF3262EB07025D1B62EBBC
:1053AC000B0B2D1A6BEB010B012D7BF100032E4621
:1053BC00C4F80CA0B8BF01264FF04003EFF31185E1
:1053CC0083F31188BFF36F8FD8F800300BB3002232
:1053DC001C480368324483424668A26009D043B13A
:1053EC009968914223DC521AB342A26001D01B6827
:1053FC00F5E76660436820601C6044600368834284
:10540C0001D09C420DD085F31188BFF36F8FBDE89E
:10541C00F88FFDF7ADFE0246DAE7FDF7A9FEC117DE
:10542C00B2E7FFF76BFF0021FDF70CFEEBE75E68C0
:10543C008A1A9A60C4E9003634605C60DEE700BF0B
:10544C0048040020AC00002070ED002010B44FF098
:10545C004002EFF3118482F31188BFF36F8F02685F
:10546C00AAB10C4949688842034603D09168806808
:10547C00014491605868002102605060C3E900113A
:10548C00084684F31188BFF36F8F10BC70476FF020
:10549C001500F6E7AC00002010B54FF04003EFF319
:1054AC00118483F31188BFF36F8FFFF727FF84F309
:1054BC001188BFF36F8F10BD70B504460D464FF0C9
:1054CC004003EFF3118683F31188BFF36F8FFFF75F
:1054DC0015FFA04205DD012803DD29462046FDF716
:1054EC00B1FD86F31188BFF36F8F70BD2DE9F843C2
:1054FC000546FFF78FFB4FF04003EFF3118483F366
:10550C001188BFF36F8FDFF8A890284FD9F80000EF
:10551C003D60484546D0DFF89C8022460026002896
:10552C003ED08368AB42A5EB030C37DCD8E90045D1
:10553C00E4184168866045EBE37503680B60C8E9C5
:10554C0000455960C7F800C0C0E9006682F31188B5
:10555C00BFF36F8FC36898474FF04003EFF311848C
:10556C0083F31188BFF36F8FD9F800003D6848456D
:10557C002246D4D1D8E90023521943EBE573002518
:10558C00C8E900233D60FFF7B9FE2946FDF75AFD37
:10559C0084F31188BFF36F8FBDE8F8835B1B8360C6
:1055AC001446E7E7DFF80C80E4E700BF70ED00205D
:1055BC00AC0000204804002010B54FF04003EFF37E
:1055CC00118483F31188BFF36F8FFDF7D1FD064B68
:1055DC00D3E90023121843F1000384F31188BFF3BD
:1055EC006F8F1046194610BD4804002008B5FFF710
:1055FC00E3FF08BD38B5094C094DAC420BD204F1A0
:10560C000C03C4E90333D4E9011220461434FDF72A
:10561C001FFBAC42F3D3002038BD00BFE4030020D5
:10562C00E4030020704700BF034B1B6813B1034A0F
:10563C0010681847704700BF74ED002078ED00200B
:10564C00684620F007018D4601B500F09BFDFDF783
:10565C005FFEBDE801408546704700BF684620F0FC
:10566C0007018D4601B500F0FBFAFDF751FEBDE8D0
:10567C0001408546704700BF08B501220021082073
:10568C00FDF728FE012210460021FDF723FE002223
:10569C0002211420FDF71EFE022108460022FDF710
:1056AC0019FE00F037FC00F0E7FB00F049FB00F0BE
:1056BC00C7FB00F0D1FB00F0D7FB00F0FFFC054965
:1056CC00054B00202022086083F814234FF480122D
:1056DC001A6008BD74ED002000E100E000230370A7
:1056EC00704700BF10B40246EFF3108172B6037816
:1056FC000124B3FA83F04009147001B962B610BCEE
:10570C00704700BFEFF3108372B60022027003B92A
:10571C0062B67047024A034B106019600020704754
:10572C0074ED002078ED0020024B4FF48012C3F88A
:10573C000021704700E100E002289DBF800000F1CD
:10574C00804000F570400020704700BF30B4074B1C
:10575C00074C0225C3F80055C3F80805C3F81445D7
:10576C00C3F80C1530BCC3F81025704700F000408E
:10577C007CED00200C4A02284FF0000010B40BBF47
:10578C004FF0011301234FF480340446C2F8040196
:10579C0019B144F0807343F00103034A10BCC2F802
:1057AC00043501211160704700F0004018B1024A25
:1057BC001368002BFCD0704704F10040044BD3F865
:1057CC00040120B1D3F80004003818BF0120704741
:1057DC0000F0004020281BD800B301381F2815D832
:1057EC00DFE800F0121014271414142914141414E4
:1057FC001414142B14141414141414141414141446
:10580C00141414250E4870470E487047002070473A
:10581C0080280AD0B0F5807F01D10B4870470B4B24
:10582C00402814BF002018467047094870470948A3
:10583C00704709487047094870470948704700BFCE
:10584C0004110040001100402811004018110040C4
:10585C001C11004014110040081100400C110040B4
:10586C001011004038B528B1144900F0CDFB144B91
:10587C00187038BD124B0446187800F0F3FB114B2E
:10588C00D3F85025002AF4D0102501200E4AD3F865
:10589C000012C3F80853C3F80042C3F81041186152
:1058AC001368002BFCD0074B00201022C3F810010A
:1058BC00C3F80012C3F8042338BD00BF1010004019
:1058CC00A1030020001000401011004030B108B5B9
:1058DC00034900F099FB034B187008BD704700BFDB
:1058EC0010100040A003002008B528B10E4900F0AC
:1058FC008BFB0E4B187008BD0D4A0B49C2F800010A
:10590C0003460120C2F80431C2F80831C2F80C3148
:10591C00C2F81031C2F81431C2F81831C2F81C3177
:10592C00C2F82831086008BD04100040A203002012
:10593C0000100040012805D0064BD3F85026C3F8C0
:10594C0050267047034AD2F8503643F00103C2F890
:10595C00503670470010004026492DE9F0410226D0
:10596C000546C1F88060BFF34F8FBFF36F8F224B9A
:10597C00224F00240120C3F8FC4FC3F8FC0F3A68F7
:10598C0022F0807222F0010242F080723A604FF0F5
:10599C00130C1022C3F800C2C3F80C45C3F82C45F5
:1059AC00C3F83005C3F80423C1F8806181F80143C2
:1059BC000E60134E134BDFF860803078124F1D6071
:1059CC0000F050FB114D98F8000000F04BFB3878BC
:1059DC0000F048FB287800F045FBFF240C490D48EB
:1059EC002C7000F0A9FA3C70307088F80040BDE8CB
:1059FC00F08100BF00E100E000100040741700408F
:105A0C009F03002088EE0020A2030020A0030020AA
:105A1C001010004018110040A103002080B9022989
:105A2C0019D0D2B242F000720F4842F44032032136
:105A3C000E4BC3F81015C3F81405C3F8182570479E
:105A4C00D2B2022942F00072094842F440320CBF33
:105A5C0004210321ECE7D2B242F00072054842F473
:105A6C0040320421E4E700BF0801100000100040A0
:105A7C000601020008011001034BD3F81035042B6A
:105A8C000CBF02200120704700100040034AD2F8DE
:105A9C00003243F00803C2F8003270470010004097
:105AAC00024BD3F80002C0F3C00070470010004056
:105ABC00034AD2F8003223F00803C2F800327047D0
:105ACC0000100040114B124AA3FB00135B0903EBBF
